{
  "_format": "hh-sol-artifact-1",
  "contractName": "ERPLedger",
  "sourceName": "contracts/ERPLedger.sol",
  "abi": [
    {
      "inputs": [],
      "stateMutability": "nonpayable",
      "type": "constructor"
    },
    {
      "anonymous": false,
      "inputs": [
        {
          "indexed": true,
          "internalType": "uint256",
          "name": "id",
          "type": "uint256"
        },
        {
          "indexed": false,
          "internalType": "enum ERPLedger.RecordType",
          "name": "recordType",
          "type": "uint8"
        },
        {
          "indexed": false,
          "internalType": "string",
          "name": "referenceNumber",
          "type": "string"
        },
        {
          "indexed": false,
          "internalType": "string",
          "name": "dataHash",
          "type": "string"
        },
        {
          "indexed": false,
          "internalType": "uint256",
          "name": "timestamp",
          "type": "uint256"
        }
      ],
      "name": "RecordCreated",
      "type": "event"
    },
    {
      "anonymous": false,
      "inputs": [
        {
          "indexed": true,
          "internalType": "uint256",
          "name": "recordId",
          "type": "uint256"
        },
        {
          "indexed": false,
          "internalType": "enum ERPLedger.Status",
          "name": "oldStatus",
          "type": "uint8"
        },
        {
          "indexed": false,
          "internalType": "enum ERPLedger.Status",
          "name": "newStatus",
          "type": "uint8"
        },
        {
          "indexed": false,
          "internalType": "address",
          "name": "updatedBy",
          "type": "address"
        },
        {
          "indexed": false,
          "internalType": "uint256",
          "name": "timestamp",
          "type": "uint256"
        }
      ],
      "name": "StatusUpdated",
      "type": "event"
    },
    {
      "anonymous": false,
      "inputs": [
        {
          "indexed": false,
          "internalType": "address",
          "name": "writer",
          "type": "address"
        },
        {
          "indexed": false,
          "internalType": "bool",
          "name": "status",
          "type": "bool"
        }
      ],
      "name": "WriterAuthorized",
      "type": "event"
    },
    {
      "inputs": [
        {
          "internalType": "address",
          "name": "_writer",
          "type": "address"
        },
        {
          "internalType": "bool",
          "name": "_status",
          "type": "bool"
        }
      ],
      "name": "authorizeWriter",
      "outputs": [],
      "stateMutability": "nonpayable",
      "type": "function"
    },
    {
      "inputs": [
        {
          "internalType": "address",
          "name": "",
          "type": "address"
        }
      ],
      "name": "authorizedWriters",
      "outputs": [
        {
          "internalType": "bool",
          "name": "",
          "type": "bool"
        }
      ],
      "stateMutability": "view",
      "type": "function"
    },
    {
      "inputs": [
        {
          "internalType": "enum ERPLedger.RecordType",
          "name": "_type",
          "type": "uint8"
        },
        {
          "internalType": "string",
          "name": "_referenceNumber",
          "type": "string"
        },
        {
          "internalType": "string",
          "name": "_dataHash",
          "type": "string"
        },
        {
          "internalType": "string",
          "name": "_metadata",
          "type": "string"
        }
      ],
      "name": "createRecord",
      "outputs": [
        {
          "internalType": "uint256",
          "name": "",
          "type": "uint256"
        }
      ],
      "stateMutability": "nonpayable",
      "type": "function"
    },
    {
      "inputs": [
        {
          "internalType": "uint256",
          "name": "_id",
          "type": "uint256"
        }
      ],
      "name": "getRecord",
      "outputs": [
        {
          "components": [
            {
              "internalType": "uint256",
              "name": "id",
              "type": "uint256"
            },
            {
              "internalType": "enum ERPLedger.RecordType",
              "name": "recordType",
              "type": "uint8"
            },
            {
              "internalType": "string",
              "name": "referenceNumber",
              "type": "string"
            },
            {
              "internalType": "string",
              "name": "dataHash",
              "type": "string"
            },
            {
              "internalType": "address",
              "name": "recordedBy",
              "type": "address"
            },
            {
              "internalType": "uint256",
              "name": "timestamp",
              "type": "uint256"
            },
            {
              "internalType": "enum ERPLedger.Status",
              "name": "status",
              "type": "uint8"
            },
            {
              "internalType": "string",
              "name": "metadata",
              "type": "string"
            }
          ],
          "internalType": "struct ERPLedger.ERPRecord",
          "name": "",
          "type": "tuple"
        }
      ],
      "stateMutability": "view",
      "type": "function"
    },
    {
      "inputs": [
        {
          "internalType": "string",
          "name": "_ref",
          "type": "string"
        }
      ],
      "name": "getRecordByReference",
      "outputs": [
        {
          "components": [
            {
              "internalType": "uint256",
              "name": "id",
              "type": "uint256"
            },
            {
              "internalType": "enum ERPLedger.RecordType",
              "name": "recordType",
              "type": "uint8"
            },
            {
              "internalType": "string",
              "name": "referenceNumber",
              "type": "string"
            },
            {
              "internalType": "string",
              "name": "dataHash",
              "type": "string"
            },
            {
              "internalType": "address",
              "name": "recordedBy",
              "type": "address"
            },
            {
              "internalType": "uint256",
              "name": "timestamp",
              "type": "uint256"
            },
            {
              "internalType": "enum ERPLedger.Status",
              "name": "status",
              "type": "uint8"
            },
            {
              "internalType": "string",
              "name": "metadata",
              "type": "string"
            }
          ],
          "internalType": "struct ERPLedger.ERPRecord",
          "name": "",
          "type": "tuple"
        }
      ],
      "stateMutability": "view",
      "type": "function"
    },
    {
      "inputs": [
        {
          "internalType": "uint256",
          "name": "_id",
          "type": "uint256"
        }
      ],
      "name": "getStatusHistory",
      "outputs": [
        {
          "components": [
            {
              "internalType": "uint256",
              "name": "recordId",
              "type": "uint256"
            },
            {
              "internalType": "enum ERPLedger.Status",
              "name": "oldStatus",
              "type": "uint8"
            },
            {
              "internalType": "enum ERPLedger.Status",
              "name": "newStatus",
              "type": "uint8"
            },
            {
              "internalType": "string",
              "name": "reason",
              "type": "string"
            },
            {
              "internalType": "address",
              "name": "updatedBy",
              "type": "address"
            },
            {
              "internalType": "uint256",
              "name": "timestamp",
              "type": "uint256"
            }
          ],
          "internalType": "struct ERPLedger.StatusUpdate[]",
          "name": "",
          "type": "tuple[]"
        }
      ],
      "stateMutability": "view",
      "type": "function"
    },
    {
      "inputs": [],
      "name": "getTotalRecords",
      "outputs": [
        {
          "internalType": "uint256",
          "name": "",
          "type": "uint256"
        }
      ],
      "stateMutability": "view",
      "type": "function"
    },
    {
      "inputs": [],
      "name": "owner",
      "outputs": [
        {
          "internalType": "address",
          "name": "",
          "type": "address"
        }
      ],
      "stateMutability": "view",
      "type": "function"
    },
    {
      "inputs": [
        {
          "internalType": "uint256",
          "name": "",
          "type": "uint256"
        }
      ],
      "name": "records",
      "outputs": [
        {
          "internalType": "uint256",
          "name": "id",
          "type": "uint256"
        },
        {
          "internalType": "enum ERPLedger.RecordType",
          "name": "recordType",
          "type": "uint8"
        },
        {
          "internalType": "string",
          "name": "referenceNumber",
          "type": "string"
        },
        {
          "internalType": "string",
          "name": "dataHash",
          "type": "string"
        },
        {
          "internalType": "address",
          "name": "recordedBy",
          "type": "address"
        },
        {
          "internalType": "uint256",
          "name": "timestamp",
          "type": "uint256"
        },
        {
          "internalType": "enum ERPLedger.Status",
          "name": "status",
          "type": "uint8"
        },
        {
          "internalType": "string",
          "name": "metadata",
          "type": "string"
        }
      ],
      "stateMutability": "view",
      "type": "function"
    },
    {
      "inputs": [
        {
          "internalType": "string",
          "name": "",
          "type": "string"
        }
      ],
      "name": "referenceToId",
      "outputs": [
        {
          "internalType": "uint256",
          "name": "",
          "type": "uint256"
        }
      ],
      "stateMutability": "view",
      "type": "function"
    },
    {
      "inputs": [
        {
          "internalType": "uint256",
          "name": "",
          "type": "uint256"
        },
        {
          "internalType": "uint256",
          "name": "",
          "type": "uint256"
        }
      ],
      "name": "statusHistory",
      "outputs": [
        {
          "internalType": "uint256",
          "name": "recordId",
          "type": "uint256"
        },
        {
          "internalType": "enum ERPLedger.Status",
          "name": "oldStatus",
          "type": "uint8"
        },
        {
          "internalType": "enum ERPLedger.Status",
          "name": "newStatus",
          "type": "uint8"
        },
        {
          "internalType": "string",
          "name": "reason",
          "type": "string"
        },
        {
          "internalType": "address",
          "name": "updatedBy",
          "type": "address"
        },
        {
          "internalType": "uint256",
          "name": "timestamp",
          "type": "uint256"
        }
      ],
      "stateMutability": "view",
      "type": "function"
    },
    {
      "inputs": [
        {
          "internalType": "uint256",
          "name": "_recordId",
          "type": "uint256"
        },
        {
          "internalType": "enum ERPLedger.Status",
          "name": "_newStatus",
          "type": "uint8"
        },
        {
          "internalType": "string",
          "name": "_reason",
          "type": "string"
        }
      ],
      "name": "updateStatus",
      "outputs": [],
      "stateMutability": "nonpayable",
      "type": "function"
    },
    {
      "inputs": [
        {
          "internalType": "uint256",
          "name": "_id",
          "type": "uint256"
        },
        {
          "internalType": "string",
          "name": "_hash",
          "type": "string"
        }
      ],
      "name": "verifyDataHash",
      "outputs": [
        {
          "internalType": "bool",
          "name": "",
          "type": "bool"
        }
      ],
      "stateMutability": "view",
      "type": "function"
    }
  ],
  "bytecode": "0x608060405234801561001057600080fd5b5033600560006101000a81548173ffffffffffffffffffffffffffffffffffffffff021916908373ffffffffffffffffffffffffffffffffffffffff1602179055506001600460003373ffffffffffffffffffffffffffffffffffffffff1673ffffffffffffffffffffffffffffffffffffffff16815260200190815260200160002060006101000a81548160ff02191690831515021790555061286f806100b96000396000f3fe608060405234801561001057600080fd5b50600436106100cf5760003560e01c8063582601881161008c578063781f0b7211610066578063781f0b72146102795780638da5cb5b14610295578063a6ec1215146102b3578063d215e128146102e8576100cf565b806358260188146101e957806358a20b3b146102195780636f13695314610249576100cf565b806303e9e609146100d45780630aeacb5e146101045780632e302ce11461012257806334461067146101525780633ca4036b14610189578063526241a8146101b9575b600080fd5b6100ee60048036038101906100e9919061170d565b610304565b6040516100fb9190611997565b60405180910390f35b61010c6105c8565b60405161011991906119c8565b60405180910390f35b61013c60048036038101906101379190611b18565b6105d1565b6040516101499190611997565b60405180910390f35b61016c6004803603810190610167919061170d565b6108b3565b604051610180989796959493929190611bd8565b60405180910390f35b6101a3600480360381019061019e9190611c90565b610acd565b6040516101b091906119c8565b60405180910390f35b6101d360048036038101906101ce9190611d77565b610e26565b6040516101e09190611dbf565b60405180910390f35b61020360048036038101906101fe9190611b18565b610e46565b60405161021091906119c8565b60405180910390f35b610233600480360381019061022e919061170d565b610e74565b6040516102409190611f25565b60405180910390f35b610263600480360381019061025e9190611f47565b611058565b6040516102709190611dbf565b60405180910390f35b610293600480360381019061028e9190611fc8565b611096565b005b61029d6113df565b6040516102aa9190612037565b60405180910390f35b6102cd60048036038101906102c89190612052565b611405565b6040516102df96959493929190612092565b60405180910390f35b61030260048036038101906102fd9190612126565b611520565b005b61030c611644565b6001600083815260200190815260200160002060405180610100016040529081600082015481526020016001820160009054906101000a900460ff16600581111561035a57610359611749565b5b600581111561036c5761036b611749565b5b815260200160028201805461038090612195565b80601f01602080910402602001604051908101604052809291908181526020018280546103ac90612195565b80156103f95780601f106103ce576101008083540402835291602001916103f9565b820191906000526020600020905b8154815290600101906020018083116103dc57829003601f168201915b5050505050815260200160038201805461041290612195565b80601f016020809104026020016040519081016040528092919081815260200182805461043e90612195565b801561048b5780601f106104605761010080835404028352916020019161048b565b820191906000526020600020905b81548152906001019060200180831161046e57829003601f168201915b505050505081526020016004820160009054906101000a900473ffffffffffffffffffffffffffffffffffffffff1673ffffffffffffffffffffffffffffffffffffffff1673ffffffffffffffffffffffffffffffffffffffff168152602001600582015481526020016006820160009054906101000a900460ff16600481111561051957610518611749565b5b600481111561052b5761052a611749565b5b815260200160078201805461053f90612195565b80601f016020809104026020016040519081016040528092919081815260200182805461056b90612195565b80156105b85780601f1061058d576101008083540402835291602001916105b8565b820191906000526020600020905b81548152906001019060200180831161059b57829003601f168201915b5050505050815250509050919050565b60008054905090565b6105d9611644565b600160006002846040516105ed9190612202565b908152602001604051809103902054815260200190815260200160002060405180610100016040529081600082015481526020016001820160009054906101000a900460ff16600581111561064557610644611749565b5b600581111561065757610656611749565b5b815260200160028201805461066b90612195565b80601f016020809104026020016040519081016040528092919081815260200182805461069790612195565b80156106e45780601f106106b9576101008083540402835291602001916106e4565b820191906000526020600020905b8154815290600101906020018083116106c757829003601f168201915b505050505081526020016003820180546106fd90612195565b80601f016020809104026020016040519081016040528092919081815260200182805461072990612195565b80156107765780601f1061074b57610100808354040283529160200191610776565b820191906000526020600020905b81548152906001019060200180831161075957829003601f168201915b505050505081526020016004820160009054906101000a900473ffffffffffffffffffffffffffffffffffffffff1673ffffffffffffffffffffffffffffffffffffffff1673ffffffffffffffffffffffffffffffffffffffff168152602001600582015481526020016006820160009054906101000a900460ff16600481111561080457610803611749565b5b600481111561081657610815611749565b5b815260200160078201805461082a90612195565b80601f016020809104026020016040519081016040528092919081815260200182805461085690612195565b80156108a35780601f10610878576101008083540402835291602001916108a3565b820191906000526020600020905b81548152906001019060200180831161088657829003601f168201915b5050505050815250509050919050565b60016020528060005260406000206000915090508060000154908060010160009054906101000a900460ff16908060020180546108ef90612195565b80601f016020809104026020016040519081016040528092919081815260200182805461091b90612195565b80156109685780601f1061093d57610100808354040283529160200191610968565b820191906000526020600020905b81548152906001019060200180831161094b57829003601f168201915b50505050509080600301805461097d90612195565b80601f01602080910402602001604051908101604052809291908181526020018280546109a990612195565b80156109f65780601f106109cb576101008083540402835291602001916109f6565b820191906000526020600020905b8154815290600101906020018083116109d957829003601f168201915b5050505050908060040160009054906101000a900473ffffffffffffffffffffffffffffffffffffffff16908060050154908060060160009054906101000a900460ff1690806007018054610a4a90612195565b80601f0160208091040260200160405190810160405280929190818152602001828054610a7690612195565b8015610ac35780601f10610a9857610100808354040283529160200191610ac3565b820191906000526020600020905b815481529060010190602001808311610aa657829003601f168201915b5050505050905088565b6000600460003373ffffffffffffffffffffffffffffffffffffffff1673ffffffffffffffffffffffffffffffffffffffff16815260200190815260200160002060009054906101000a900460ff1680610b745750600560009054906101000a900473ffffffffffffffffffffffffffffffffffffffff1673ffffffffffffffffffffffffffffffffffffffff163373ffffffffffffffffffffffffffffffffffffffff16145b610bb3576040517f08c379a0000000000000000000000000000000000000000000000000000000008152600401610baa90612265565b60405180910390fd5b6000600285604051610bc59190612202565b90815260200160405180910390205414610c14576040517f08c379a0000000000000000000000000000000000000000000000000000000008152600401610c0b906122d1565b60405180910390fd5b600080815480929190610c2690612320565b9190505550600080549050604051806101000160405280828152602001876005811115610c5657610c55611749565b5b81526020018681526020018581526020013373ffffffffffffffffffffffffffffffffffffffff16815260200142815260200160006004811115610c9d57610c9c611749565b5b815260200184815250600160008381526020019081526020016000206000820151816000015560208201518160010160006101000a81548160ff02191690836005811115610cee57610ced611749565b5b02179055506040820151816002019081610d089190612514565b506060820151816003019081610d1e9190612514565b5060808201518160040160006101000a81548173ffffffffffffffffffffffffffffffffffffffff021916908373ffffffffffffffffffffffffffffffffffffffff16021790555060a0820151816005015560c08201518160060160006101000a81548160ff02191690836004811115610d9b57610d9a611749565b5b021790555060e0820151816007019081610db59190612514565b5090505080600286604051610dca9190612202565b908152602001604051809103902081905550807fe869e1c905b6215108199662a416d62352a196ce81e4b8a523966cc08ebcdbc687878742604051610e1294939291906125e6565b60405180910390a280915050949350505050565b60046020528060005260406000206000915054906101000a900460ff1681565b6002818051602081018201805184825260208301602085012081835280955050505050506000915090505481565b606060036000838152602001908152602001600020805480602002602001604051908101604052809291908181526020016000905b8282101561104d57838290600052602060002090600502016040518060c0016040529081600082015481526020016001820160009054906101000a900460ff166004811115610efb57610efa611749565b5b6004811115610f0d57610f0c611749565b5b81526020016001820160019054906101000a900460ff166004811115610f3657610f35611749565b5b6004811115610f4857610f47611749565b5b8152602001600282018054610f5c90612195565b80601f0160208091040260200160405190810160405280929190818152602001828054610f8890612195565b8015610fd55780601f10610faa57610100808354040283529160200191610fd5565b820191906000526020600020905b815481529060010190602001808311610fb857829003601f168201915b505050505081526020016003820160009054906101000a900473ffffffffffffffffffffffffffffffffffffffff1673ffffffffffffffffffffffffffffffffffffffff1673ffffffffffffffffffffffffffffffffffffffff16815260200160048201548152505081526020019060010190610ea9565b505050509050919050565b600081805190602001206001600085815260200190815260200160002060030160405161108591906126dc565b604051809103902014905092915050565b600460003373ffffffffffffffffffffffffffffffffffffffff1673ffffffffffffffffffffffffffffffffffffffff16815260200190815260200160002060009054906101000a900460ff168061113b5750600560009054906101000a900473ffffffffffffffffffffffffffffffffffffffff1673ffffffffffffffffffffffffffffffffffffffff163373ffffffffffffffffffffffffffffffffffffffff16145b61117a576040517f08c379a000000000000000000000000000000000000000000000000000000000815260040161117190612265565b60405180910390fd5b60008311801561118c57506000548311155b6111cb576040517f08c379a00000000000000000000000000000000000000000000000000000000081526004016111c29061273f565b60405180910390fd5b600060016000858152602001908152602001600020905060008160060160009054906101000a900460ff169050838260060160006101000a81548160ff0219169083600481111561121f5761121e611749565b5b0217905550600360008681526020019081526020016000206040518060c0016040528087815260200183600481111561125b5761125a611749565b5b815260200186600481111561127357611272611749565b5b81526020018581526020013373ffffffffffffffffffffffffffffffffffffffff1681526020014281525090806001815401808255809150506001900390600052602060002090600502016000909190919091506000820151816000015560208201518160010160006101000a81548160ff021916908360048111156112fc576112fb611749565b5b021790555060408201518160010160016101000a81548160ff0219169083600481111561132c5761132b611749565b5b021790555060608201518160020190816113469190612514565b5060808201518160030160006101000a81548173ffffffffffffffffffffffffffffffffffffffff021916908373ffffffffffffffffffffffffffffffffffffffff16021790555060a082015181600401555050847fdd0fc8e29d62ab161c1aa45daf89d3b7862bd58077e7219e3da7cd02570c1b3a828633426040516113d0949392919061275f565b60405180910390a25050505050565b600560009054906101000a900473ffffffffffffffffffffffffffffffffffffffff1681565b6003602052816000526040600020818154811061142157600080fd5b9060005260206000209060050201600091509150508060000154908060010160009054906101000a900460ff16908060010160019054906101000a900460ff169080600201805461147190612195565b80601f016020809104026020016040519081016040528092919081815260200182805461149d90612195565b80156114ea5780601f106114bf576101008083540402835291602001916114ea565b820191906000526020600020905b8154815290600101906020018083116114cd57829003601f168201915b5050505050908060030160009054906101000a900473ffffffffffffffffffffffffffffffffffffffff16908060040154905086565b600560009054906101000a900473ffffffffffffffffffffffffffffffffffffffff1673ffffffffffffffffffffffffffffffffffffffff163373ffffffffffffffffffffffffffffffffffffffff16146115b0576040517f08c379a00000000000000000000000000000000000000000000000000000000081526004016115a7906127f0565b60405180910390fd5b80600460008473ffffffffffffffffffffffffffffffffffffffff1673ffffffffffffffffffffffffffffffffffffffff16815260200190815260200160002060006101000a81548160ff0219169083151502179055507fd2c4ec7f557ae9098a570ede160e3b50f2c5864fcddf0dd1da6a1f979016214b8282604051611638929190612810565b60405180910390a15050565b604051806101000160405280600081526020016000600581111561166b5761166a611749565b5b81526020016060815260200160608152602001600073ffffffffffffffffffffffffffffffffffffffff16815260200160008152602001600060048111156116b6576116b5611749565b5b8152602001606081525090565b6000604051905090565b600080fd5b600080fd5b6000819050919050565b6116ea816116d7565b81146116f557600080fd5b50565b600081359050611707816116e1565b92915050565b600060208284031215611723576117226116cd565b5b6000611731848285016116f8565b91505092915050565b611743816116d7565b82525050565b7f4e487b7100000000000000000000000000000000000000000000000000000000600052602160045260246000fd5b6006811061178957611788611749565b5b50565b600081905061179a82611778565b919050565b60006117aa8261178c565b9050919050565b6117ba8161179f565b82525050565b600081519050919050565b600082825260208201905092915050565b60005b838110156117fa5780820151818401526020810190506117df565b60008484015250505050565b6000601f19601f8301169050919050565b6000611822826117c0565b61182c81856117cb565b935061183c8185602086016117dc565b61184581611806565b840191505092915050565b600073ffffffffffffffffffffffffffffffffffffffff82169050919050565b600061187b82611850565b9050919050565b61188b81611870565b82525050565b600581106118a2576118a1611749565b5b50565b60008190506118b382611891565b919050565b60006118c3826118a5565b9050919050565b6118d3816118b8565b82525050565b6000610100830160008301516118f2600086018261173a565b50602083015161190560208601826117b1565b506040830151848203604086015261191d8282611817565b915050606083015184820360608601526119378282611817565b915050608083015161194c6080860182611882565b5060a083015161195f60a086018261173a565b5060c083015161197260c08601826118ca565b5060e083015184820360e086015261198a8282611817565b9150508091505092915050565b600060208201905081810360008301526119b181846118d9565b905092915050565b6119c2816116d7565b82525050565b60006020820190506119dd60008301846119b9565b92915050565b600080fd5b600080fd5b7f4e487b7100000000000000000000000000000000000000000000000000000000600052604160045260246000fd5b611a2582611806565b810181811067ffffffffffffffff82111715611a4457611a436119ed565b5b80604052505050565b6000611a576116c3565b9050611a638282611a1c565b919050565b600067ffffffffffffffff821115611a8357611a826119ed565b5b611a8c82611806565b9050602081019050919050565b82818337600083830152505050565b6000611abb611ab684611a68565b611a4d565b905082815260208101848484011115611ad757611ad66119e8565b5b611ae2848285611a99565b509392505050565b600082601f830112611aff57611afe6119e3565b5b8135611b0f848260208601611aa8565b91505092915050565b600060208284031215611b2e57611b2d6116cd565b5b600082013567ffffffffffffffff811115611b4c57611b4b6116d2565b5b611b5884828501611aea565b91505092915050565b611b6a8161179f565b82525050565b600082825260208201905092915050565b6000611b8c826117c0565b611b968185611b70565b9350611ba68185602086016117dc565b611baf81611806565b840191505092915050565b611bc381611870565b82525050565b611bd2816118b8565b82525050565b600061010082019050611bee600083018b6119b9565b611bfb602083018a611b61565b8181036040830152611c0d8189611b81565b90508181036060830152611c218188611b81565b9050611c306080830187611bba565b611c3d60a08301866119b9565b611c4a60c0830185611bc9565b81810360e0830152611c5c8184611b81565b90509998505050505050505050565b60068110611c7857600080fd5b50565b600081359050611c8a81611c6b565b92915050565b60008060008060808587031215611caa57611ca96116cd565b5b6000611cb887828801611c7b565b945050602085013567ffffffffffffffff811115611cd957611cd86116d2565b5b611ce587828801611aea565b935050604085013567ffffffffffffffff811115611d0657611d056116d2565b5b611d1287828801611aea565b925050606085013567ffffffffffffffff811115611d3357611d326116d2565b5b611d3f87828801611aea565b91505092959194509250565b611d5481611870565b8114611d5f57600080fd5b50565b600081359050611d7181611d4b565b92915050565b600060208284031215611d8d57611d8c6116cd565b5b6000611d9b84828501611d62565b91505092915050565b60008115159050919050565b611db981611da4565b82525050565b6000602082019050611dd46000830184611db0565b92915050565b600081519050919050565b600082825260208201905092915050565b6000819050602082019050919050565b600060c083016000830151611e1e600086018261173a565b506020830151611e3160208601826118ca565b506040830151611e4460408601826118ca565b5060608301518482036060860152611e5c8282611817565b9150506080830151611e716080860182611882565b5060a0830151611e8460a086018261173a565b508091505092915050565b6000611e9b8383611e06565b905092915050565b6000602082019050919050565b6000611ebb82611dda565b611ec58185611de5565b935083602082028501611ed785611df6565b8060005b85811015611f135784840389528151611ef48582611e8f565b9450611eff83611ea3565b925060208a01995050600181019050611edb565b50829750879550505050505092915050565b60006020820190508181036000830152611f3f8184611eb0565b905092915050565b60008060408385031215611f5e57611f5d6116cd565b5b6000611f6c858286016116f8565b925050602083013567ffffffffffffffff811115611f8d57611f8c6116d2565b5b611f9985828601611aea565b9150509250929050565b60058110611fb057600080fd5b50565b600081359050611fc281611fa3565b92915050565b600080600060608486031215611fe157611fe06116cd565b5b6000611fef868287016116f8565b935050602061200086828701611fb3565b925050604084013567ffffffffffffffff811115612021576120206116d2565b5b61202d86828701611aea565b9150509250925092565b600060208201905061204c6000830184611bba565b92915050565b60008060408385031215612069576120686116cd565b5b6000612077858286016116f8565b9250506020612088858286016116f8565b9150509250929050565b600060c0820190506120a760008301896119b9565b6120b46020830188611bc9565b6120c16040830187611bc9565b81810360608301526120d38186611b81565b90506120e26080830185611bba565b6120ef60a08301846119b9565b979650505050505050565b61210381611da4565b811461210e57600080fd5b50565b600081359050612120816120fa565b92915050565b6000806040838503121561213d5761213c6116cd565b5b600061214b85828601611d62565b925050602061215c85828601612111565b9150509250929050565b7f4e487b7100000000000000000000000000000000000000000000000000000000600052602260045260246000fd5b600060028204905060018216806121ad57607f821691505b6020821081036121c0576121bf612166565b5b50919050565b600081905092915050565b60006121dc826117c0565b6121e681856121c6565b93506121f68185602086016117dc565b80840191505092915050565b600061220e82846121d1565b915081905092915050565b7f4e6f7420617574686f72697a6564000000000000000000000000000000000000600082015250565b600061224f600e83611b70565b915061225a82612219565b602082019050919050565b6000602082019050818103600083015261227e81612242565b9050919050565b7f5265666572656e636520616c7265616479206578697374730000000000000000600082015250565b60006122bb601883611b70565b91506122c682612285565b602082019050919050565b600060208201905081810360008301526122ea816122ae565b9050919050565b7f4e487b7100000000000000000000000000000000000000000000000000000000600052601160045260246000fd5b600061232b826116d7565b91507fffffffffffffffffffffffffffffffffffffffffffffffffffffffffffffffff820361235d5761235c6122f1565b5b600182019050919050565b60008190508160005260206000209050919050565b60006020601f8301049050919050565b600082821b905092915050565b6000600883026123ca7fffffffffffffffffffffffffffffffffffffffffffffffffffffffffffffffff8261238d565b6123d4868361238d565b95508019841693508086168417925050509392505050565b6000819050919050565b600061241161240c612407846116d7565b6123ec565b6116d7565b9050919050565b6000819050919050565b61242b836123f6565b61243f61243782612418565b84845461239a565b825550505050565b600090565b612454612447565b61245f818484612422565b505050565b5b818110156124835761247860008261244c565b600181019050612465565b5050565b601f8211156124c85761249981612368565b6124a28461237d565b810160208510156124b1578190505b6124c56124bd8561237d565b830182612464565b50505b505050565b600082821c905092915050565b60006124eb600019846008026124cd565b1980831691505092915050565b600061250483836124da565b9150826002028217905092915050565b61251d826117c0565b67ffffffffffffffff811115612536576125356119ed565b5b6125408254612195565b61254b828285612487565b600060209050601f83116001811461257e576000841561256c578287015190505b61257685826124f8565b8655506125de565b601f19841661258c86612368565b60005b828110156125b45784890151825560018201915060208501945060208101905061258f565b868310156125d157848901516125cd601f8916826124da565b8355505b6001600288020188555050505b505050505050565b60006080820190506125fb6000830187611b61565b818103602083015261260d8186611b81565b905081810360408301526126218185611b81565b905061263060608301846119b9565b95945050505050565b600081905092915050565b60008190508160005260206000209050919050565b6000815461266681612195565b6126708186612639565b9450600182166000811461268b57600181146126a0576126d3565b60ff19831686528115158202860193506126d3565b6126a985612644565b60005b838110156126cb578154818901526001820191506020810190506126ac565b838801955050505b50505092915050565b60006126e88284612659565b915081905092915050565b7f496e76616c6964207265636f7264000000000000000000000000000000000000600082015250565b6000612729600e83611b70565b9150612734826126f3565b602082019050919050565b600060208201905081810360008301526127588161271c565b9050919050565b60006080820190506127746000830187611bc9565b6127816020830186611bc9565b61278e6040830185611bba565b61279b60608301846119b9565b95945050505050565b7f4e6f74206f776e65720000000000000000000000000000000000000000000000600082015250565b60006127da600983611b70565b91506127e5826127a4565b602082019050919050565b60006020820190508181036000830152612809816127cd565b9050919050565b60006040820190506128256000830185611bba565b6128326020830184611db0565b939250505056fea26469706673582212202802408a96d54c6ef0de3b0aaa3a5906f0212ae2742c1ec3c1a2f441343880e864736f6c63430008140033",
  "linkReferences": {},
  "deployedLinkReferences": {}
}