{
  "_format": "hh-sol-artifact-1",
  "contractName": "SyncraAuditTrail",
  "sourceName": "contracts/SyncraAuditTrail.sol",
  "abi": [
    {
      "inputs": [],
      "stateMutability": "nonpayable",
      "type": "constructor"
    },
    {
      "anonymous": false,
      "inputs": [
        {
          "indexed": true,
          "internalType": "bytes32",
          "name": "recordId",
          "type": "bytes32"
        },
        {
          "indexed": false,
          "internalType": "string",
          "name": "eventType",
          "type": "string"
        },
        {
          "indexed": false,
          "internalType": "string",
          "name": "entityType",
          "type": "string"
        },
        {
          "indexed": false,
          "internalType": "string",
          "name": "entityId",
          "type": "string"
        },
        {
          "indexed": false,
          "internalType": "string",
          "name": "dataHash",
          "type": "string"
        },
        {
          "indexed": false,
          "internalType": "address",
          "name": "recorder",
          "type": "address"
        },
        {
          "indexed": false,
          "internalType": "uint256",
          "name": "timestamp",
          "type": "uint256"
        }
      ],
      "name": "AuditRecorded",
      "type": "event"
    },
    {
      "anonymous": false,
      "inputs": [
        {
          "indexed": true,
          "internalType": "bytes32",
          "name": "recordId",
          "type": "bytes32"
        },
        {
          "indexed": false,
          "internalType": "bool",
          "name": "verified",
          "type": "bool"
        }
      ],
      "name": "RecordVerified",
      "type": "event"
    },
    {
      "inputs": [
        {
          "internalType": "uint256",
          "name": "count",
          "type": "uint256"
        }
      ],
      "name": "getRecentRecords",
      "outputs": [
        {
          "components": [
            {
              "internalType": "bytes32",
              "name": "id",
              "type": "bytes32"
            },
            {
              "internalType": "string",
              "name": "eventType",
              "type": "string"
            },
            {
              "internalType": "string",
              "name": "entityType",
              "type": "string"
            },
            {
              "internalType": "string",
              "name": "entityId",
              "type": "string"
            },
            {
              "internalType": "string",
              "name": "dataHash",
              "type": "string"
            },
            {
              "internalType": "address",
              "name": "recorder",
              "type": "address"
            },
            {
              "internalType": "uint256",
              "name": "timestamp",
              "type": "uint256"
            },
            {
              "internalType": "bool",
              "name": "verified",
              "type": "bool"
            }
          ],
          "internalType": "struct SyncraAuditTrail.AuditRecord[]",
          "name": "",
          "type": "tuple[]"
        }
      ],
      "stateMutability": "view",
      "type": "function"
    },
    {
      "inputs": [
        {
          "internalType": "bytes32",
          "name": "recordId",
          "type": "bytes32"
        }
      ],
      "name": "getRecord",
      "outputs": [
        {
          "components": [
            {
              "internalType": "bytes32",
              "name": "id",
              "type": "bytes32"
            },
            {
              "internalType": "string",
              "name": "eventType",
              "type": "string"
            },
            {
              "internalType": "string",
              "name": "entityType",
              "type": "string"
            },
            {
              "internalType": "string",
              "name": "entityId",
              "type": "string"
            },
            {
              "internalType": "string",
              "name": "dataHash",
              "type": "string"
            },
            {
              "internalType": "address",
              "name": "recorder",
              "type": "address"
            },
            {
              "internalType": "uint256",
              "name": "timestamp",
              "type": "uint256"
            },
            {
              "internalType": "bool",
              "name": "verified",
              "type": "bool"
            }
          ],
          "internalType": "struct SyncraAuditTrail.AuditRecord",
          "name": "",
          "type": "tuple"
        }
      ],
      "stateMutability": "view",
      "type": "function"
    },
    {
      "inputs": [],
      "name": "getRecordCount",
      "outputs": [
        {
          "internalType": "uint256",
          "name": "",
          "type": "uint256"
        }
      ],
      "stateMutability": "view",
      "type": "function"
    },
    {
      "inputs": [],
      "name": "owner",
      "outputs": [
        {
          "internalType": "address",
          "name": "",
          "type": "address"
        }
      ],
      "stateMutability": "view",
      "type": "function"
    },
    {
      "inputs": [
        {
          "internalType": "string",
          "name": "eventType",
          "type": "string"
        },
        {
          "internalType": "string",
          "name": "entityType",
          "type": "string"
        },
        {
          "internalType": "string",
          "name": "entityId",
          "type": "string"
        },
        {
          "internalType": "string",
          "name": "dataHash",
          "type": "string"
        }
      ],
      "name": "recordAudit",
      "outputs": [
        {
          "internalType": "bytes32",
          "name": "",
          "type": "bytes32"
        }
      ],
      "stateMutability": "nonpayable",
      "type": "function"
    },
    {
      "inputs": [
        {
          "internalType": "uint256",
          "name": "",
          "type": "uint256"
        }
      ],
      "name": "recordIds",
      "outputs": [
        {
          "internalType": "bytes32",
          "name": "",
          "type": "bytes32"
        }
      ],
      "stateMutability": "view",
      "type": "function"
    },
    {
      "inputs": [
        {
          "internalType": "bytes32",
          "name": "",
          "type": "bytes32"
        }
      ],
      "name": "records",
      "outputs": [
        {
          "internalType": "bytes32",
          "name": "id",
          "type": "bytes32"
        },
        {
          "internalType": "string",
          "name": "eventType",
          "type": "string"
        },
        {
          "internalType": "string",
          "name": "entityType",
          "type": "string"
        },
        {
          "internalType": "string",
          "name": "entityId",
          "type": "string"
        },
        {
          "internalType": "string",
          "name": "dataHash",
          "type": "string"
        },
        {
          "internalType": "address",
          "name": "recorder",
          "type": "address"
        },
        {
          "internalType": "uint256",
          "name": "timestamp",
          "type": "uint256"
        },
        {
          "internalType": "bool",
          "name": "verified",
          "type": "bool"
        }
      ],
      "stateMutability": "view",
      "type": "function"
    },
    {
      "inputs": [],
      "name": "totalRecords",
      "outputs": [
        {
          "internalType": "uint256",
          "name": "",
          "type": "uint256"
        }
      ],
      "stateMutability": "view",
      "type": "function"
    },
    {
      "inputs": [
        {
          "internalType": "address",
          "name": "newOwner",
          "type": "address"
        }
      ],
      "name": "transferOwnership",
      "outputs": [],
      "stateMutability": "nonpayable",
      "type": "function"
    },
    {
      "inputs": [
        {
          "internalType": "bytes32",
          "name": "recordId",
          "type": "bytes32"
        }
      ],
      "name": "verifyRecord",
      "outputs": [
        {
          "internalType": "bool",
          "name": "",
          "type": "bool"
        }
      ],
      "stateMutability": "view",
      "type": "function"
    }
  ],
  "bytecode": "0x608060405234801561001057600080fd5b5033600360006101000a81548173ffffffffffffffffffffffffffffffffffffffff021916908373ffffffffffffffffffffffffffffffffffffffff160217905550611f76806100616000396000f3fe608060405234801561001057600080fd5b506004361061009e5760003560e01c806397ddbef91161006657806397ddbef914610176578063ca267f28146101a6578063da217454146101c4578063f2fde38b146101f4578063f50817e8146102105761009e565b806301e64725146100a3578063125f8974146100da578063213681cd146100f85780634d408bcf146101285780638da5cb5b14610158575b600080fd5b6100bd60048036038101906100b89190611162565b610240565b6040516100d19897969594939291906112a3565b60405180910390f35b6100e26104d5565b6040516100ef919061133d565b60405180910390f35b610112600480360381019061010d9190611162565b6104db565b60405161011f91906114a3565b60405180910390f35b610142600480360381019061013d9190611162565b6107d5565b60405161014f91906114c5565b60405180910390f35b610160610822565b60405161016d91906114e0565b60405180910390f35b610190600480360381019061018b9190611527565b610848565b60405161019d9190611554565b60405180910390f35b6101ae61086c565b6040516101bb919061133d565b60405180910390f35b6101de60048036038101906101d991906115d4565b610879565b6040516101eb9190611554565b60405180910390f35b61020e600480360381019061020991906116e9565b610b9d565b005b61022a60048036038101906102259190611527565b610ce0565b604051610237919061189d565b60405180910390f35b6000602052806000526040600020600091509050806000015490806001018054610269906118ee565b80601f0160208091040260200160405190810160405280929190818152602001828054610295906118ee565b80156102e25780601f106102b7576101008083540402835291602001916102e2565b820191906000526020600020905b8154815290600101906020018083116102c557829003601f168201915b5050505050908060020180546102f7906118ee565b80601f0160208091040260200160405190810160405280929190818152602001828054610323906118ee565b80156103705780601f1061034557610100808354040283529160200191610370565b820191906000526020600020905b81548152906001019060200180831161035357829003601f168201915b505050505090806003018054610385906118ee565b80601f01602080910402602001604051908101604052809291908181526020018280546103b1906118ee565b80156103fe5780601f106103d3576101008083540402835291602001916103fe565b820191906000526020600020905b8154815290600101906020018083116103e157829003601f168201915b505050505090806004018054610413906118ee565b80601f016020809104026020016040519081016040528092919081815260200182805461043f906118ee565b801561048c5780601f106104615761010080835404028352916020019161048c565b820191906000526020600020905b81548152906001019060200180831161046f57829003601f168201915b5050505050908060050160009054906101000a900473ffffffffffffffffffffffffffffffffffffffff16908060060154908060070160009054906101000a900460ff16905088565b60025481565b6104e36110c2565b600080838152602001908152602001600020604051806101000160405290816000820154815260200160018201805461051b906118ee565b80601f0160208091040260200160405190810160405280929190818152602001828054610547906118ee565b80156105945780601f1061056957610100808354040283529160200191610594565b820191906000526020600020905b81548152906001019060200180831161057757829003601f168201915b505050505081526020016002820180546105ad906118ee565b80601f01602080910402602001604051908101604052809291908181526020018280546105d9906118ee565b80156106265780601f106105fb57610100808354040283529160200191610626565b820191906000526020600020905b81548152906001019060200180831161060957829003601f168201915b5050505050815260200160038201805461063f906118ee565b80601f016020809104026020016040519081016040528092919081815260200182805461066b906118ee565b80156106b85780601f1061068d576101008083540402835291602001916106b8565b820191906000526020600020905b81548152906001019060200180831161069b57829003601f168201915b505050505081526020016004820180546106d1906118ee565b80601f01602080910402602001604051908101604052809291908181526020018280546106fd906118ee565b801561074a5780601f1061071f5761010080835404028352916020019161074a565b820191906000526020600020905b81548152906001019060200180831161072d57829003601f168201915b505050505081526020016005820160009054906101000a900473ffffffffffffffffffffffffffffffffffffffff1673ffffffffffffffffffffffffffffffffffffffff1673ffffffffffffffffffffffffffffffffffffffff168152602001600682015481526020016007820160009054906101000a900460ff1615151515815250509050919050565b600080600083815260200190815260200160002060070160009054906101000a900460ff16801561081b5750600080600084815260200190815260200160002060060154115b9050919050565b600360009054906101000a900473ffffffffffffffffffffffffffffffffffffffff1681565b6001818154811061085857600080fd5b906000526020600020016000915090505481565b6000600180549050905090565b6000808989898989898989423360405160200161089f9a999897969594939291906119c7565b6040516020818303038152906040528051906020012090506040518061010001604052808281526020018b8b8080601f016020809104026020016040519081016040528093929190818152602001838380828437600081840152601f19601f82011690508083019250505050505050815260200189898080601f016020809104026020016040519081016040528093929190818152602001838380828437600081840152601f19601f82011690508083019250505050505050815260200187878080601f016020809104026020016040519081016040528093929190818152602001838380828437600081840152601f19601f82011690508083019250505050505050815260200185858080601f016020809104026020016040519081016040528093929190818152602001838380828437600081840152601f19601f8201169050808301925050505050505081526020013373ffffffffffffffffffffffffffffffffffffffff16815260200142815260200160011515815250600080838152602001908152602001600020600082015181600001556020820151816001019081610a4b9190611c0a565b506040820151816002019081610a619190611c0a565b506060820151816003019081610a779190611c0a565b506080820151816004019081610a8d9190611c0a565b5060a08201518160050160006101000a81548173ffffffffffffffffffffffffffffffffffffffff021916908373ffffffffffffffffffffffffffffffffffffffff16021790555060c0820151816006015560e08201518160070160006101000a81548160ff021916908315150217905550905050600181908060018154018082558091505060019003906000526020600020016000909190919091505560026000815480929190610b3e90611d0b565b9190505550807f4910bf8adf432f97d90ff54bf8632fe75c8441bd5e05250651893f3eef13034f8b8b8b8b8b8b8b8b3342604051610b859a99989796959493929190611d80565b60405180910390a28091505098975050505050505050565b600360009054906101000a900473ffffffffffffffffffffffffffffffffffffffff1673ffffffffffffffffffffffffffffffffffffffff163373ffffffffffffffffffffffffffffffffffffffff1614610c2d576040517f08c379a0000000000000000000000000000000000000000000000000000000008152600401610c2490611e51565b60405180910390fd5b600073ffffffffffffffffffffffffffffffffffffffff168173ffffffffffffffffffffffffffffffffffffffff1603610c9c576040517f08c379a0000000000000000000000000000000000000000000000000000000008152600401610c9390611ebd565b60405180910390fd5b80600360006101000a81548173ffffffffffffffffffffffffffffffffffffffff021916908373ffffffffffffffffffffffffffffffffffffffff16021790555050565b606060006001805490508311610cf65782610cfd565b6001805490505b905060008167ffffffffffffffff811115610d1b57610d1a611a2f565b5b604051908082528060200260200182016040528015610d5457816020015b610d416110c2565b815260200190600190039081610d395790505b50905060005b828110156110b75760008060018360018080549050610d799190611edd565b610d839190611edd565b81548110610d9457610d93611f11565b5b906000526020600020015481526020019081526020016000206040518061010001604052908160008201548152602001600182018054610dd3906118ee565b80601f0160208091040260200160405190810160405280929190818152602001828054610dff906118ee565b8015610e4c5780601f10610e2157610100808354040283529160200191610e4c565b820191906000526020600020905b815481529060010190602001808311610e2f57829003601f168201915b50505050508152602001600282018054610e65906118ee565b80601f0160208091040260200160405190810160405280929190818152602001828054610e91906118ee565b8015610ede5780601f10610eb357610100808354040283529160200191610ede565b820191906000526020600020905b815481529060010190602001808311610ec157829003601f168201915b50505050508152602001600382018054610ef7906118ee565b80601f0160208091040260200160405190810160405280929190818152602001828054610f23906118ee565b8015610f705780601f10610f4557610100808354040283529160200191610f70565b820191906000526020600020905b815481529060010190602001808311610f5357829003601f168201915b50505050508152602001600482018054610f89906118ee565b80601f0160208091040260200160405190810160405280929190818152602001828054610fb5906118ee565b80156110025780601f10610fd757610100808354040283529160200191611002565b820191906000526020600020905b815481529060010190602001808311610fe557829003601f168201915b505050505081526020016005820160009054906101000a900473ffffffffffffffffffffffffffffffffffffffff1673ffffffffffffffffffffffffffffffffffffffff1673ffffffffffffffffffffffffffffffffffffffff168152602001600682015481526020016007820160009054906101000a900460ff16151515158152505082828151811061109957611098611f11565b5b602002602001018190525080806110af90611d0b565b915050610d5a565b508092505050919050565b6040518061010001604052806000801916815260200160608152602001606081526020016060815260200160608152602001600073ffffffffffffffffffffffffffffffffffffffff168152602001600081526020016000151581525090565b600080fd5b600080fd5b6000819050919050565b61113f8161112c565b811461114a57600080fd5b50565b60008135905061115c81611136565b92915050565b60006020828403121561117857611177611122565b5b60006111868482850161114d565b91505092915050565b6111988161112c565b82525050565b600081519050919050565b600082825260208201905092915050565b60005b838110156111d85780820151818401526020810190506111bd565b60008484015250505050565b6000601f19601f8301169050919050565b60006112008261119e565b61120a81856111a9565b935061121a8185602086016111ba565b611223816111e4565b840191505092915050565b600073ffffffffffffffffffffffffffffffffffffffff82169050919050565b60006112598261122e565b9050919050565b6112698161124e565b82525050565b6000819050919050565b6112828161126f565b82525050565b60008115159050919050565b61129d81611288565b82525050565b6000610100820190506112b9600083018b61118f565b81810360208301526112cb818a6111f5565b905081810360408301526112df81896111f5565b905081810360608301526112f381886111f5565b9050818103608083015261130781876111f5565b905061131660a0830186611260565b61132360c0830185611279565b61133060e0830184611294565b9998505050505050505050565b60006020820190506113526000830184611279565b92915050565b6113618161112c565b82525050565b600082825260208201905092915050565b60006113838261119e565b61138d8185611367565b935061139d8185602086016111ba565b6113a6816111e4565b840191505092915050565b6113ba8161124e565b82525050565b6113c98161126f565b82525050565b6113d881611288565b82525050565b6000610100830160008301516113f76000860182611358565b506020830151848203602086015261140f8282611378565b915050604083015184820360408601526114298282611378565b915050606083015184820360608601526114438282611378565b9150506080830151848203608086015261145d8282611378565b91505060a083015161147260a08601826113b1565b5060c083015161148560c08601826113c0565b5060e083015161149860e08601826113cf565b508091505092915050565b600060208201905081810360008301526114bd81846113de565b905092915050565b60006020820190506114da6000830184611294565b92915050565b60006020820190506114f56000830184611260565b92915050565b6115048161126f565b811461150f57600080fd5b50565b600081359050611521816114fb565b92915050565b60006020828403121561153d5761153c611122565b5b600061154b84828501611512565b91505092915050565b6000602082019050611569600083018461118f565b92915050565b600080fd5b600080fd5b600080fd5b60008083601f8401126115945761159361156f565b5b8235905067ffffffffffffffff8111156115b1576115b0611574565b5b6020830191508360018202830111156115cd576115cc611579565b5b9250929050565b6000806000806000806000806080898b0312156115f4576115f3611122565b5b600089013567ffffffffffffffff81111561161257611611611127565b5b61161e8b828c0161157e565b9850985050602089013567ffffffffffffffff81111561164157611640611127565b5b61164d8b828c0161157e565b9650965050604089013567ffffffffffffffff8111156116705761166f611127565b5b61167c8b828c0161157e565b9450945050606089013567ffffffffffffffff81111561169f5761169e611127565b5b6116ab8b828c0161157e565b92509250509295985092959890939650565b6116c68161124e565b81146116d157600080fd5b50565b6000813590506116e3816116bd565b92915050565b6000602082840312156116ff576116fe611122565b5b600061170d848285016116d4565b91505092915050565b600081519050919050565b600082825260208201905092915050565b6000819050602082019050919050565b60006101008301600083015161175b6000860182611358565b50602083015184820360208601526117738282611378565b9150506040830151848203604086015261178d8282611378565b915050606083015184820360608601526117a78282611378565b915050608083015184820360808601526117c18282611378565b91505060a08301516117d660a08601826113b1565b5060c08301516117e960c08601826113c0565b5060e08301516117fc60e08601826113cf565b508091505092915050565b60006118138383611742565b905092915050565b6000602082019050919050565b600061183382611716565b61183d8185611721565b93508360208202850161184f85611732565b8060005b8581101561188b578484038952815161186c8582611807565b94506118778361181b565b925060208a01995050600181019050611853565b50829750879550505050505092915050565b600060208201905081810360008301526118b78184611828565b905092915050565b7f4e487b7100000000000000000000000000000000000000000000000000000000600052602260045260246000fd5b6000600282049050600182168061190657607f821691505b602082108103611919576119186118bf565b5b50919050565b600081905092915050565b82818337600083830152505050565b6000611945838561191f565b935061195283858461192a565b82840190509392505050565b6000819050919050565b6119796119748261126f565b61195e565b82525050565b60008160601b9050919050565b60006119978261197f565b9050919050565b60006119a98261198c565b9050919050565b6119c16119bc8261124e565b61199e565b82525050565b60006119d4828c8e611939565b91506119e1828a8c611939565b91506119ee82888a611939565b91506119fb828688611939565b9150611a078285611968565b602082019150611a1782846119b0565b6014820191508190509b9a5050505050505050505050565b7f4e487b7100000000000000000000000000000000000000000000000000000000600052604160045260246000fd5b60008190508160005260206000209050919050565b60006020601f8301049050919050565b600082821b905092915050565b600060088302611ac07fffffffffffffffffffffffffffffffffffffffffffffffffffffffffffffffff82611a83565b611aca8683611a83565b95508019841693508086168417925050509392505050565b6000819050919050565b6000611b07611b02611afd8461126f565b611ae2565b61126f565b9050919050565b6000819050919050565b611b2183611aec565b611b35611b2d82611b0e565b848454611a90565b825550505050565b600090565b611b4a611b3d565b611b55818484611b18565b505050565b5b81811015611b7957611b6e600082611b42565b600181019050611b5b565b5050565b601f821115611bbe57611b8f81611a5e565b611b9884611a73565b81016020851015611ba7578190505b611bbb611bb385611a73565b830182611b5a565b50505b505050565b600082821c905092915050565b6000611be160001984600802611bc3565b1980831691505092915050565b6000611bfa8383611bd0565b9150826002028217905092915050565b611c138261119e565b67ffffffffffffffff811115611c2c57611c2b611a2f565b5b611c3682546118ee565b611c41828285611b7d565b600060209050601f831160018114611c745760008415611c62578287015190505b611c6c8582611bee565b865550611cd4565b601f198416611c8286611a5e565b60005b82811015611caa57848901518255600182019150602085019450602081019050611c85565b86831015611cc75784890151611cc3601f891682611bd0565b8355505b6001600288020188555050505b505050505050565b7f4e487b7100000000000000000000000000000000000000000000000000000000600052601160045260246000fd5b6000611d168261126f565b91507fffffffffffffffffffffffffffffffffffffffffffffffffffffffffffffffff8203611d4857611d47611cdc565b5b600182019050919050565b6000611d5f83856111a9565b9350611d6c83858461192a565b611d75836111e4565b840190509392505050565b600060c0820190508181036000830152611d9b818c8e611d53565b90508181036020830152611db0818a8c611d53565b90508181036040830152611dc581888a611d53565b90508181036060830152611dda818688611d53565b9050611de96080830185611260565b611df660a0830184611279565b9b9a5050505050505050505050565b7f4e6f7420617574686f72697a6564000000000000000000000000000000000000600082015250565b6000611e3b600e836111a9565b9150611e4682611e05565b602082019050919050565b60006020820190508181036000830152611e6a81611e2e565b9050919050565b7f496e76616c696420616464726573730000000000000000000000000000000000600082015250565b6000611ea7600f836111a9565b9150611eb282611e71565b602082019050919050565b60006020820190508181036000830152611ed681611e9a565b9050919050565b6000611ee88261126f565b9150611ef38361126f565b9250828203905081811115611f0b57611f0a611cdc565b5b92915050565b7f4e487b7100000000000000000000000000000000000000000000000000000000600052603260045260246000fdfea2646970667358221220516c4cc1066b4c7681ee2236b97250e00dd8c2058c86e527622e32a695d8038964736f6c63430008140033",
  "linkReferences": {},
  "deployedLinkReferences": {}
}