{
  "_format": "hh-sol-artifact-1",
  "contractName": "SyncraAuditTrail",
  "sourceName": "contracts/SyncraAuditTrail.sol",
  "abi": [
    {
      "inputs": [],
      "stateMutability": "nonpayable",
      "type": "constructor"
    },
    {
      "anonymous": false,
      "inputs": [
        {
          "indexed": true,
          "internalType": "bytes32",
          "name": "recordId",
          "type": "bytes32"
        },
        {
          "indexed": false,
          "internalType": "string",
          "name": "eventType",
          "type": "string"
        },
        {
          "indexed": false,
          "internalType": "string",
          "name": "entityType",
          "type": "string"
        },
        {
          "indexed": false,
          "internalType": "string",
          "name": "entityId",
          "type": "string"
        },
        {
          "indexed": false,
          "internalType": "string",
          "name": "dataHash",
          "type": "string"
        },
        {
          "indexed": false,
          "internalType": "address",
          "name": "recorder",
          "type": "address"
        },
        {
          "indexed": false,
          "internalType": "uint256",
          "name": "timestamp",
          "type": "uint256"
        }
      ],
      "name": "AuditRecorded",
      "type": "event"
    },
    {
      "anonymous": false,
      "inputs": [
        {
          "indexed": true,
          "internalType": "bytes32",
          "name": "recordId",
          "type": "bytes32"
        },
        {
          "indexed": false,
          "internalType": "bool",
          "name": "verified",
          "type": "bool"
        }
      ],
      "name": "RecordVerified",
      "type": "event"
    },
    {
      "inputs": [
        {
          "internalType": "uint256",
          "name": "count",
          "type": "uint256"
        }
      ],
      "name": "getRecentRecords",
      "outputs": [
        {
          "components": [
            {
              "internalType": "bytes32",
              "name": "id",
              "type": "bytes32"
            },
            {
              "internalType": "string",
              "name": "eventType",
              "type": "string"
            },
            {
              "internalType": "string",
              "name": "entityType",
              "type": "string"
            },
            {
              "internalType": "string",
              "name": "entityId",
              "type": "string"
            },
            {
              "internalType": "string",
              "name": "dataHash",
              "type": "string"
            },
            {
              "internalType": "address",
              "name": "recorder",
              "type": "address"
            },
            {
              "internalType": "uint256",
              "name": "timestamp",
              "type": "uint256"
            },
            {
              "internalType": "bool",
              "name": "verified",
              "type": "bool"
            }
          ],
          "internalType": "struct SyncraAuditTrail.AuditRecord[]",
          "name": "",
          "type": "tuple[]"
        }
      ],
      "stateMutability": "view",
      "type": "function"
    },
    {
      "inputs": [
        {
          "internalType": "bytes32",
          "name": "recordId",
          "type": "bytes32"
        }
      ],
      "name": "getRecord",
      "outputs": [
        {
          "components": [
            {
              "internalType": "bytes32",
              "name": "id",
              "type": "bytes32"
            },
            {
              "internalType": "string",
              "name": "eventType",
              "type": "string"
            },
            {
              "internalType": "string",
              "name": "entityType",
              "type": "string"
            },
            {
              "internalType": "string",
              "name": "entityId",
              "type": "string"
            },
            {
              "internalType": "string",
              "name": "dataHash",
              "type": "string"
            },
            {
              "internalType": "address",
              "name": "recorder",
              "type": "address"
            },
            {
              "internalType": "uint256",
              "name": "timestamp",
              "type": "uint256"
            },
            {
              "internalType": "bool",
              "name": "verified",
              "type": "bool"
            }
          ],
          "internalType": "struct SyncraAuditTrail.AuditRecord",
          "name": "",
          "type": "tuple"
        }
      ],
      "stateMutability": "view",
      "type": "function"
    },
    {
      "inputs": [],
      "name": "getRecordCount",
      "outputs": [
        {
          "internalType": "uint256",
          "name": "",
          "type": "uint256"
        }
      ],
      "stateMutability": "view",
      "type": "function"
    },
    {
      "inputs": [],
      "name": "owner",
      "outputs": [
        {
          "internalType": "address",
          "name": "",
          "type": "address"
        }
      ],
      "stateMutability": "view",
      "type": "function"
    },
    {
      "inputs": [
        {
          "internalType": "string",
          "name": "eventType",
          "type": "string"
        },
        {
          "internalType": "string",
          "name": "entityType",
          "type": "string"
        },
        {
          "internalType": "string",
          "name": "entityId",
          "type": "string"
        },
        {
          "internalType": "string",
          "name": "dataHash",
          "type": "string"
        }
      ],
      "name": "recordAudit",
      "outputs": [
        {
          "internalType": "bytes32",
          "name": "",
          "type": "bytes32"
        }
      ],
      "stateMutability": "nonpayable",
      "type": "function"
    },
    {
      "inputs": [
        {
          "internalType": "uint256",
          "name": "",
          "type": "uint256"
        }
      ],
      "name": "recordIds",
      "outputs": [
        {
          "internalType": "bytes32",
          "name": "",
          "type": "bytes32"
        }
      ],
      "stateMutability": "view",
      "type": "function"
    },
    {
      "inputs": [
        {
          "internalType": "bytes32",
          "name": "",
          "type": "bytes32"
        }
      ],
      "name": "records",
      "outputs": [
        {
          "internalType": "bytes32",
          "name": "id",
          "type": "bytes32"
        },
        {
          "internalType": "string",
          "name": "eventType",
          "type": "string"
        },
        {
          "internalType": "string",
          "name": "entityType",
          "type": "string"
        },
        {
          "internalType": "string",
          "name": "entityId",
          "type": "string"
        },
        {
          "internalType": "string",
          "name": "dataHash",
          "type": "string"
        },
        {
          "internalType": "address",
          "name": "recorder",
          "type": "address"
        },
        {
          "internalType": "uint256",
          "name": "timestamp",
          "type": "uint256"
        },
        {
          "internalType": "bool",
          "name": "verified",
          "type": "bool"
        }
      ],
      "stateMutability": "view",
      "type": "function"
    },
    {
      "inputs": [],
      "name": "totalRecords",
      "outputs": [
        {
          "internalType": "uint256",
          "name": "",
          "type": "uint256"
        }
      ],
      "stateMutability": "view",
      "type": "function"
    },
    {
      "inputs": [
        {
          "internalType": "address",
          "name": "newOwner",
          "type": "address"
        }
      ],
      "name": "transferOwnership",
      "outputs": [],
      "stateMutability": "nonpayable",
      "type": "function"
    },
    {
      "inputs": [
        {
          "internalType": "bytes32",
          "name": "recordId",
          "type": "bytes32"
        }
      ],
      "name": "verifyRecord",
      "outputs": [
        {
          "internalType": "bool",
          "name": "",
          "type": "bool"
        }
      ],
      "stateMutability": "view",
      "type": "function"
    }
  ],
  "bytecode": "0x608060405234801561001057600080fd5b50600380546001600160a01b0319163317905561147b806100326000396000f3fe608060405234801561001057600080fd5b506004361061009e5760003560e01c806397ddbef91161006657806397ddbef914610158578063ca267f281461016b578063da21745414610173578063f2fde38b14610186578063f50817e81461019b57600080fd5b806301e64725146100a3578063125f8974146100d3578063213681cd146100ea5780634d408bcf1461010a5780638da5cb5b1461012d575b600080fd5b6100b66100b1366004610e5f565b6101bb565b6040516100ca989796959493929190610ebe565b60405180910390f35b6100dc60025481565b6040519081526020016100ca565b6100fd6100f8366004610e5f565b61042b565b6040516100ca9190610fe9565b61011d610118366004610e5f565b6106d0565b60405190151581526020016100ca565b600354610140906001600160a01b031681565b6040516001600160a01b0390911681526020016100ca565b6100dc610166366004610e5f565b610707565b6001546100dc565b6100dc61018136600461104c565b610728565b610199610194366004611110565b6109c6565b005b6101ae6101a9366004610e5f565b610a80565b6040516100ca9190611139565b600060208190529081526040902080546001820180549192916101dd9061119b565b80601f01602080910402602001604051908101604052809291908181526020018280546102099061119b565b80156102565780601f1061022b57610100808354040283529160200191610256565b820191906000526020600020905b81548152906001019060200180831161023957829003601f168201915b50505050509080600201805461026b9061119b565b80601f01602080910402602001604051908101604052809291908181526020018280546102979061119b565b80156102e45780601f106102b9576101008083540402835291602001916102e4565b820191906000526020600020905b8154815290600101906020018083116102c757829003601f168201915b5050505050908060030180546102f99061119b565b80601f01602080910402602001604051908101604052809291908181526020018280546103259061119b565b80156103725780601f1061034757610100808354040283529160200191610372565b820191906000526020600020905b81548152906001019060200180831161035557829003601f168201915b5050505050908060040180546103879061119b565b80601f01602080910402602001604051908101604052809291908181526020018280546103b39061119b565b80156104005780601f106103d557610100808354040283529160200191610400565b820191906000526020600020905b8154815290600101906020018083116103e357829003601f168201915b505050506005830154600684015460079094015492936001600160a01b039091169290915060ff1688565b610433610e0c565b60008281526020818152604091829020825161010081019093528054835260018101805491928401916104659061119b565b80601f01602080910402602001604051908101604052809291908181526020018280546104919061119b565b80156104de5780601f106104b3576101008083540402835291602001916104de565b820191906000526020600020905b8154815290600101906020018083116104c157829003601f168201915b505050505081526020016002820180546104f79061119b565b80601f01602080910402602001604051908101604052809291908181526020018280546105239061119b565b80156105705780601f1061054557610100808354040283529160200191610570565b820191906000526020600020905b81548152906001019060200180831161055357829003601f168201915b505050505081526020016003820180546105899061119b565b80601f01602080910402602001604051908101604052809291908181526020018280546105b59061119b565b80156106025780601f106105d757610100808354040283529160200191610602565b820191906000526020600020905b8154815290600101906020018083116105e557829003601f168201915b5050505050815260200160048201805461061b9061119b565b80601f01602080910402602001604051908101604052809291908181526020018280546106479061119b565b80156106945780601f1061066957610100808354040283529160200191610694565b820191906000526020600020905b81548152906001019060200180831161067757829003601f168201915b505050918352505060058201546001600160a01b031660208201526006820154604082015260079091015460ff16151560609091015292915050565b60008181526020819052604081206007015460ff168015610701575060008281526020819052604090206006015415155b92915050565b6001818154811061071757600080fd5b600091825260209091200154905081565b6000808989898989898989423360405160200161074e9a999897969594939291906111d5565b6040516020818303038152906040528051906020012090506040518061010001604052808281526020018b8b8080601f016020809104026020016040519081016040528093929190818152602001838380828437600092019190915250505090825250604080516020601f8c018190048102820181019092528a815291810191908b908b9081908401838280828437600092019190915250505090825250604080516020601f8a0181900481028201810190925288815291810191908990899081908401838280828437600092019190915250505090825250604080516020601f880181900481028201810190925286815291810191908790879081908401838280828437600092018290525093855250503360208085019190915242604080860191909152600160609095018590528684528382529092208451815591840151919283019161089f915082611290565b50604082015160028201906108b49082611290565b50606082015160038201906108c99082611290565b50608082015160048201906108de9082611290565b5060a08201516005820180546001600160a01b0319166001600160a01b0390921691909117905560c0820151600682015560e0909101516007909101805460ff191691151591909117905560018054808201825560009182527fb10e2d527612073b26eecdfd717e6a320cf44b4afac2b0732d9fcbe2b7fa0cf601829055600280549161096a83611366565b9190505550807f4910bf8adf432f97d90ff54bf8632fe75c8441bd5e05250651893f3eef13034f8b8b8b8b8b8b8b8b33426040516109b19a999897969594939291906113a8565b60405180910390a29998505050505050505050565b6003546001600160a01b03163314610a165760405162461bcd60e51b815260206004820152600e60248201526d139bdd08185d5d1a1bdc9a5e995960921b60448201526064015b60405180910390fd5b6001600160a01b038116610a5e5760405162461bcd60e51b815260206004820152600f60248201526e496e76616c6964206164647265737360881b6044820152606401610a0d565b600380546001600160a01b0319166001600160a01b0392909216919091179055565b6001546060906000908311610a955782610a99565b6001545b905060008167ffffffffffffffff811115610ab657610ab661122b565b604051908082528060200260200182016040528015610aef57816020015b610adc610e0c565b815260200190600190039081610ad45790505b50905060005b82811015610e045760008060018360018080549050610b14919061141c565b610b1e919061141c565b81548110610b2e57610b2e61142f565b906000526020600020015481526020019081526020016000206040518061010001604052908160008201548152602001600182018054610b6d9061119b565b80601f0160208091040260200160405190810160405280929190818152602001828054610b999061119b565b8015610be65780601f10610bbb57610100808354040283529160200191610be6565b820191906000526020600020905b815481529060010190602001808311610bc957829003601f168201915b50505050508152602001600282018054610bff9061119b565b80601f0160208091040260200160405190810160405280929190818152602001828054610c2b9061119b565b8015610c785780601f10610c4d57610100808354040283529160200191610c78565b820191906000526020600020905b815481529060010190602001808311610c5b57829003601f168201915b50505050508152602001600382018054610c919061119b565b80601f0160208091040260200160405190810160405280929190818152602001828054610cbd9061119b565b8015610d0a5780601f10610cdf57610100808354040283529160200191610d0a565b820191906000526020600020905b815481529060010190602001808311610ced57829003601f168201915b50505050508152602001600482018054610d239061119b565b80601f0160208091040260200160405190810160405280929190818152602001828054610d4f9061119b565b8015610d9c5780601f10610d7157610100808354040283529160200191610d9c565b820191906000526020600020905b815481529060010190602001808311610d7f57829003601f168201915b505050918352505060058201546001600160a01b031660208201526006820154604082015260079091015460ff1615156060909101528251839083908110610de657610de661142f565b60200260200101819052508080610dfc90611366565b915050610af5565b509392505050565b604051806101000160405280600080191681526020016060815260200160608152602001606081526020016060815260200160006001600160a01b03168152602001600081526020016000151581525090565b600060208284031215610e7157600080fd5b5035919050565b6000815180845260005b81811015610e9e57602081850181015186830182015201610e82565b506000602082860101526020601f19601f83011685010191505092915050565b60006101008a8352806020840152610ed88184018b610e78565b90508281036040840152610eec818a610e78565b90508281036060840152610f008189610e78565b90508281036080840152610f148188610e78565b6001600160a01b039690961660a0840152505060c0810192909252151560e09091015295945050505050565b6000610100825184526020830151816020860152610f6082860182610e78565b91505060408301518482036040860152610f7a8282610e78565b91505060608301518482036060860152610f948282610e78565b91505060808301518482036080860152610fae8282610e78565b91505060a0830151610fcb60a08601826001600160a01b03169052565b5060c083015160c085015260e0830151610e0460e086018215159052565b602081526000610ffc6020830184610f40565b9392505050565b60008083601f84011261101557600080fd5b50813567ffffffffffffffff81111561102d57600080fd5b60208301915083602082850101111561104557600080fd5b9250929050565b6000806000806000806000806080898b03121561106857600080fd5b883567ffffffffffffffff8082111561108057600080fd5b61108c8c838d01611003565b909a50985060208b01359150808211156110a557600080fd5b6110b18c838d01611003565b909850965060408b01359150808211156110ca57600080fd5b6110d68c838d01611003565b909650945060608b01359150808211156110ef57600080fd5b506110fc8b828c01611003565b999c989b5096995094979396929594505050565b60006020828403121561112257600080fd5b81356001600160a01b0381168114610ffc57600080fd5b6000602080830181845280855180835260408601915060408160051b870101925083870160005b8281101561118e57603f1988860301845261117c858351610f40565b94509285019290850190600101611160565b5092979650505050505050565b600181811c908216806111af57607f821691505b6020821081036111cf57634e487b7160e01b600052602260045260246000fd5b50919050565b898b823760008a820160008152898b82376000908a01908152878982376000908801908152858782379094019283525060601b6bffffffffffffffffffffffff1916602082015260340198975050505050505050565b634e487b7160e01b600052604160045260246000fd5b601f82111561128b57600081815260208120601f850160051c810160208610156112685750805b601f850160051c820191505b8181101561128757828155600101611274565b5050505b505050565b815167ffffffffffffffff8111156112aa576112aa61122b565b6112be816112b8845461119b565b84611241565b602080601f8311600181146112f357600084156112db5750858301515b600019600386901b1c1916600185901b178555611287565b600085815260208120601f198616915b8281101561132257888601518255948401946001909101908401611303565b50858210156113405787850151600019600388901b60f8161c191681555b5050505050600190811b01905550565b634e487b7160e01b600052601160045260246000fd5b60006001820161137857611378611350565b5060010190565b81835281816020850137506000828201602090810191909152601f909101601f19169091010190565b60c0815260006113bc60c083018c8e61137f565b82810360208401526113cf818b8d61137f565b905082810360408401526113e481898b61137f565b905082810360608401526113f981878961137f565b6001600160a01b03959095166080840152505060a0015298975050505050505050565b8181038181111561070157610701611350565b634e487b7160e01b600052603260045260246000fdfea2646970667358221220bbfa4943ac40f8d6b35767f3689846e73ddc12f4fb350a83e9f28ddd264e139864736f6c63430008140033",
  "linkReferences": {},
  "deployedLinkReferences": {}
}