{"contracts/ERPLedger.sol":{"ERPLedger":{"abi":[{"inputs":[],"stateMutability":"nonpayable","type":"constructor"},{"anonymous":false,"inputs":[{"indexed":true,"internalType":"uint256","name":"id","type":"uint256"},{"indexed":false,"internalType":"enum ERPLedger.RecordType","name":"recordType","type":"uint8"},{"indexed":false,"internalType":"string","name":"referenceNumber","type":"string"},{"indexed":false,"internalType":"string","name":"dataHash","type":"string"},{"indexed":false,"internalType":"uint256","name":"timestamp","type":"uint256"}],"name":"RecordCreated","type":"event"},{"anonymous":false,"inputs":[{"indexed":true,"internalType":"uint256","name":"recordId","type":"uint256"},{"indexed":false,"internalType":"enum ERPLedger.Status","name":"oldStatus","type":"uint8"},{"indexed":false,"internalType":"enum ERPLedger.Status","name":"newStatus","type":"uint8"},{"indexed":false,"internalType":"address","name":"updatedBy","type":"address"},{"indexed":false,"internalType":"uint256","name":"timestamp","type":"uint256"}],"name":"StatusUpdated","type":"event"},{"anonymous":false,"inputs":[{"indexed":false,"internalType":"address","name":"writer","type":"address"},{"indexed":false,"internalType":"bool","name":"status","type":"bool"}],"name":"WriterAuthorized","type":"event"},{"inputs":[{"internalType":"address","name":"_writer","type":"address"},{"internalType":"bool","name":"_status","type":"bool"}],"name":"authorizeWriter","outputs":[],"stateMutability":"nonpayable","type":"function"},{"inputs":[{"internalType":"address","name":"","type":"address"}],"name":"authorizedWriters","outputs":[{"internalType":"bool","name":"","type":"bool"}],"stateMutability":"view","type":"function"},{"inputs":[{"internalType":"enum ERPLedger.RecordType","name":"_type","type":"uint8"},{"internalType":"string","name":"_referenceNumber","type":"string"},{"internalType":"string","name":"_dataHash","type":"string"},{"internalType":"string","name":"_metadata","type":"string"}],"name":"createRecord","outputs":[{"internalType":"uint256","name":"","type":"uint256"}],"stateMutability":"nonpayable","type":"function"},{"inputs":[{"internalType":"uint256","name":"_id","type":"uint256"}],"name":"getRecord","outputs":[{"components":[{"internalType":"uint256","name":"id","type":"uint256"},{"internalType":"enum ERPLedger.RecordType","name":"recordType","type":"uint8"},{"internalType":"string","name":"referenceNumber","type":"string"},{"internalType":"string","name":"dataHash","type":"string"},{"internalType":"address","name":"recordedBy","type":"address"},{"internalType":"uint256","name":"timestamp","type":"uint256"},{"internalType":"enum ERPLedger.Status","name":"status","type":"uint8"},{"internalType":"string","name":"metadata","type":"string"}],"internalType":"struct ERPLedger.ERPRecord","name":"","type":"tuple"}],"stateMutability":"view","type":"function"},{"inputs":[{"internalType":"string","name":"_ref","type":"string"}],"name":"getRecordByReference","outputs":[{"components":[{"internalType":"uint256","name":"id","type":"uint256"},{"internalType":"enum ERPLedger.RecordType","name":"recordType","type":"uint8"},{"internalType":"string","name":"referenceNumber","type":"string"},{"internalType":"string","name":"dataHash","type":"string"},{"internalType":"address","name":"recordedBy","type":"address"},{"internalType":"uint256","name":"timestamp","type":"uint256"},{"internalType":"enum ERPLedger.Status","name":"status","type":"uint8"},{"internalType":"string","name":"metadata","type":"string"}],"internalType":"struct ERPLedger.ERPRecord","name":"","type":"tuple"}],"stateMutability":"view","type":"function"},{"inputs":[{"internalType":"uint256","name":"_id","type":"uint256"}],"name":"getStatusHistory","outputs":[{"components":[{"internalType":"uint256","name":"recordId","type":"uint256"},{"internalType":"enum ERPLedger.Status","name":"oldStatus","type":"uint8"},{"internalType":"enum ERPLedger.Status","name":"newStatus","type":"uint8"},{"internalType":"string","name":"reason","type":"string"},{"internalType":"address","name":"updatedBy","type":"address"},{"internalType":"uint256","name":"timestamp","type":"uint256"}],"internalType":"struct ERPLedger.StatusUpdate[]","name":"","type":"tuple[]"}],"stateMutability":"view","type":"function"},{"inputs":[],"name":"getTotalRecords","outputs":[{"internalType":"uint256","name":"","type":"uint256"}],"stateMutability":"view","type":"function"},{"inputs":[],"name":"owner","outputs":[{"internalType":"address","name":"","type":"address"}],"stateMutability":"view","type":"function"},{"inputs":[{"internalType":"uint256","name":"","type":"uint256"}],"name":"records","outputs":[{"internalType":"uint256","name":"id","type":"uint256"},{"internalType":"enum ERPLedger.RecordType","name":"recordType","type":"uint8"},{"internalType":"string","name":"referenceNumber","type":"string"},{"internalType":"string","name":"dataHash","type":"string"},{"internalType":"address","name":"recordedBy","type":"address"},{"internalType":"uint256","name":"timestamp","type":"uint256"},{"internalType":"enum ERPLedger.Status","name":"status","type":"uint8"},{"internalType":"string","name":"metadata","type":"string"}],"stateMutability":"view","type":"function"},{"inputs":[{"internalType":"string","name":"","type":"string"}],"name":"referenceToId","outputs":[{"internalType":"uint256","name":"","type":"uint256"}],"stateMutability":"view","type":"function"},{"inputs":[{"internalType":"uint256","name":"","type":"uint256"},{"internalType":"uint256","name":"","type":"uint256"}],"name":"statusHistory","outputs":[{"internalType":"uint256","name":"recordId","type":"uint256"},{"internalType":"enum ERPLedger.Status","name":"oldStatus","type":"uint8"},{"internalType":"enum ERPLedger.Status","name":"newStatus","type":"uint8"},{"internalType":"string","name":"reason","type":"string"},{"internalType":"address","name":"updatedBy","type":"address"},{"internalType":"uint256","name":"timestamp","type":"uint256"}],"stateMutability":"view","type":"function"},{"inputs":[{"internalType":"uint256","name":"_recordId","type":"uint256"},{"internalType":"enum ERPLedger.Status","name":"_newStatus","type":"uint8"},{"internalType":"string","name":"_reason","type":"string"}],"name":"updateStatus","outputs":[],"stateMutability":"nonpayable","type":"function"},{"inputs":[{"internalType":"uint256","name":"_id","type":"uint256"},{"internalType":"string","name":"_hash","type":"string"}],"name":"verifyDataHash","outputs":[{"internalType":"bool","name":"","type":"bool"}],"stateMutability":"view","type":"function"}],"evm":{"bytecode":{"linkReferences":{},"object":"608060405234801561001057600080fd5b5033600560006101000a81548173ffffffffffffffffffffffffffffffffffffffff021916908373ffffffffffffffffffffffffffffffffffffffff1602179055506001600460003373ffffffffffffffffffffffffffffffffffffffff1673ffffffffffffffffffffffffffffffffffffffff16815260200190815260200160002060006101000a81548160ff02191690831515021790555061286f806100b96000396000f3fe608060405234801561001057600080fd5b50600436106100cf5760003560e01c8063582601881161008c578063781f0b7211610066578063781f0b72146102795780638da5cb5b14610295578063a6ec1215146102b3578063d215e128146102e8576100cf565b806358260188146101e957806358a20b3b146102195780636f13695314610249576100cf565b806303e9e609146100d45780630aeacb5e146101045780632e302ce11461012257806334461067146101525780633ca4036b14610189578063526241a8146101b9575b600080fd5b6100ee60048036038101906100e9919061170d565b610304565b6040516100fb9190611997565b60405180910390f35b61010c6105c8565b60405161011991906119c8565b60405180910390f35b61013c60048036038101906101379190611b18565b6105d1565b6040516101499190611997565b60405180910390f35b61016c6004803603810190610167919061170d565b6108b3565b604051610180989796959493929190611bd8565b60405180910390f35b6101a3600480360381019061019e9190611c90565b610acd565b6040516101b091906119c8565b60405180910390f35b6101d360048036038101906101ce9190611d77565b610e26565b6040516101e09190611dbf565b60405180910390f35b61020360048036038101906101fe9190611b18565b610e46565b60405161021091906119c8565b60405180910390f35b610233600480360381019061022e919061170d565b610e74565b6040516102409190611f25565b60405180910390f35b610263600480360381019061025e9190611f47565b611058565b6040516102709190611dbf565b60405180910390f35b610293600480360381019061028e9190611fc8565b611096565b005b61029d6113df565b6040516102aa9190612037565b60405180910390f35b6102cd60048036038101906102c89190612052565b611405565b6040516102df96959493929190612092565b60405180910390f35b61030260048036038101906102fd9190612126565b611520565b005b61030c611644565b6001600083815260200190815260200160002060405180610100016040529081600082015481526020016001820160009054906101000a900460ff16600581111561035a57610359611749565b5b600581111561036c5761036b611749565b5b815260200160028201805461038090612195565b80601f01602080910402602001604051908101604052809291908181526020018280546103ac90612195565b80156103f95780601f106103ce576101008083540402835291602001916103f9565b820191906000526020600020905b8154815290600101906020018083116103dc57829003601f168201915b5050505050815260200160038201805461041290612195565b80601f016020809104026020016040519081016040528092919081815260200182805461043e90612195565b801561048b5780601f106104605761010080835404028352916020019161048b565b820191906000526020600020905b81548152906001019060200180831161046e57829003601f168201915b505050505081526020016004820160009054906101000a900473ffffffffffffffffffffffffffffffffffffffff1673ffffffffffffffffffffffffffffffffffffffff1673ffffffffffffffffffffffffffffffffffffffff168152602001600582015481526020016006820160009054906101000a900460ff16600481111561051957610518611749565b5b600481111561052b5761052a611749565b5b815260200160078201805461053f90612195565b80601f016020809104026020016040519081016040528092919081815260200182805461056b90612195565b80156105b85780601f1061058d576101008083540402835291602001916105b8565b820191906000526020600020905b81548152906001019060200180831161059b57829003601f168201915b5050505050815250509050919050565b60008054905090565b6105d9611644565b600160006002846040516105ed9190612202565b908152602001604051809103902054815260200190815260200160002060405180610100016040529081600082015481526020016001820160009054906101000a900460ff16600581111561064557610644611749565b5b600581111561065757610656611749565b5b815260200160028201805461066b90612195565b80601f016020809104026020016040519081016040528092919081815260200182805461069790612195565b80156106e45780601f106106b9576101008083540402835291602001916106e4565b820191906000526020600020905b8154815290600101906020018083116106c757829003601f168201915b505050505081526020016003820180546106fd90612195565b80601f016020809104026020016040519081016040528092919081815260200182805461072990612195565b80156107765780601f1061074b57610100808354040283529160200191610776565b820191906000526020600020905b81548152906001019060200180831161075957829003601f168201915b505050505081526020016004820160009054906101000a900473ffffffffffffffffffffffffffffffffffffffff1673ffffffffffffffffffffffffffffffffffffffff1673ffffffffffffffffffffffffffffffffffffffff168152602001600582015481526020016006820160009054906101000a900460ff16600481111561080457610803611749565b5b600481111561081657610815611749565b5b815260200160078201805461082a90612195565b80601f016020809104026020016040519081016040528092919081815260200182805461085690612195565b80156108a35780601f10610878576101008083540402835291602001916108a3565b820191906000526020600020905b81548152906001019060200180831161088657829003601f168201915b5050505050815250509050919050565b60016020528060005260406000206000915090508060000154908060010160009054906101000a900460ff16908060020180546108ef90612195565b80601f016020809104026020016040519081016040528092919081815260200182805461091b90612195565b80156109685780601f1061093d57610100808354040283529160200191610968565b820191906000526020600020905b81548152906001019060200180831161094b57829003601f168201915b50505050509080600301805461097d90612195565b80601f01602080910402602001604051908101604052809291908181526020018280546109a990612195565b80156109f65780601f106109cb576101008083540402835291602001916109f6565b820191906000526020600020905b8154815290600101906020018083116109d957829003601f168201915b5050505050908060040160009054906101000a900473ffffffffffffffffffffffffffffffffffffffff16908060050154908060060160009054906101000a900460ff1690806007018054610a4a90612195565b80601f0160208091040260200160405190810160405280929190818152602001828054610a7690612195565b8015610ac35780601f10610a9857610100808354040283529160200191610ac3565b820191906000526020600020905b815481529060010190602001808311610aa657829003601f168201915b5050505050905088565b6000600460003373ffffffffffffffffffffffffffffffffffffffff1673ffffffffffffffffffffffffffffffffffffffff16815260200190815260200160002060009054906101000a900460ff1680610b745750600560009054906101000a900473ffffffffffffffffffffffffffffffffffffffff1673ffffffffffffffffffffffffffffffffffffffff163373ffffffffffffffffffffffffffffffffffffffff16145b610bb3576040517f08c379a0000000000000000000000000000000000000000000000000000000008152600401610baa90612265565b60405180910390fd5b6000600285604051610bc59190612202565b90815260200160405180910390205414610c14576040517f08c379a0000000000000000000000000000000000000000000000000000000008152600401610c0b906122d1565b60405180910390fd5b600080815480929190610c2690612320565b9190505550600080549050604051806101000160405280828152602001876005811115610c5657610c55611749565b5b81526020018681526020018581526020013373ffffffffffffffffffffffffffffffffffffffff16815260200142815260200160006004811115610c9d57610c9c611749565b5b815260200184815250600160008381526020019081526020016000206000820151816000015560208201518160010160006101000a81548160ff02191690836005811115610cee57610ced611749565b5b02179055506040820151816002019081610d089190612514565b506060820151816003019081610d1e9190612514565b5060808201518160040160006101000a81548173ffffffffffffffffffffffffffffffffffffffff021916908373ffffffffffffffffffffffffffffffffffffffff16021790555060a0820151816005015560c08201518160060160006101000a81548160ff02191690836004811115610d9b57610d9a611749565b5b021790555060e0820151816007019081610db59190612514565b5090505080600286604051610dca9190612202565b908152602001604051809103902081905550807fe869e1c905b6215108199662a416d62352a196ce81e4b8a523966cc08ebcdbc687878742604051610e1294939291906125e6565b60405180910390a280915050949350505050565b60046020528060005260406000206000915054906101000a900460ff1681565b6002818051602081018201805184825260208301602085012081835280955050505050506000915090505481565b606060036000838152602001908152602001600020805480602002602001604051908101604052809291908181526020016000905b8282101561104d57838290600052602060002090600502016040518060c0016040529081600082015481526020016001820160009054906101000a900460ff166004811115610efb57610efa611749565b5b6004811115610f0d57610f0c611749565b5b81526020016001820160019054906101000a900460ff166004811115610f3657610f35611749565b5b6004811115610f4857610f47611749565b5b8152602001600282018054610f5c90612195565b80601f0160208091040260200160405190810160405280929190818152602001828054610f8890612195565b8015610fd55780601f10610faa57610100808354040283529160200191610fd5565b820191906000526020600020905b815481529060010190602001808311610fb857829003601f168201915b505050505081526020016003820160009054906101000a900473ffffffffffffffffffffffffffffffffffffffff1673ffffffffffffffffffffffffffffffffffffffff1673ffffffffffffffffffffffffffffffffffffffff16815260200160048201548152505081526020019060010190610ea9565b505050509050919050565b600081805190602001206001600085815260200190815260200160002060030160405161108591906126dc565b604051809103902014905092915050565b600460003373ffffffffffffffffffffffffffffffffffffffff1673ffffffffffffffffffffffffffffffffffffffff16815260200190815260200160002060009054906101000a900460ff168061113b5750600560009054906101000a900473ffffffffffffffffffffffffffffffffffffffff1673ffffffffffffffffffffffffffffffffffffffff163373ffffffffffffffffffffffffffffffffffffffff16145b61117a576040517f08c379a000000000000000000000000000000000000000000000000000000000815260040161117190612265565b60405180910390fd5b60008311801561118c57506000548311155b6111cb576040517f08c379a00000000000000000000000000000000000000000000000000000000081526004016111c29061273f565b60405180910390fd5b600060016000858152602001908152602001600020905060008160060160009054906101000a900460ff169050838260060160006101000a81548160ff0219169083600481111561121f5761121e611749565b5b0217905550600360008681526020019081526020016000206040518060c0016040528087815260200183600481111561125b5761125a611749565b5b815260200186600481111561127357611272611749565b5b81526020018581526020013373ffffffffffffffffffffffffffffffffffffffff1681526020014281525090806001815401808255809150506001900390600052602060002090600502016000909190919091506000820151816000015560208201518160010160006101000a81548160ff021916908360048111156112fc576112fb611749565b5b021790555060408201518160010160016101000a81548160ff0219169083600481111561132c5761132b611749565b5b021790555060608201518160020190816113469190612514565b5060808201518160030160006101000a81548173ffffffffffffffffffffffffffffffffffffffff021916908373ffffffffffffffffffffffffffffffffffffffff16021790555060a082015181600401555050847fdd0fc8e29d62ab161c1aa45daf89d3b7862bd58077e7219e3da7cd02570c1b3a828633426040516113d0949392919061275f565b60405180910390a25050505050565b600560009054906101000a900473ffffffffffffffffffffffffffffffffffffffff1681565b6003602052816000526040600020818154811061142157600080fd5b9060005260206000209060050201600091509150508060000154908060010160009054906101000a900460ff16908060010160019054906101000a900460ff169080600201805461147190612195565b80601f016020809104026020016040519081016040528092919081815260200182805461149d90612195565b80156114ea5780601f106114bf576101008083540402835291602001916114ea565b820191906000526020600020905b8154815290600101906020018083116114cd57829003601f168201915b5050505050908060030160009054906101000a900473ffffffffffffffffffffffffffffffffffffffff16908060040154905086565b600560009054906101000a900473ffffffffffffffffffffffffffffffffffffffff1673ffffffffffffffffffffffffffffffffffffffff163373ffffffffffffffffffffffffffffffffffffffff16146115b0576040517f08c379a00000000000000000000000000000000000000000000000000000000081526004016115a7906127f0565b60405180910390fd5b80600460008473ffffffffffffffffffffffffffffffffffffffff1673ffffffffffffffffffffffffffffffffffffffff16815260200190815260200160002060006101000a81548160ff0219169083151502179055507fd2c4ec7f557ae9098a570ede160e3b50f2c5864fcddf0dd1da6a1f979016214b8282604051611638929190612810565b60405180910390a15050565b604051806101000160405280600081526020016000600581111561166b5761166a611749565b5b81526020016060815260200160608152602001600073ffffffffffffffffffffffffffffffffffffffff16815260200160008152602001600060048111156116b6576116b5611749565b5b8152602001606081525090565b6000604051905090565b600080fd5b600080fd5b6000819050919050565b6116ea816116d7565b81146116f557600080fd5b50565b600081359050611707816116e1565b92915050565b600060208284031215611723576117226116cd565b5b6000611731848285016116f8565b91505092915050565b611743816116d7565b82525050565b7f4e487b7100000000000000000000000000000000000000000000000000000000600052602160045260246000fd5b6006811061178957611788611749565b5b50565b600081905061179a82611778565b919050565b60006117aa8261178c565b9050919050565b6117ba8161179f565b82525050565b600081519050919050565b600082825260208201905092915050565b60005b838110156117fa5780820151818401526020810190506117df565b60008484015250505050565b6000601f19601f8301169050919050565b6000611822826117c0565b61182c81856117cb565b935061183c8185602086016117dc565b61184581611806565b840191505092915050565b600073ffffffffffffffffffffffffffffffffffffffff82169050919050565b600061187b82611850565b9050919050565b61188b81611870565b82525050565b600581106118a2576118a1611749565b5b50565b60008190506118b382611891565b919050565b60006118c3826118a5565b9050919050565b6118d3816118b8565b82525050565b6000610100830160008301516118f2600086018261173a565b50602083015161190560208601826117b1565b506040830151848203604086015261191d8282611817565b915050606083015184820360608601526119378282611817565b915050608083015161194c6080860182611882565b5060a083015161195f60a086018261173a565b5060c083015161197260c08601826118ca565b5060e083015184820360e086015261198a8282611817565b9150508091505092915050565b600060208201905081810360008301526119b181846118d9565b905092915050565b6119c2816116d7565b82525050565b60006020820190506119dd60008301846119b9565b92915050565b600080fd5b600080fd5b7f4e487b7100000000000000000000000000000000000000000000000000000000600052604160045260246000fd5b611a2582611806565b810181811067ffffffffffffffff82111715611a4457611a436119ed565b5b80604052505050565b6000611a576116c3565b9050611a638282611a1c565b919050565b600067ffffffffffffffff821115611a8357611a826119ed565b5b611a8c82611806565b9050602081019050919050565b82818337600083830152505050565b6000611abb611ab684611a68565b611a4d565b905082815260208101848484011115611ad757611ad66119e8565b5b611ae2848285611a99565b509392505050565b600082601f830112611aff57611afe6119e3565b5b8135611b0f848260208601611aa8565b91505092915050565b600060208284031215611b2e57611b2d6116cd565b5b600082013567ffffffffffffffff811115611b4c57611b4b6116d2565b5b611b5884828501611aea565b91505092915050565b611b6a8161179f565b82525050565b600082825260208201905092915050565b6000611b8c826117c0565b611b968185611b70565b9350611ba68185602086016117dc565b611baf81611806565b840191505092915050565b611bc381611870565b82525050565b611bd2816118b8565b82525050565b600061010082019050611bee600083018b6119b9565b611bfb602083018a611b61565b8181036040830152611c0d8189611b81565b90508181036060830152611c218188611b81565b9050611c306080830187611bba565b611c3d60a08301866119b9565b611c4a60c0830185611bc9565b81810360e0830152611c5c8184611b81565b90509998505050505050505050565b60068110611c7857600080fd5b50565b600081359050611c8a81611c6b565b92915050565b60008060008060808587031215611caa57611ca96116cd565b5b6000611cb887828801611c7b565b945050602085013567ffffffffffffffff811115611cd957611cd86116d2565b5b611ce587828801611aea565b935050604085013567ffffffffffffffff811115611d0657611d056116d2565b5b611d1287828801611aea565b925050606085013567ffffffffffffffff811115611d3357611d326116d2565b5b611d3f87828801611aea565b91505092959194509250565b611d5481611870565b8114611d5f57600080fd5b50565b600081359050611d7181611d4b565b92915050565b600060208284031215611d8d57611d8c6116cd565b5b6000611d9b84828501611d62565b91505092915050565b60008115159050919050565b611db981611da4565b82525050565b6000602082019050611dd46000830184611db0565b92915050565b600081519050919050565b600082825260208201905092915050565b6000819050602082019050919050565b600060c083016000830151611e1e600086018261173a565b506020830151611e3160208601826118ca565b506040830151611e4460408601826118ca565b5060608301518482036060860152611e5c8282611817565b9150506080830151611e716080860182611882565b5060a0830151611e8460a086018261173a565b508091505092915050565b6000611e9b8383611e06565b905092915050565b6000602082019050919050565b6000611ebb82611dda565b611ec58185611de5565b935083602082028501611ed785611df6565b8060005b85811015611f135784840389528151611ef48582611e8f565b9450611eff83611ea3565b925060208a01995050600181019050611edb565b50829750879550505050505092915050565b60006020820190508181036000830152611f3f8184611eb0565b905092915050565b60008060408385031215611f5e57611f5d6116cd565b5b6000611f6c858286016116f8565b925050602083013567ffffffffffffffff811115611f8d57611f8c6116d2565b5b611f9985828601611aea565b9150509250929050565b60058110611fb057600080fd5b50565b600081359050611fc281611fa3565b92915050565b600080600060608486031215611fe157611fe06116cd565b5b6000611fef868287016116f8565b935050602061200086828701611fb3565b925050604084013567ffffffffffffffff811115612021576120206116d2565b5b61202d86828701611aea565b9150509250925092565b600060208201905061204c6000830184611bba565b92915050565b60008060408385031215612069576120686116cd565b5b6000612077858286016116f8565b9250506020612088858286016116f8565b9150509250929050565b600060c0820190506120a760008301896119b9565b6120b46020830188611bc9565b6120c16040830187611bc9565b81810360608301526120d38186611b81565b90506120e26080830185611bba565b6120ef60a08301846119b9565b979650505050505050565b61210381611da4565b811461210e57600080fd5b50565b600081359050612120816120fa565b92915050565b6000806040838503121561213d5761213c6116cd565b5b600061214b85828601611d62565b925050602061215c85828601612111565b9150509250929050565b7f4e487b7100000000000000000000000000000000000000000000000000000000600052602260045260246000fd5b600060028204905060018216806121ad57607f821691505b6020821081036121c0576121bf612166565b5b50919050565b600081905092915050565b60006121dc826117c0565b6121e681856121c6565b93506121f68185602086016117dc565b80840191505092915050565b600061220e82846121d1565b915081905092915050565b7f4e6f7420617574686f72697a6564000000000000000000000000000000000000600082015250565b600061224f600e83611b70565b915061225a82612219565b602082019050919050565b6000602082019050818103600083015261227e81612242565b9050919050565b7f5265666572656e636520616c7265616479206578697374730000000000000000600082015250565b60006122bb601883611b70565b91506122c682612285565b602082019050919050565b600060208201905081810360008301526122ea816122ae565b9050919050565b7f4e487b7100000000000000000000000000000000000000000000000000000000600052601160045260246000fd5b600061232b826116d7565b91507fffffffffffffffffffffffffffffffffffffffffffffffffffffffffffffffff820361235d5761235c6122f1565b5b600182019050919050565b60008190508160005260206000209050919050565b60006020601f8301049050919050565b600082821b905092915050565b6000600883026123ca7fffffffffffffffffffffffffffffffffffffffffffffffffffffffffffffffff8261238d565b6123d4868361238d565b95508019841693508086168417925050509392505050565b6000819050919050565b600061241161240c612407846116d7565b6123ec565b6116d7565b9050919050565b6000819050919050565b61242b836123f6565b61243f61243782612418565b84845461239a565b825550505050565b600090565b612454612447565b61245f818484612422565b505050565b5b818110156124835761247860008261244c565b600181019050612465565b5050565b601f8211156124c85761249981612368565b6124a28461237d565b810160208510156124b1578190505b6124c56124bd8561237d565b830182612464565b50505b505050565b600082821c905092915050565b60006124eb600019846008026124cd565b1980831691505092915050565b600061250483836124da565b9150826002028217905092915050565b61251d826117c0565b67ffffffffffffffff811115612536576125356119ed565b5b6125408254612195565b61254b828285612487565b600060209050601f83116001811461257e576000841561256c578287015190505b61257685826124f8565b8655506125de565b601f19841661258c86612368565b60005b828110156125b45784890151825560018201915060208501945060208101905061258f565b868310156125d157848901516125cd601f8916826124da565b8355505b6001600288020188555050505b505050505050565b60006080820190506125fb6000830187611b61565b818103602083015261260d8186611b81565b905081810360408301526126218185611b81565b905061263060608301846119b9565b95945050505050565b600081905092915050565b60008190508160005260206000209050919050565b6000815461266681612195565b6126708186612639565b9450600182166000811461268b57600181146126a0576126d3565b60ff19831686528115158202860193506126d3565b6126a985612644565b60005b838110156126cb578154818901526001820191506020810190506126ac565b838801955050505b50505092915050565b60006126e88284612659565b915081905092915050565b7f496e76616c6964207265636f7264000000000000000000000000000000000000600082015250565b6000612729600e83611b70565b9150612734826126f3565b602082019050919050565b600060208201905081810360008301526127588161271c565b9050919050565b60006080820190506127746000830187611bc9565b6127816020830186611bc9565b61278e6040830185611bba565b61279b60608301846119b9565b95945050505050565b7f4e6f74206f776e65720000000000000000000000000000000000000000000000600082015250565b60006127da600983611b70565b91506127e5826127a4565b602082019050919050565b60006020820190508181036000830152612809816127cd565b9050919050565b60006040820190506128256000830185611bba565b6128326020830184611db0565b939250505056fea26469706673582212202802408a96d54c6ef0de3b0aaa3a5906f0212ae2742c1ec3c1a2f441343880e864736f6c63430008140033","opcodes":"PUSH1 0x80 PUSH1 0x40 MSTORE CALLVALUE DUP1 ISZERO PUSH2 0x10 JUMPI PUSH1 0x0 DUP1 REVERT JUMPDEST POP CALLER PUSH1 0x5 PUSH1 0x0 PUSH2 0x100 EXP DUP2 SLOAD DUP2 PUSH20 0xFFFFFFFFFFFFFFFFFFFFFFFFFFFFFFFFFFFFFFFF MUL NOT AND SWAP1 DUP4 PUSH20 0xFFFFFFFFFFFFFFFFFFFFFFFFFFFFFFFFFFFFFFFF AND MUL OR SWAP1 SSTORE POP PUSH1 0x1 PUSH1 0x4 PUSH1 0x0 CALLER PUSH20 0xFFFFFFFFFFFFFFFFFFFFFFFFFFFFFFFFFFFFFFFF AND PUSH20 0xFFFFFFFFFFFFFFFFFFFFFFFFFFFFFFFFFFFFFFFF AND DUP2 MSTORE PUSH1 0x20 ADD SWAP1 DUP2 MSTORE PUSH1 0x20 ADD PUSH1 0x0 KECCAK256 PUSH1 0x0 PUSH2 0x100 EXP DUP2 SLOAD DUP2 PUSH1 0xFF MUL NOT AND SWAP1 DUP4 ISZERO ISZERO MUL OR SWAP1 SSTORE POP PUSH2 0x286F DUP1 PUSH2 0xB9 PUSH1 0x0 CODECOPY PUSH1 0x0 RETURN INVALID PUSH1 0x80 PUSH1 0x40 MSTORE CALLVALUE DUP1 ISZERO PUSH2 0x10 JUMPI PUSH1 0x0 DUP1 REVERT JUMPDEST POP PUSH1 0x4 CALLDATASIZE LT PUSH2 0xCF JUMPI PUSH1 0x0 CALLDATALOAD PUSH1 0xE0 SHR DUP1 PUSH4 0x58260188 GT PUSH2 0x8C JUMPI DUP1 PUSH4 0x781F0B72 GT PUSH2 0x66 JUMPI DUP1 PUSH4 0x781F0B72 EQ PUSH2 0x279 JUMPI DUP1 PUSH4 0x8DA5CB5B EQ PUSH2 0x295 JUMPI DUP1 PUSH4 0xA6EC1215 EQ PUSH2 0x2B3 JUMPI DUP1 PUSH4 0xD215E128 EQ PUSH2 0x2E8 JUMPI PUSH2 0xCF JUMP JUMPDEST DUP1 PUSH4 0x58260188 EQ PUSH2 0x1E9 JUMPI DUP1 PUSH4 0x58A20B3B EQ PUSH2 0x219 JUMPI DUP1 PUSH4 0x6F136953 EQ PUSH2 0x249 JUMPI PUSH2 0xCF JUMP JUMPDEST DUP1 PUSH4 0x3E9E609 EQ PUSH2 0xD4 JUMPI DUP1 PUSH4 0xAEACB5E EQ PUSH2 0x104 JUMPI DUP1 PUSH4 0x2E302CE1 EQ PUSH2 0x122 JUMPI DUP1 PUSH4 0x34461067 EQ PUSH2 0x152 JUMPI DUP1 PUSH4 0x3CA4036B EQ PUSH2 0x189 JUMPI DUP1 PUSH4 0x526241A8 EQ PUSH2 0x1B9 JUMPI JUMPDEST PUSH1 0x0 DUP1 REVERT JUMPDEST PUSH2 0xEE PUSH1 0x4 DUP1 CALLDATASIZE SUB DUP2 ADD SWAP1 PUSH2 0xE9 SWAP2 SWAP1 PUSH2 0x170D JUMP JUMPDEST PUSH2 0x304 JUMP JUMPDEST PUSH1 0x40 MLOAD PUSH2 0xFB SWAP2 SWAP1 PUSH2 0x1997 JUMP JUMPDEST PUSH1 0x40 MLOAD DUP1 SWAP2 SUB SWAP1 RETURN JUMPDEST PUSH2 0x10C PUSH2 0x5C8 JUMP JUMPDEST PUSH1 0x40 MLOAD PUSH2 0x119 SWAP2 SWAP1 PUSH2 0x19C8 JUMP JUMPDEST PUSH1 0x40 MLOAD DUP1 SWAP2 SUB SWAP1 RETURN JUMPDEST PUSH2 0x13C PUSH1 0x4 DUP1 CALLDATASIZE SUB DUP2 ADD SWAP1 PUSH2 0x137 SWAP2 SWAP1 PUSH2 0x1B18 JUMP JUMPDEST PUSH2 0x5D1 JUMP JUMPDEST PUSH1 0x40 MLOAD PUSH2 0x149 SWAP2 SWAP1 PUSH2 0x1997 JUMP JUMPDEST PUSH1 0x40 MLOAD DUP1 SWAP2 SUB SWAP1 RETURN JUMPDEST PUSH2 0x16C PUSH1 0x4 DUP1 CALLDATASIZE SUB DUP2 ADD SWAP1 PUSH2 0x167 SWAP2 SWAP1 PUSH2 0x170D JUMP JUMPDEST PUSH2 0x8B3 JUMP JUMPDEST PUSH1 0x40 MLOAD PUSH2 0x180 SWAP9 SWAP8 SWAP7 SWAP6 SWAP5 SWAP4 SWAP3 SWAP2 SWAP1 PUSH2 0x1BD8 JUMP JUMPDEST PUSH1 0x40 MLOAD DUP1 SWAP2 SUB SWAP1 RETURN JUMPDEST PUSH2 0x1A3 PUSH1 0x4 DUP1 CALLDATASIZE SUB DUP2 ADD SWAP1 PUSH2 0x19E SWAP2 SWAP1 PUSH2 0x1C90 JUMP JUMPDEST PUSH2 0xACD JUMP JUMPDEST PUSH1 0x40 MLOAD PUSH2 0x1B0 SWAP2 SWAP1 PUSH2 0x19C8 JUMP JUMPDEST PUSH1 0x40 MLOAD DUP1 SWAP2 SUB SWAP1 RETURN JUMPDEST PUSH2 0x1D3 PUSH1 0x4 DUP1 CALLDATASIZE SUB DUP2 ADD SWAP1 PUSH2 0x1CE SWAP2 SWAP1 PUSH2 0x1D77 JUMP JUMPDEST PUSH2 0xE26 JUMP JUMPDEST PUSH1 0x40 MLOAD PUSH2 0x1E0 SWAP2 SWAP1 PUSH2 0x1DBF JUMP JUMPDEST PUSH1 0x40 MLOAD DUP1 SWAP2 SUB SWAP1 RETURN JUMPDEST PUSH2 0x203 PUSH1 0x4 DUP1 CALLDATASIZE SUB DUP2 ADD SWAP1 PUSH2 0x1FE SWAP2 SWAP1 PUSH2 0x1B18 JUMP JUMPDEST PUSH2 0xE46 JUMP JUMPDEST PUSH1 0x40 MLOAD PUSH2 0x210 SWAP2 SWAP1 PUSH2 0x19C8 JUMP JUMPDEST PUSH1 0x40 MLOAD DUP1 SWAP2 SUB SWAP1 RETURN JUMPDEST PUSH2 0x233 PUSH1 0x4 DUP1 CALLDATASIZE SUB DUP2 ADD SWAP1 PUSH2 0x22E SWAP2 SWAP1 PUSH2 0x170D JUMP JUMPDEST PUSH2 0xE74 JUMP JUMPDEST PUSH1 0x40 MLOAD PUSH2 0x240 SWAP2 SWAP1 PUSH2 0x1F25 JUMP JUMPDEST PUSH1 0x40 MLOAD DUP1 SWAP2 SUB SWAP1 RETURN JUMPDEST PUSH2 0x263 PUSH1 0x4 DUP1 CALLDATASIZE SUB DUP2 ADD SWAP1 PUSH2 0x25E SWAP2 SWAP1 PUSH2 0x1F47 JUMP JUMPDEST PUSH2 0x1058 JUMP JUMPDEST PUSH1 0x40 MLOAD PUSH2 0x270 SWAP2 SWAP1 PUSH2 0x1DBF JUMP JUMPDEST PUSH1 0x40 MLOAD DUP1 SWAP2 SUB SWAP1 RETURN JUMPDEST PUSH2 0x293 PUSH1 0x4 DUP1 CALLDATASIZE SUB DUP2 ADD SWAP1 PUSH2 0x28E SWAP2 SWAP1 PUSH2 0x1FC8 JUMP JUMPDEST PUSH2 0x1096 JUMP JUMPDEST STOP JUMPDEST PUSH2 0x29D PUSH2 0x13DF JUMP JUMPDEST PUSH1 0x40 MLOAD PUSH2 0x2AA SWAP2 SWAP1 PUSH2 0x2037 JUMP JUMPDEST PUSH1 0x40 MLOAD DUP1 SWAP2 SUB SWAP1 RETURN JUMPDEST PUSH2 0x2CD PUSH1 0x4 DUP1 CALLDATASIZE SUB DUP2 ADD SWAP1 PUSH2 0x2C8 SWAP2 SWAP1 PUSH2 0x2052 JUMP JUMPDEST PUSH2 0x1405 JUMP JUMPDEST PUSH1 0x40 MLOAD PUSH2 0x2DF SWAP7 SWAP6 SWAP5 SWAP4 SWAP3 SWAP2 SWAP1 PUSH2 0x2092 JUMP JUMPDEST PUSH1 0x40 MLOAD DUP1 SWAP2 SUB SWAP1 RETURN JUMPDEST PUSH2 0x302 PUSH1 0x4 DUP1 CALLDATASIZE SUB DUP2 ADD SWAP1 PUSH2 0x2FD SWAP2 SWAP1 PUSH2 0x2126 JUMP JUMPDEST PUSH2 0x1520 JUMP JUMPDEST STOP JUMPDEST PUSH2 0x30C PUSH2 0x1644 JUMP JUMPDEST PUSH1 0x1 PUSH1 0x0 DUP4 DUP2 MSTORE PUSH1 0x20 ADD SWAP1 DUP2 MSTORE PUSH1 0x20 ADD PUSH1 0x0 KECCAK256 PUSH1 0x40 MLOAD DUP1 PUSH2 0x100 ADD PUSH1 0x40 MSTORE SWAP1 DUP2 PUSH1 0x0 DUP3 ADD SLOAD DUP2 MSTORE PUSH1 0x20 ADD PUSH1 0x1 DUP3 ADD PUSH1 0x0 SWAP1 SLOAD SWAP1 PUSH2 0x100 EXP SWAP1 DIV PUSH1 0xFF AND PUSH1 0x5 DUP2 GT ISZERO PUSH2 0x35A JUMPI PUSH2 0x359 PUSH2 0x1749 JUMP JUMPDEST JUMPDEST PUSH1 0x5 DUP2 GT ISZERO PUSH2 0x36C JUMPI PUSH2 0x36B PUSH2 0x1749 JUMP JUMPDEST JUMPDEST DUP2 MSTORE PUSH1 0x20 ADD PUSH1 0x2 DUP3 ADD DUP1 SLOAD PUSH2 0x380 SWAP1 PUSH2 0x2195 JUMP JUMPDEST DUP1 PUSH1 0x1F ADD PUSH1 0x20 DUP1 SWAP2 DIV MUL PUSH1 0x20 ADD PUSH1 0x40 MLOAD SWAP1 DUP2 ADD PUSH1 0x40 MSTORE DUP1 SWAP3 SWAP2 SWAP1 DUP2 DUP2 MSTORE PUSH1 0x20 ADD DUP3 DUP1 SLOAD PUSH2 0x3AC SWAP1 PUSH2 0x2195 JUMP JUMPDEST DUP1 ISZERO PUSH2 0x3F9 JUMPI DUP1 PUSH1 0x1F LT PUSH2 0x3CE JUMPI PUSH2 0x100 DUP1 DUP4 SLOAD DIV MUL DUP4 MSTORE SWAP2 PUSH1 0x20 ADD SWAP2 PUSH2 0x3F9 JUMP JUMPDEST DUP3 ADD SWAP2 SWAP1 PUSH1 0x0 MSTORE PUSH1 0x20 PUSH1 0x0 KECCAK256 SWAP1 JUMPDEST DUP2 SLOAD DUP2 MSTORE SWAP1 PUSH1 0x1 ADD SWAP1 PUSH1 0x20 ADD DUP1 DUP4 GT PUSH2 0x3DC JUMPI DUP3 SWAP1 SUB PUSH1 0x1F AND DUP3 ADD SWAP2 JUMPDEST POP POP POP POP POP DUP2 MSTORE PUSH1 0x20 ADD PUSH1 0x3 DUP3 ADD DUP1 SLOAD PUSH2 0x412 SWAP1 PUSH2 0x2195 JUMP JUMPDEST DUP1 PUSH1 0x1F ADD PUSH1 0x20 DUP1 SWAP2 DIV MUL PUSH1 0x20 ADD PUSH1 0x40 MLOAD SWAP1 DUP2 ADD PUSH1 0x40 MSTORE DUP1 SWAP3 SWAP2 SWAP1 DUP2 DUP2 MSTORE PUSH1 0x20 ADD DUP3 DUP1 SLOAD PUSH2 0x43E SWAP1 PUSH2 0x2195 JUMP JUMPDEST DUP1 ISZERO PUSH2 0x48B JUMPI DUP1 PUSH1 0x1F LT PUSH2 0x460 JUMPI PUSH2 0x100 DUP1 DUP4 SLOAD DIV MUL DUP4 MSTORE SWAP2 PUSH1 0x20 ADD SWAP2 PUSH2 0x48B JUMP JUMPDEST DUP3 ADD SWAP2 SWAP1 PUSH1 0x0 MSTORE PUSH1 0x20 PUSH1 0x0 KECCAK256 SWAP1 JUMPDEST DUP2 SLOAD DUP2 MSTORE SWAP1 PUSH1 0x1 ADD SWAP1 PUSH1 0x20 ADD DUP1 DUP4 GT PUSH2 0x46E JUMPI DUP3 SWAP1 SUB PUSH1 0x1F AND DUP3 ADD SWAP2 JUMPDEST POP POP POP POP POP DUP2 MSTORE PUSH1 0x20 ADD PUSH1 0x4 DUP3 ADD PUSH1 0x0 SWAP1 SLOAD SWAP1 PUSH2 0x100 EXP SWAP1 DIV PUSH20 0xFFFFFFFFFFFFFFFFFFFFFFFFFFFFFFFFFFFFFFFF AND PUSH20 0xFFFFFFFFFFFFFFFFFFFFFFFFFFFFFFFFFFFFFFFF AND PUSH20 0xFFFFFFFFFFFFFFFFFFFFFFFFFFFFFFFFFFFFFFFF AND DUP2 MSTORE PUSH1 0x20 ADD PUSH1 0x5 DUP3 ADD SLOAD DUP2 MSTORE PUSH1 0x20 ADD PUSH1 0x6 DUP3 ADD PUSH1 0x0 SWAP1 SLOAD SWAP1 PUSH2 0x100 EXP SWAP1 DIV PUSH1 0xFF AND PUSH1 0x4 DUP2 GT ISZERO PUSH2 0x519 JUMPI PUSH2 0x518 PUSH2 0x1749 JUMP JUMPDEST JUMPDEST PUSH1 0x4 DUP2 GT ISZERO PUSH2 0x52B JUMPI PUSH2 0x52A PUSH2 0x1749 JUMP JUMPDEST JUMPDEST DUP2 MSTORE PUSH1 0x20 ADD PUSH1 0x7 DUP3 ADD DUP1 SLOAD PUSH2 0x53F SWAP1 PUSH2 0x2195 JUMP JUMPDEST DUP1 PUSH1 0x1F ADD PUSH1 0x20 DUP1 SWAP2 DIV MUL PUSH1 0x20 ADD PUSH1 0x40 MLOAD SWAP1 DUP2 ADD PUSH1 0x40 MSTORE DUP1 SWAP3 SWAP2 SWAP1 DUP2 DUP2 MSTORE PUSH1 0x20 ADD DUP3 DUP1 SLOAD PUSH2 0x56B SWAP1 PUSH2 0x2195 JUMP JUMPDEST DUP1 ISZERO PUSH2 0x5B8 JUMPI DUP1 PUSH1 0x1F LT PUSH2 0x58D JUMPI PUSH2 0x100 DUP1 DUP4 SLOAD DIV MUL DUP4 MSTORE SWAP2 PUSH1 0x20 ADD SWAP2 PUSH2 0x5B8 JUMP JUMPDEST DUP3 ADD SWAP2 SWAP1 PUSH1 0x0 MSTORE PUSH1 0x20 PUSH1 0x0 KECCAK256 SWAP1 JUMPDEST DUP2 SLOAD DUP2 MSTORE SWAP1 PUSH1 0x1 ADD SWAP1 PUSH1 0x20 ADD DUP1 DUP4 GT PUSH2 0x59B JUMPI DUP3 SWAP1 SUB PUSH1 0x1F AND DUP3 ADD SWAP2 JUMPDEST POP POP POP POP POP DUP2 MSTORE POP POP SWAP1 POP SWAP2 SWAP1 POP JUMP JUMPDEST PUSH1 0x0 DUP1 SLOAD SWAP1 POP SWAP1 JUMP JUMPDEST PUSH2 0x5D9 PUSH2 0x1644 JUMP JUMPDEST PUSH1 0x1 PUSH1 0x0 PUSH1 0x2 DUP5 PUSH1 0x40 MLOAD PUSH2 0x5ED SWAP2 SWAP1 PUSH2 0x2202 JUMP JUMPDEST SWAP1 DUP2 MSTORE PUSH1 0x20 ADD PUSH1 0x40 MLOAD DUP1 SWAP2 SUB SWAP1 KECCAK256 SLOAD DUP2 MSTORE PUSH1 0x20 ADD SWAP1 DUP2 MSTORE PUSH1 0x20 ADD PUSH1 0x0 KECCAK256 PUSH1 0x40 MLOAD DUP1 PUSH2 0x100 ADD PUSH1 0x40 MSTORE SWAP1 DUP2 PUSH1 0x0 DUP3 ADD SLOAD DUP2 MSTORE PUSH1 0x20 ADD PUSH1 0x1 DUP3 ADD PUSH1 0x0 SWAP1 SLOAD SWAP1 PUSH2 0x100 EXP SWAP1 DIV PUSH1 0xFF AND PUSH1 0x5 DUP2 GT ISZERO PUSH2 0x645 JUMPI PUSH2 0x644 PUSH2 0x1749 JUMP JUMPDEST JUMPDEST PUSH1 0x5 DUP2 GT ISZERO PUSH2 0x657 JUMPI PUSH2 0x656 PUSH2 0x1749 JUMP JUMPDEST JUMPDEST DUP2 MSTORE PUSH1 0x20 ADD PUSH1 0x2 DUP3 ADD DUP1 SLOAD PUSH2 0x66B SWAP1 PUSH2 0x2195 JUMP JUMPDEST DUP1 PUSH1 0x1F ADD PUSH1 0x20 DUP1 SWAP2 DIV MUL PUSH1 0x20 ADD PUSH1 0x40 MLOAD SWAP1 DUP2 ADD PUSH1 0x40 MSTORE DUP1 SWAP3 SWAP2 SWAP1 DUP2 DUP2 MSTORE PUSH1 0x20 ADD DUP3 DUP1 SLOAD PUSH2 0x697 SWAP1 PUSH2 0x2195 JUMP JUMPDEST DUP1 ISZERO PUSH2 0x6E4 JUMPI DUP1 PUSH1 0x1F LT PUSH2 0x6B9 JUMPI PUSH2 0x100 DUP1 DUP4 SLOAD DIV MUL DUP4 MSTORE SWAP2 PUSH1 0x20 ADD SWAP2 PUSH2 0x6E4 JUMP JUMPDEST DUP3 ADD SWAP2 SWAP1 PUSH1 0x0 MSTORE PUSH1 0x20 PUSH1 0x0 KECCAK256 SWAP1 JUMPDEST DUP2 SLOAD DUP2 MSTORE SWAP1 PUSH1 0x1 ADD SWAP1 PUSH1 0x20 ADD DUP1 DUP4 GT PUSH2 0x6C7 JUMPI DUP3 SWAP1 SUB PUSH1 0x1F AND DUP3 ADD SWAP2 JUMPDEST POP POP POP POP POP DUP2 MSTORE PUSH1 0x20 ADD PUSH1 0x3 DUP3 ADD DUP1 SLOAD PUSH2 0x6FD SWAP1 PUSH2 0x2195 JUMP JUMPDEST DUP1 PUSH1 0x1F ADD PUSH1 0x20 DUP1 SWAP2 DIV MUL PUSH1 0x20 ADD PUSH1 0x40 MLOAD SWAP1 DUP2 ADD PUSH1 0x40 MSTORE DUP1 SWAP3 SWAP2 SWAP1 DUP2 DUP2 MSTORE PUSH1 0x20 ADD DUP3 DUP1 SLOAD PUSH2 0x729 SWAP1 PUSH2 0x2195 JUMP JUMPDEST DUP1 ISZERO PUSH2 0x776 JUMPI DUP1 PUSH1 0x1F LT PUSH2 0x74B JUMPI PUSH2 0x100 DUP1 DUP4 SLOAD DIV MUL DUP4 MSTORE SWAP2 PUSH1 0x20 ADD SWAP2 PUSH2 0x776 JUMP JUMPDEST DUP3 ADD SWAP2 SWAP1 PUSH1 0x0 MSTORE PUSH1 0x20 PUSH1 0x0 KECCAK256 SWAP1 JUMPDEST DUP2 SLOAD DUP2 MSTORE SWAP1 PUSH1 0x1 ADD SWAP1 PUSH1 0x20 ADD DUP1 DUP4 GT PUSH2 0x759 JUMPI DUP3 SWAP1 SUB PUSH1 0x1F AND DUP3 ADD SWAP2 JUMPDEST POP POP POP POP POP DUP2 MSTORE PUSH1 0x20 ADD PUSH1 0x4 DUP3 ADD PUSH1 0x0 SWAP1 SLOAD SWAP1 PUSH2 0x100 EXP SWAP1 DIV PUSH20 0xFFFFFFFFFFFFFFFFFFFFFFFFFFFFFFFFFFFFFFFF AND PUSH20 0xFFFFFFFFFFFFFFFFFFFFFFFFFFFFFFFFFFFFFFFF AND PUSH20 0xFFFFFFFFFFFFFFFFFFFFFFFFFFFFFFFFFFFFFFFF AND DUP2 MSTORE PUSH1 0x20 ADD PUSH1 0x5 DUP3 ADD SLOAD DUP2 MSTORE PUSH1 0x20 ADD PUSH1 0x6 DUP3 ADD PUSH1 0x0 SWAP1 SLOAD SWAP1 PUSH2 0x100 EXP SWAP1 DIV PUSH1 0xFF AND PUSH1 0x4 DUP2 GT ISZERO PUSH2 0x804 JUMPI PUSH2 0x803 PUSH2 0x1749 JUMP JUMPDEST JUMPDEST PUSH1 0x4 DUP2 GT ISZERO PUSH2 0x816 JUMPI PUSH2 0x815 PUSH2 0x1749 JUMP JUMPDEST JUMPDEST DUP2 MSTORE PUSH1 0x20 ADD PUSH1 0x7 DUP3 ADD DUP1 SLOAD PUSH2 0x82A SWAP1 PUSH2 0x2195 JUMP JUMPDEST DUP1 PUSH1 0x1F ADD PUSH1 0x20 DUP1 SWAP2 DIV MUL PUSH1 0x20 ADD PUSH1 0x40 MLOAD SWAP1 DUP2 ADD PUSH1 0x40 MSTORE DUP1 SWAP3 SWAP2 SWAP1 DUP2 DUP2 MSTORE PUSH1 0x20 ADD DUP3 DUP1 SLOAD PUSH2 0x856 SWAP1 PUSH2 0x2195 JUMP JUMPDEST DUP1 ISZERO PUSH2 0x8A3 JUMPI DUP1 PUSH1 0x1F LT PUSH2 0x878 JUMPI PUSH2 0x100 DUP1 DUP4 SLOAD DIV MUL DUP4 MSTORE SWAP2 PUSH1 0x20 ADD SWAP2 PUSH2 0x8A3 JUMP JUMPDEST DUP3 ADD SWAP2 SWAP1 PUSH1 0x0 MSTORE PUSH1 0x20 PUSH1 0x0 KECCAK256 SWAP1 JUMPDEST DUP2 SLOAD DUP2 MSTORE SWAP1 PUSH1 0x1 ADD SWAP1 PUSH1 0x20 ADD DUP1 DUP4 GT PUSH2 0x886 JUMPI DUP3 SWAP1 SUB PUSH1 0x1F AND DUP3 ADD SWAP2 JUMPDEST POP POP POP POP POP DUP2 MSTORE POP POP SWAP1 POP SWAP2 SWAP1 POP JUMP JUMPDEST PUSH1 0x1 PUSH1 0x20 MSTORE DUP1 PUSH1 0x0 MSTORE PUSH1 0x40 PUSH1 0x0 KECCAK256 PUSH1 0x0 SWAP2 POP SWAP1 POP DUP1 PUSH1 0x0 ADD SLOAD SWAP1 DUP1 PUSH1 0x1 ADD PUSH1 0x0 SWAP1 SLOAD SWAP1 PUSH2 0x100 EXP SWAP1 DIV PUSH1 0xFF AND SWAP1 DUP1 PUSH1 0x2 ADD DUP1 SLOAD PUSH2 0x8EF SWAP1 PUSH2 0x2195 JUMP JUMPDEST DUP1 PUSH1 0x1F ADD PUSH1 0x20 DUP1 SWAP2 DIV MUL PUSH1 0x20 ADD PUSH1 0x40 MLOAD SWAP1 DUP2 ADD PUSH1 0x40 MSTORE DUP1 SWAP3 SWAP2 SWAP1 DUP2 DUP2 MSTORE PUSH1 0x20 ADD DUP3 DUP1 SLOAD PUSH2 0x91B SWAP1 PUSH2 0x2195 JUMP JUMPDEST DUP1 ISZERO PUSH2 0x968 JUMPI DUP1 PUSH1 0x1F LT PUSH2 0x93D JUMPI PUSH2 0x100 DUP1 DUP4 SLOAD DIV MUL DUP4 MSTORE SWAP2 PUSH1 0x20 ADD SWAP2 PUSH2 0x968 JUMP JUMPDEST DUP3 ADD SWAP2 SWAP1 PUSH1 0x0 MSTORE PUSH1 0x20 PUSH1 0x0 KECCAK256 SWAP1 JUMPDEST DUP2 SLOAD DUP2 MSTORE SWAP1 PUSH1 0x1 ADD SWAP1 PUSH1 0x20 ADD DUP1 DUP4 GT PUSH2 0x94B JUMPI DUP3 SWAP1 SUB PUSH1 0x1F AND DUP3 ADD SWAP2 JUMPDEST POP POP POP POP POP SWAP1 DUP1 PUSH1 0x3 ADD DUP1 SLOAD PUSH2 0x97D SWAP1 PUSH2 0x2195 JUMP JUMPDEST DUP1 PUSH1 0x1F ADD PUSH1 0x20 DUP1 SWAP2 DIV MUL PUSH1 0x20 ADD PUSH1 0x40 MLOAD SWAP1 DUP2 ADD PUSH1 0x40 MSTORE DUP1 SWAP3 SWAP2 SWAP1 DUP2 DUP2 MSTORE PUSH1 0x20 ADD DUP3 DUP1 SLOAD PUSH2 0x9A9 SWAP1 PUSH2 0x2195 JUMP JUMPDEST DUP1 ISZERO PUSH2 0x9F6 JUMPI DUP1 PUSH1 0x1F LT PUSH2 0x9CB JUMPI PUSH2 0x100 DUP1 DUP4 SLOAD DIV MUL DUP4 MSTORE SWAP2 PUSH1 0x20 ADD SWAP2 PUSH2 0x9F6 JUMP JUMPDEST DUP3 ADD SWAP2 SWAP1 PUSH1 0x0 MSTORE PUSH1 0x20 PUSH1 0x0 KECCAK256 SWAP1 JUMPDEST DUP2 SLOAD DUP2 MSTORE SWAP1 PUSH1 0x1 ADD SWAP1 PUSH1 0x20 ADD DUP1 DUP4 GT PUSH2 0x9D9 JUMPI DUP3 SWAP1 SUB PUSH1 0x1F AND DUP3 ADD SWAP2 JUMPDEST POP POP POP POP POP SWAP1 DUP1 PUSH1 0x4 ADD PUSH1 0x0 SWAP1 SLOAD SWAP1 PUSH2 0x100 EXP SWAP1 DIV PUSH20 0xFFFFFFFFFFFFFFFFFFFFFFFFFFFFFFFFFFFFFFFF AND SWAP1 DUP1 PUSH1 0x5 ADD SLOAD SWAP1 DUP1 PUSH1 0x6 ADD PUSH1 0x0 SWAP1 SLOAD SWAP1 PUSH2 0x100 EXP SWAP1 DIV PUSH1 0xFF AND SWAP1 DUP1 PUSH1 0x7 ADD DUP1 SLOAD PUSH2 0xA4A SWAP1 PUSH2 0x2195 JUMP JUMPDEST DUP1 PUSH1 0x1F ADD PUSH1 0x20 DUP1 SWAP2 DIV MUL PUSH1 0x20 ADD PUSH1 0x40 MLOAD SWAP1 DUP2 ADD PUSH1 0x40 MSTORE DUP1 SWAP3 SWAP2 SWAP1 DUP2 DUP2 MSTORE PUSH1 0x20 ADD DUP3 DUP1 SLOAD PUSH2 0xA76 SWAP1 PUSH2 0x2195 JUMP JUMPDEST DUP1 ISZERO PUSH2 0xAC3 JUMPI DUP1 PUSH1 0x1F LT PUSH2 0xA98 JUMPI PUSH2 0x100 DUP1 DUP4 SLOAD DIV MUL DUP4 MSTORE SWAP2 PUSH1 0x20 ADD SWAP2 PUSH2 0xAC3 JUMP JUMPDEST DUP3 ADD SWAP2 SWAP1 PUSH1 0x0 MSTORE PUSH1 0x20 PUSH1 0x0 KECCAK256 SWAP1 JUMPDEST DUP2 SLOAD DUP2 MSTORE SWAP1 PUSH1 0x1 ADD SWAP1 PUSH1 0x20 ADD DUP1 DUP4 GT PUSH2 0xAA6 JUMPI DUP3 SWAP1 SUB PUSH1 0x1F AND DUP3 ADD SWAP2 JUMPDEST POP POP POP POP POP SWAP1 POP DUP9 JUMP JUMPDEST PUSH1 0x0 PUSH1 0x4 PUSH1 0x0 CALLER PUSH20 0xFFFFFFFFFFFFFFFFFFFFFFFFFFFFFFFFFFFFFFFF AND PUSH20 0xFFFFFFFFFFFFFFFFFFFFFFFFFFFFFFFFFFFFFFFF AND DUP2 MSTORE PUSH1 0x20 ADD SWAP1 DUP2 MSTORE PUSH1 0x20 ADD PUSH1 0x0 KECCAK256 PUSH1 0x0 SWAP1 SLOAD SWAP1 PUSH2 0x100 EXP SWAP1 DIV PUSH1 0xFF AND DUP1 PUSH2 0xB74 JUMPI POP PUSH1 0x5 PUSH1 0x0 SWAP1 SLOAD SWAP1 PUSH2 0x100 EXP SWAP1 DIV PUSH20 0xFFFFFFFFFFFFFFFFFFFFFFFFFFFFFFFFFFFFFFFF AND PUSH20 0xFFFFFFFFFFFFFFFFFFFFFFFFFFFFFFFFFFFFFFFF AND CALLER PUSH20 0xFFFFFFFFFFFFFFFFFFFFFFFFFFFFFFFFFFFFFFFF AND EQ JUMPDEST PUSH2 0xBB3 JUMPI PUSH1 0x40 MLOAD PUSH32 0x8C379A000000000000000000000000000000000000000000000000000000000 DUP2 MSTORE PUSH1 0x4 ADD PUSH2 0xBAA SWAP1 PUSH2 0x2265 JUMP JUMPDEST PUSH1 0x40 MLOAD DUP1 SWAP2 SUB SWAP1 REVERT JUMPDEST PUSH1 0x0 PUSH1 0x2 DUP6 PUSH1 0x40 MLOAD PUSH2 0xBC5 SWAP2 SWAP1 PUSH2 0x2202 JUMP JUMPDEST SWAP1 DUP2 MSTORE PUSH1 0x20 ADD PUSH1 0x40 MLOAD DUP1 SWAP2 SUB SWAP1 KECCAK256 SLOAD EQ PUSH2 0xC14 JUMPI PUSH1 0x40 MLOAD PUSH32 0x8C379A000000000000000000000000000000000000000000000000000000000 DUP2 MSTORE PUSH1 0x4 ADD PUSH2 0xC0B SWAP1 PUSH2 0x22D1 JUMP JUMPDEST PUSH1 0x40 MLOAD DUP1 SWAP2 SUB SWAP1 REVERT JUMPDEST PUSH1 0x0 DUP1 DUP2 SLOAD DUP1 SWAP3 SWAP2 SWAP1 PUSH2 0xC26 SWAP1 PUSH2 0x2320 JUMP JUMPDEST SWAP2 SWAP1 POP SSTORE POP PUSH1 0x0 DUP1 SLOAD SWAP1 POP PUSH1 0x40 MLOAD DUP1 PUSH2 0x100 ADD PUSH1 0x40 MSTORE DUP1 DUP3 DUP2 MSTORE PUSH1 0x20 ADD DUP8 PUSH1 0x5 DUP2 GT ISZERO PUSH2 0xC56 JUMPI PUSH2 0xC55 PUSH2 0x1749 JUMP JUMPDEST JUMPDEST DUP2 MSTORE PUSH1 0x20 ADD DUP7 DUP2 MSTORE PUSH1 0x20 ADD DUP6 DUP2 MSTORE PUSH1 0x20 ADD CALLER PUSH20 0xFFFFFFFFFFFFFFFFFFFFFFFFFFFFFFFFFFFFFFFF AND DUP2 MSTORE PUSH1 0x20 ADD TIMESTAMP DUP2 MSTORE PUSH1 0x20 ADD PUSH1 0x0 PUSH1 0x4 DUP2 GT ISZERO PUSH2 0xC9D JUMPI PUSH2 0xC9C PUSH2 0x1749 JUMP JUMPDEST JUMPDEST DUP2 MSTORE PUSH1 0x20 ADD DUP5 DUP2 MSTORE POP PUSH1 0x1 PUSH1 0x0 DUP4 DUP2 MSTORE PUSH1 0x20 ADD SWAP1 DUP2 MSTORE PUSH1 0x20 ADD PUSH1 0x0 KECCAK256 PUSH1 0x0 DUP3 ADD MLOAD DUP2 PUSH1 0x0 ADD SSTORE PUSH1 0x20 DUP3 ADD MLOAD DUP2 PUSH1 0x1 ADD PUSH1 0x0 PUSH2 0x100 EXP DUP2 SLOAD DUP2 PUSH1 0xFF MUL NOT AND SWAP1 DUP4 PUSH1 0x5 DUP2 GT ISZERO PUSH2 0xCEE JUMPI PUSH2 0xCED PUSH2 0x1749 JUMP JUMPDEST JUMPDEST MUL OR SWAP1 SSTORE POP PUSH1 0x40 DUP3 ADD MLOAD DUP2 PUSH1 0x2 ADD SWAP1 DUP2 PUSH2 0xD08 SWAP2 SWAP1 PUSH2 0x2514 JUMP JUMPDEST POP PUSH1 0x60 DUP3 ADD MLOAD DUP2 PUSH1 0x3 ADD SWAP1 DUP2 PUSH2 0xD1E SWAP2 SWAP1 PUSH2 0x2514 JUMP JUMPDEST POP PUSH1 0x80 DUP3 ADD MLOAD DUP2 PUSH1 0x4 ADD PUSH1 0x0 PUSH2 0x100 EXP DUP2 SLOAD DUP2 PUSH20 0xFFFFFFFFFFFFFFFFFFFFFFFFFFFFFFFFFFFFFFFF MUL NOT AND SWAP1 DUP4 PUSH20 0xFFFFFFFFFFFFFFFFFFFFFFFFFFFFFFFFFFFFFFFF AND MUL OR SWAP1 SSTORE POP PUSH1 0xA0 DUP3 ADD MLOAD DUP2 PUSH1 0x5 ADD SSTORE PUSH1 0xC0 DUP3 ADD MLOAD DUP2 PUSH1 0x6 ADD PUSH1 0x0 PUSH2 0x100 EXP DUP2 SLOAD DUP2 PUSH1 0xFF MUL NOT AND SWAP1 DUP4 PUSH1 0x4 DUP2 GT ISZERO PUSH2 0xD9B JUMPI PUSH2 0xD9A PUSH2 0x1749 JUMP JUMPDEST JUMPDEST MUL OR SWAP1 SSTORE POP PUSH1 0xE0 DUP3 ADD MLOAD DUP2 PUSH1 0x7 ADD SWAP1 DUP2 PUSH2 0xDB5 SWAP2 SWAP1 PUSH2 0x2514 JUMP JUMPDEST POP SWAP1 POP POP DUP1 PUSH1 0x2 DUP7 PUSH1 0x40 MLOAD PUSH2 0xDCA SWAP2 SWAP1 PUSH2 0x2202 JUMP JUMPDEST SWAP1 DUP2 MSTORE PUSH1 0x20 ADD PUSH1 0x40 MLOAD DUP1 SWAP2 SUB SWAP1 KECCAK256 DUP2 SWAP1 SSTORE POP DUP1 PUSH32 0xE869E1C905B6215108199662A416D62352A196CE81E4B8A523966CC08EBCDBC6 DUP8 DUP8 DUP8 TIMESTAMP PUSH1 0x40 MLOAD PUSH2 0xE12 SWAP5 SWAP4 SWAP3 SWAP2 SWAP1 PUSH2 0x25E6 JUMP JUMPDEST PUSH1 0x40 MLOAD DUP1 SWAP2 SUB SWAP1 LOG2 DUP1 SWAP2 POP POP SWAP5 SWAP4 POP POP POP POP JUMP JUMPDEST PUSH1 0x4 PUSH1 0x20 MSTORE DUP1 PUSH1 0x0 MSTORE PUSH1 0x40 PUSH1 0x0 KECCAK256 PUSH1 0x0 SWAP2 POP SLOAD SWAP1 PUSH2 0x100 EXP SWAP1 DIV PUSH1 0xFF AND DUP2 JUMP JUMPDEST PUSH1 0x2 DUP2 DUP1 MLOAD PUSH1 0x20 DUP2 ADD DUP3 ADD DUP1 MLOAD DUP5 DUP3 MSTORE PUSH1 0x20 DUP4 ADD PUSH1 0x20 DUP6 ADD KECCAK256 DUP2 DUP4 MSTORE DUP1 SWAP6 POP POP POP POP POP POP PUSH1 0x0 SWAP2 POP SWAP1 POP SLOAD DUP2 JUMP JUMPDEST PUSH1 0x60 PUSH1 0x3 PUSH1 0x0 DUP4 DUP2 MSTORE PUSH1 0x20 ADD SWAP1 DUP2 MSTORE PUSH1 0x20 ADD PUSH1 0x0 KECCAK256 DUP1 SLOAD DUP1 PUSH1 0x20 MUL PUSH1 0x20 ADD PUSH1 0x40 MLOAD SWAP1 DUP2 ADD PUSH1 0x40 MSTORE DUP1 SWAP3 SWAP2 SWAP1 DUP2 DUP2 MSTORE PUSH1 0x20 ADD PUSH1 0x0 SWAP1 JUMPDEST DUP3 DUP3 LT ISZERO PUSH2 0x104D JUMPI DUP4 DUP3 SWAP1 PUSH1 0x0 MSTORE PUSH1 0x20 PUSH1 0x0 KECCAK256 SWAP1 PUSH1 0x5 MUL ADD PUSH1 0x40 MLOAD DUP1 PUSH1 0xC0 ADD PUSH1 0x40 MSTORE SWAP1 DUP2 PUSH1 0x0 DUP3 ADD SLOAD DUP2 MSTORE PUSH1 0x20 ADD PUSH1 0x1 DUP3 ADD PUSH1 0x0 SWAP1 SLOAD SWAP1 PUSH2 0x100 EXP SWAP1 DIV PUSH1 0xFF AND PUSH1 0x4 DUP2 GT ISZERO PUSH2 0xEFB JUMPI PUSH2 0xEFA PUSH2 0x1749 JUMP JUMPDEST JUMPDEST PUSH1 0x4 DUP2 GT ISZERO PUSH2 0xF0D JUMPI PUSH2 0xF0C PUSH2 0x1749 JUMP JUMPDEST JUMPDEST DUP2 MSTORE PUSH1 0x20 ADD PUSH1 0x1 DUP3 ADD PUSH1 0x1 SWAP1 SLOAD SWAP1 PUSH2 0x100 EXP SWAP1 DIV PUSH1 0xFF AND PUSH1 0x4 DUP2 GT ISZERO PUSH2 0xF36 JUMPI PUSH2 0xF35 PUSH2 0x1749 JUMP JUMPDEST JUMPDEST PUSH1 0x4 DUP2 GT ISZERO PUSH2 0xF48 JUMPI PUSH2 0xF47 PUSH2 0x1749 JUMP JUMPDEST JUMPDEST DUP2 MSTORE PUSH1 0x20 ADD PUSH1 0x2 DUP3 ADD DUP1 SLOAD PUSH2 0xF5C SWAP1 PUSH2 0x2195 JUMP JUMPDEST DUP1 PUSH1 0x1F ADD PUSH1 0x20 DUP1 SWAP2 DIV MUL PUSH1 0x20 ADD PUSH1 0x40 MLOAD SWAP1 DUP2 ADD PUSH1 0x40 MSTORE DUP1 SWAP3 SWAP2 SWAP1 DUP2 DUP2 MSTORE PUSH1 0x20 ADD DUP3 DUP1 SLOAD PUSH2 0xF88 SWAP1 PUSH2 0x2195 JUMP JUMPDEST DUP1 ISZERO PUSH2 0xFD5 JUMPI DUP1 PUSH1 0x1F LT PUSH2 0xFAA JUMPI PUSH2 0x100 DUP1 DUP4 SLOAD DIV MUL DUP4 MSTORE SWAP2 PUSH1 0x20 ADD SWAP2 PUSH2 0xFD5 JUMP JUMPDEST DUP3 ADD SWAP2 SWAP1 PUSH1 0x0 MSTORE PUSH1 0x20 PUSH1 0x0 KECCAK256 SWAP1 JUMPDEST DUP2 SLOAD DUP2 MSTORE SWAP1 PUSH1 0x1 ADD SWAP1 PUSH1 0x20 ADD DUP1 DUP4 GT PUSH2 0xFB8 JUMPI DUP3 SWAP1 SUB PUSH1 0x1F AND DUP3 ADD SWAP2 JUMPDEST POP POP POP POP POP DUP2 MSTORE PUSH1 0x20 ADD PUSH1 0x3 DUP3 ADD PUSH1 0x0 SWAP1 SLOAD SWAP1 PUSH2 0x100 EXP SWAP1 DIV PUSH20 0xFFFFFFFFFFFFFFFFFFFFFFFFFFFFFFFFFFFFFFFF AND PUSH20 0xFFFFFFFFFFFFFFFFFFFFFFFFFFFFFFFFFFFFFFFF AND PUSH20 0xFFFFFFFFFFFFFFFFFFFFFFFFFFFFFFFFFFFFFFFF AND DUP2 MSTORE PUSH1 0x20 ADD PUSH1 0x4 DUP3 ADD SLOAD DUP2 MSTORE POP POP DUP2 MSTORE PUSH1 0x20 ADD SWAP1 PUSH1 0x1 ADD SWAP1 PUSH2 0xEA9 JUMP JUMPDEST POP POP POP POP SWAP1 POP SWAP2 SWAP1 POP JUMP JUMPDEST PUSH1 0x0 DUP2 DUP1 MLOAD SWAP1 PUSH1 0x20 ADD KECCAK256 PUSH1 0x1 PUSH1 0x0 DUP6 DUP2 MSTORE PUSH1 0x20 ADD SWAP1 DUP2 MSTORE PUSH1 0x20 ADD PUSH1 0x0 KECCAK256 PUSH1 0x3 ADD PUSH1 0x40 MLOAD PUSH2 0x1085 SWAP2 SWAP1 PUSH2 0x26DC JUMP JUMPDEST PUSH1 0x40 MLOAD DUP1 SWAP2 SUB SWAP1 KECCAK256 EQ SWAP1 POP SWAP3 SWAP2 POP POP JUMP JUMPDEST PUSH1 0x4 PUSH1 0x0 CALLER PUSH20 0xFFFFFFFFFFFFFFFFFFFFFFFFFFFFFFFFFFFFFFFF AND PUSH20 0xFFFFFFFFFFFFFFFFFFFFFFFFFFFFFFFFFFFFFFFF AND DUP2 MSTORE PUSH1 0x20 ADD SWAP1 DUP2 MSTORE PUSH1 0x20 ADD PUSH1 0x0 KECCAK256 PUSH1 0x0 SWAP1 SLOAD SWAP1 PUSH2 0x100 EXP SWAP1 DIV PUSH1 0xFF AND DUP1 PUSH2 0x113B JUMPI POP PUSH1 0x5 PUSH1 0x0 SWAP1 SLOAD SWAP1 PUSH2 0x100 EXP SWAP1 DIV PUSH20 0xFFFFFFFFFFFFFFFFFFFFFFFFFFFFFFFFFFFFFFFF AND PUSH20 0xFFFFFFFFFFFFFFFFFFFFFFFFFFFFFFFFFFFFFFFF AND CALLER PUSH20 0xFFFFFFFFFFFFFFFFFFFFFFFFFFFFFFFFFFFFFFFF AND EQ JUMPDEST PUSH2 0x117A JUMPI PUSH1 0x40 MLOAD PUSH32 0x8C379A000000000000000000000000000000000000000000000000000000000 DUP2 MSTORE PUSH1 0x4 ADD PUSH2 0x1171 SWAP1 PUSH2 0x2265 JUMP JUMPDEST PUSH1 0x40 MLOAD DUP1 SWAP2 SUB SWAP1 REVERT JUMPDEST PUSH1 0x0 DUP4 GT DUP1 ISZERO PUSH2 0x118C JUMPI POP PUSH1 0x0 SLOAD DUP4 GT ISZERO JUMPDEST PUSH2 0x11CB JUMPI PUSH1 0x40 MLOAD PUSH32 0x8C379A000000000000000000000000000000000000000000000000000000000 DUP2 MSTORE PUSH1 0x4 ADD PUSH2 0x11C2 SWAP1 PUSH2 0x273F JUMP JUMPDEST PUSH1 0x40 MLOAD DUP1 SWAP2 SUB SWAP1 REVERT JUMPDEST PUSH1 0x0 PUSH1 0x1 PUSH1 0x0 DUP6 DUP2 MSTORE PUSH1 0x20 ADD SWAP1 DUP2 MSTORE PUSH1 0x20 ADD PUSH1 0x0 KECCAK256 SWAP1 POP PUSH1 0x0 DUP2 PUSH1 0x6 ADD PUSH1 0x0 SWAP1 SLOAD SWAP1 PUSH2 0x100 EXP SWAP1 DIV PUSH1 0xFF AND SWAP1 POP DUP4 DUP3 PUSH1 0x6 ADD PUSH1 0x0 PUSH2 0x100 EXP DUP2 SLOAD DUP2 PUSH1 0xFF MUL NOT AND SWAP1 DUP4 PUSH1 0x4 DUP2 GT ISZERO PUSH2 0x121F JUMPI PUSH2 0x121E PUSH2 0x1749 JUMP JUMPDEST JUMPDEST MUL OR SWAP1 SSTORE POP PUSH1 0x3 PUSH1 0x0 DUP7 DUP2 MSTORE PUSH1 0x20 ADD SWAP1 DUP2 MSTORE PUSH1 0x20 ADD PUSH1 0x0 KECCAK256 PUSH1 0x40 MLOAD DUP1 PUSH1 0xC0 ADD PUSH1 0x40 MSTORE DUP1 DUP8 DUP2 MSTORE PUSH1 0x20 ADD DUP4 PUSH1 0x4 DUP2 GT ISZERO PUSH2 0x125B JUMPI PUSH2 0x125A PUSH2 0x1749 JUMP JUMPDEST JUMPDEST DUP2 MSTORE PUSH1 0x20 ADD DUP7 PUSH1 0x4 DUP2 GT ISZERO PUSH2 0x1273 JUMPI PUSH2 0x1272 PUSH2 0x1749 JUMP JUMPDEST JUMPDEST DUP2 MSTORE PUSH1 0x20 ADD DUP6 DUP2 MSTORE PUSH1 0x20 ADD CALLER PUSH20 0xFFFFFFFFFFFFFFFFFFFFFFFFFFFFFFFFFFFFFFFF AND DUP2 MSTORE PUSH1 0x20 ADD TIMESTAMP DUP2 MSTORE POP SWAP1 DUP1 PUSH1 0x1 DUP2 SLOAD ADD DUP1 DUP3 SSTORE DUP1 SWAP2 POP POP PUSH1 0x1 SWAP1 SUB SWAP1 PUSH1 0x0 MSTORE PUSH1 0x20 PUSH1 0x0 KECCAK256 SWAP1 PUSH1 0x5 MUL ADD PUSH1 0x0 SWAP1 SWAP2 SWAP1 SWAP2 SWAP1 SWAP2 POP PUSH1 0x0 DUP3 ADD MLOAD DUP2 PUSH1 0x0 ADD SSTORE PUSH1 0x20 DUP3 ADD MLOAD DUP2 PUSH1 0x1 ADD PUSH1 0x0 PUSH2 0x100 EXP DUP2 SLOAD DUP2 PUSH1 0xFF MUL NOT AND SWAP1 DUP4 PUSH1 0x4 DUP2 GT ISZERO PUSH2 0x12FC JUMPI PUSH2 0x12FB PUSH2 0x1749 JUMP JUMPDEST JUMPDEST MUL OR SWAP1 SSTORE POP PUSH1 0x40 DUP3 ADD MLOAD DUP2 PUSH1 0x1 ADD PUSH1 0x1 PUSH2 0x100 EXP DUP2 SLOAD DUP2 PUSH1 0xFF MUL NOT AND SWAP1 DUP4 PUSH1 0x4 DUP2 GT ISZERO PUSH2 0x132C JUMPI PUSH2 0x132B PUSH2 0x1749 JUMP JUMPDEST JUMPDEST MUL OR SWAP1 SSTORE POP PUSH1 0x60 DUP3 ADD MLOAD DUP2 PUSH1 0x2 ADD SWAP1 DUP2 PUSH2 0x1346 SWAP2 SWAP1 PUSH2 0x2514 JUMP JUMPDEST POP PUSH1 0x80 DUP3 ADD MLOAD DUP2 PUSH1 0x3 ADD PUSH1 0x0 PUSH2 0x100 EXP DUP2 SLOAD DUP2 PUSH20 0xFFFFFFFFFFFFFFFFFFFFFFFFFFFFFFFFFFFFFFFF MUL NOT AND SWAP1 DUP4 PUSH20 0xFFFFFFFFFFFFFFFFFFFFFFFFFFFFFFFFFFFFFFFF AND MUL OR SWAP1 SSTORE POP PUSH1 0xA0 DUP3 ADD MLOAD DUP2 PUSH1 0x4 ADD SSTORE POP POP DUP5 PUSH32 0xDD0FC8E29D62AB161C1AA45DAF89D3B7862BD58077E7219E3DA7CD02570C1B3A DUP3 DUP7 CALLER TIMESTAMP PUSH1 0x40 MLOAD PUSH2 0x13D0 SWAP5 SWAP4 SWAP3 SWAP2 SWAP1 PUSH2 0x275F JUMP JUMPDEST PUSH1 0x40 MLOAD DUP1 SWAP2 SUB SWAP1 LOG2 POP POP POP POP POP JUMP JUMPDEST PUSH1 0x5 PUSH1 0x0 SWAP1 SLOAD SWAP1 PUSH2 0x100 EXP SWAP1 DIV PUSH20 0xFFFFFFFFFFFFFFFFFFFFFFFFFFFFFFFFFFFFFFFF AND DUP2 JUMP JUMPDEST PUSH1 0x3 PUSH1 0x20 MSTORE DUP2 PUSH1 0x0 MSTORE PUSH1 0x40 PUSH1 0x0 KECCAK256 DUP2 DUP2 SLOAD DUP2 LT PUSH2 0x1421 JUMPI PUSH1 0x0 DUP1 REVERT JUMPDEST SWAP1 PUSH1 0x0 MSTORE PUSH1 0x20 PUSH1 0x0 KECCAK256 SWAP1 PUSH1 0x5 MUL ADD PUSH1 0x0 SWAP2 POP SWAP2 POP POP DUP1 PUSH1 0x0 ADD SLOAD SWAP1 DUP1 PUSH1 0x1 ADD PUSH1 0x0 SWAP1 SLOAD SWAP1 PUSH2 0x100 EXP SWAP1 DIV PUSH1 0xFF AND SWAP1 DUP1 PUSH1 0x1 ADD PUSH1 0x1 SWAP1 SLOAD SWAP1 PUSH2 0x100 EXP SWAP1 DIV PUSH1 0xFF AND SWAP1 DUP1 PUSH1 0x2 ADD DUP1 SLOAD PUSH2 0x1471 SWAP1 PUSH2 0x2195 JUMP JUMPDEST DUP1 PUSH1 0x1F ADD PUSH1 0x20 DUP1 SWAP2 DIV MUL PUSH1 0x20 ADD PUSH1 0x40 MLOAD SWAP1 DUP2 ADD PUSH1 0x40 MSTORE DUP1 SWAP3 SWAP2 SWAP1 DUP2 DUP2 MSTORE PUSH1 0x20 ADD DUP3 DUP1 SLOAD PUSH2 0x149D SWAP1 PUSH2 0x2195 JUMP JUMPDEST DUP1 ISZERO PUSH2 0x14EA JUMPI DUP1 PUSH1 0x1F LT PUSH2 0x14BF JUMPI PUSH2 0x100 DUP1 DUP4 SLOAD DIV MUL DUP4 MSTORE SWAP2 PUSH1 0x20 ADD SWAP2 PUSH2 0x14EA JUMP JUMPDEST DUP3 ADD SWAP2 SWAP1 PUSH1 0x0 MSTORE PUSH1 0x20 PUSH1 0x0 KECCAK256 SWAP1 JUMPDEST DUP2 SLOAD DUP2 MSTORE SWAP1 PUSH1 0x1 ADD SWAP1 PUSH1 0x20 ADD DUP1 DUP4 GT PUSH2 0x14CD JUMPI DUP3 SWAP1 SUB PUSH1 0x1F AND DUP3 ADD SWAP2 JUMPDEST POP POP POP POP POP SWAP1 DUP1 PUSH1 0x3 ADD PUSH1 0x0 SWAP1 SLOAD SWAP1 PUSH2 0x100 EXP SWAP1 DIV PUSH20 0xFFFFFFFFFFFFFFFFFFFFFFFFFFFFFFFFFFFFFFFF AND SWAP1 DUP1 PUSH1 0x4 ADD SLOAD SWAP1 POP DUP7 JUMP JUMPDEST PUSH1 0x5 PUSH1 0x0 SWAP1 SLOAD SWAP1 PUSH2 0x100 EXP SWAP1 DIV PUSH20 0xFFFFFFFFFFFFFFFFFFFFFFFFFFFFFFFFFFFFFFFF AND PUSH20 0xFFFFFFFFFFFFFFFFFFFFFFFFFFFFFFFFFFFFFFFF AND CALLER PUSH20 0xFFFFFFFFFFFFFFFFFFFFFFFFFFFFFFFFFFFFFFFF AND EQ PUSH2 0x15B0 JUMPI PUSH1 0x40 MLOAD PUSH32 0x8C379A000000000000000000000000000000000000000000000000000000000 DUP2 MSTORE PUSH1 0x4 ADD PUSH2 0x15A7 SWAP1 PUSH2 0x27F0 JUMP JUMPDEST PUSH1 0x40 MLOAD DUP1 SWAP2 SUB SWAP1 REVERT JUMPDEST DUP1 PUSH1 0x4 PUSH1 0x0 DUP5 PUSH20 0xFFFFFFFFFFFFFFFFFFFFFFFFFFFFFFFFFFFFFFFF AND PUSH20 0xFFFFFFFFFFFFFFFFFFFFFFFFFFFFFFFFFFFFFFFF AND DUP2 MSTORE PUSH1 0x20 ADD SWAP1 DUP2 MSTORE PUSH1 0x20 ADD PUSH1 0x0 KECCAK256 PUSH1 0x0 PUSH2 0x100 EXP DUP2 SLOAD DUP2 PUSH1 0xFF MUL NOT AND SWAP1 DUP4 ISZERO ISZERO MUL OR SWAP1 SSTORE POP PUSH32 0xD2C4EC7F557AE9098A570EDE160E3B50F2C5864FCDDF0DD1DA6A1F979016214B DUP3 DUP3 PUSH1 0x40 MLOAD PUSH2 0x1638 SWAP3 SWAP2 SWAP1 PUSH2 0x2810 JUMP JUMPDEST PUSH1 0x40 MLOAD DUP1 SWAP2 SUB SWAP1 LOG1 POP POP JUMP JUMPDEST PUSH1 0x40 MLOAD DUP1 PUSH2 0x100 ADD PUSH1 0x40 MSTORE DUP1 PUSH1 0x0 DUP2 MSTORE PUSH1 0x20 ADD PUSH1 0x0 PUSH1 0x5 DUP2 GT ISZERO PUSH2 0x166B JUMPI PUSH2 0x166A PUSH2 0x1749 JUMP JUMPDEST JUMPDEST DUP2 MSTORE PUSH1 0x20 ADD PUSH1 0x60 DUP2 MSTORE PUSH1 0x20 ADD PUSH1 0x60 DUP2 MSTORE PUSH1 0x20 ADD PUSH1 0x0 PUSH20 0xFFFFFFFFFFFFFFFFFFFFFFFFFFFFFFFFFFFFFFFF AND DUP2 MSTORE PUSH1 0x20 ADD PUSH1 0x0 DUP2 MSTORE PUSH1 0x20 ADD PUSH1 0x0 PUSH1 0x4 DUP2 GT ISZERO PUSH2 0x16B6 JUMPI PUSH2 0x16B5 PUSH2 0x1749 JUMP JUMPDEST JUMPDEST DUP2 MSTORE PUSH1 0x20 ADD PUSH1 0x60 DUP2 MSTORE POP SWAP1 JUMP JUMPDEST PUSH1 0x0 PUSH1 0x40 MLOAD SWAP1 POP SWAP1 JUMP JUMPDEST PUSH1 0x0 DUP1 REVERT JUMPDEST PUSH1 0x0 DUP1 REVERT JUMPDEST PUSH1 0x0 DUP2 SWAP1 POP SWAP2 SWAP1 POP JUMP JUMPDEST PUSH2 0x16EA DUP2 PUSH2 0x16D7 JUMP JUMPDEST DUP2 EQ PUSH2 0x16F5 JUMPI PUSH1 0x0 DUP1 REVERT JUMPDEST POP JUMP JUMPDEST PUSH1 0x0 DUP2 CALLDATALOAD SWAP1 POP PUSH2 0x1707 DUP2 PUSH2 0x16E1 JUMP JUMPDEST SWAP3 SWAP2 POP POP JUMP JUMPDEST PUSH1 0x0 PUSH1 0x20 DUP3 DUP5 SUB SLT ISZERO PUSH2 0x1723 JUMPI PUSH2 0x1722 PUSH2 0x16CD JUMP JUMPDEST JUMPDEST PUSH1 0x0 PUSH2 0x1731 DUP5 DUP3 DUP6 ADD PUSH2 0x16F8 JUMP JUMPDEST SWAP2 POP POP SWAP3 SWAP2 POP POP JUMP JUMPDEST PUSH2 0x1743 DUP2 PUSH2 0x16D7 JUMP JUMPDEST DUP3 MSTORE POP POP JUMP JUMPDEST PUSH32 0x4E487B7100000000000000000000000000000000000000000000000000000000 PUSH1 0x0 MSTORE PUSH1 0x21 PUSH1 0x4 MSTORE PUSH1 0x24 PUSH1 0x0 REVERT JUMPDEST PUSH1 0x6 DUP2 LT PUSH2 0x1789 JUMPI PUSH2 0x1788 PUSH2 0x1749 JUMP JUMPDEST JUMPDEST POP JUMP JUMPDEST PUSH1 0x0 DUP2 SWAP1 POP PUSH2 0x179A DUP3 PUSH2 0x1778 JUMP JUMPDEST SWAP2 SWAP1 POP JUMP JUMPDEST PUSH1 0x0 PUSH2 0x17AA DUP3 PUSH2 0x178C JUMP JUMPDEST SWAP1 POP SWAP2 SWAP1 POP JUMP JUMPDEST PUSH2 0x17BA DUP2 PUSH2 0x179F JUMP JUMPDEST DUP3 MSTORE POP POP JUMP JUMPDEST PUSH1 0x0 DUP2 MLOAD SWAP1 POP SWAP2 SWAP1 POP JUMP JUMPDEST PUSH1 0x0 DUP3 DUP3 MSTORE PUSH1 0x20 DUP3 ADD SWAP1 POP SWAP3 SWAP2 POP POP JUMP JUMPDEST PUSH1 0x0 JUMPDEST DUP4 DUP2 LT ISZERO PUSH2 0x17FA JUMPI DUP1 DUP3 ADD MLOAD DUP2 DUP5 ADD MSTORE PUSH1 0x20 DUP2 ADD SWAP1 POP PUSH2 0x17DF JUMP JUMPDEST PUSH1 0x0 DUP5 DUP5 ADD MSTORE POP POP POP POP JUMP JUMPDEST PUSH1 0x0 PUSH1 0x1F NOT PUSH1 0x1F DUP4 ADD AND SWAP1 POP SWAP2 SWAP1 POP JUMP JUMPDEST PUSH1 0x0 PUSH2 0x1822 DUP3 PUSH2 0x17C0 JUMP JUMPDEST PUSH2 0x182C DUP2 DUP6 PUSH2 0x17CB JUMP JUMPDEST SWAP4 POP PUSH2 0x183C DUP2 DUP6 PUSH1 0x20 DUP7 ADD PUSH2 0x17DC JUMP JUMPDEST PUSH2 0x1845 DUP2 PUSH2 0x1806 JUMP JUMPDEST DUP5 ADD SWAP2 POP POP SWAP3 SWAP2 POP POP JUMP JUMPDEST PUSH1 0x0 PUSH20 0xFFFFFFFFFFFFFFFFFFFFFFFFFFFFFFFFFFFFFFFF DUP3 AND SWAP1 POP SWAP2 SWAP1 POP JUMP JUMPDEST PUSH1 0x0 PUSH2 0x187B DUP3 PUSH2 0x1850 JUMP JUMPDEST SWAP1 POP SWAP2 SWAP1 POP JUMP JUMPDEST PUSH2 0x188B DUP2 PUSH2 0x1870 JUMP JUMPDEST DUP3 MSTORE POP POP JUMP JUMPDEST PUSH1 0x5 DUP2 LT PUSH2 0x18A2 JUMPI PUSH2 0x18A1 PUSH2 0x1749 JUMP JUMPDEST JUMPDEST POP JUMP JUMPDEST PUSH1 0x0 DUP2 SWAP1 POP PUSH2 0x18B3 DUP3 PUSH2 0x1891 JUMP JUMPDEST SWAP2 SWAP1 POP JUMP JUMPDEST PUSH1 0x0 PUSH2 0x18C3 DUP3 PUSH2 0x18A5 JUMP JUMPDEST SWAP1 POP SWAP2 SWAP1 POP JUMP JUMPDEST PUSH2 0x18D3 DUP2 PUSH2 0x18B8 JUMP JUMPDEST DUP3 MSTORE POP POP JUMP JUMPDEST PUSH1 0x0 PUSH2 0x100 DUP4 ADD PUSH1 0x0 DUP4 ADD MLOAD PUSH2 0x18F2 PUSH1 0x0 DUP7 ADD DUP3 PUSH2 0x173A JUMP JUMPDEST POP PUSH1 0x20 DUP4 ADD MLOAD PUSH2 0x1905 PUSH1 0x20 DUP7 ADD DUP3 PUSH2 0x17B1 JUMP JUMPDEST POP PUSH1 0x40 DUP4 ADD MLOAD DUP5 DUP3 SUB PUSH1 0x40 DUP7 ADD MSTORE PUSH2 0x191D DUP3 DUP3 PUSH2 0x1817 JUMP JUMPDEST SWAP2 POP POP PUSH1 0x60 DUP4 ADD MLOAD DUP5 DUP3 SUB PUSH1 0x60 DUP7 ADD MSTORE PUSH2 0x1937 DUP3 DUP3 PUSH2 0x1817 JUMP JUMPDEST SWAP2 POP POP PUSH1 0x80 DUP4 ADD MLOAD PUSH2 0x194C PUSH1 0x80 DUP7 ADD DUP3 PUSH2 0x1882 JUMP JUMPDEST POP PUSH1 0xA0 DUP4 ADD MLOAD PUSH2 0x195F PUSH1 0xA0 DUP7 ADD DUP3 PUSH2 0x173A JUMP JUMPDEST POP PUSH1 0xC0 DUP4 ADD MLOAD PUSH2 0x1972 PUSH1 0xC0 DUP7 ADD DUP3 PUSH2 0x18CA JUMP JUMPDEST POP PUSH1 0xE0 DUP4 ADD MLOAD DUP5 DUP3 SUB PUSH1 0xE0 DUP7 ADD MSTORE PUSH2 0x198A DUP3 DUP3 PUSH2 0x1817 JUMP JUMPDEST SWAP2 POP POP DUP1 SWAP2 POP POP SWAP3 SWAP2 POP POP JUMP JUMPDEST PUSH1 0x0 PUSH1 0x20 DUP3 ADD SWAP1 POP DUP2 DUP2 SUB PUSH1 0x0 DUP4 ADD MSTORE PUSH2 0x19B1 DUP2 DUP5 PUSH2 0x18D9 JUMP JUMPDEST SWAP1 POP SWAP3 SWAP2 POP POP JUMP JUMPDEST PUSH2 0x19C2 DUP2 PUSH2 0x16D7 JUMP JUMPDEST DUP3 MSTORE POP POP JUMP JUMPDEST PUSH1 0x0 PUSH1 0x20 DUP3 ADD SWAP1 POP PUSH2 0x19DD PUSH1 0x0 DUP4 ADD DUP5 PUSH2 0x19B9 JUMP JUMPDEST SWAP3 SWAP2 POP POP JUMP JUMPDEST PUSH1 0x0 DUP1 REVERT JUMPDEST PUSH1 0x0 DUP1 REVERT JUMPDEST PUSH32 0x4E487B7100000000000000000000000000000000000000000000000000000000 PUSH1 0x0 MSTORE PUSH1 0x41 PUSH1 0x4 MSTORE PUSH1 0x24 PUSH1 0x0 REVERT JUMPDEST PUSH2 0x1A25 DUP3 PUSH2 0x1806 JUMP JUMPDEST DUP2 ADD DUP2 DUP2 LT PUSH8 0xFFFFFFFFFFFFFFFF DUP3 GT OR ISZERO PUSH2 0x1A44 JUMPI PUSH2 0x1A43 PUSH2 0x19ED JUMP JUMPDEST JUMPDEST DUP1 PUSH1 0x40 MSTORE POP POP POP JUMP JUMPDEST PUSH1 0x0 PUSH2 0x1A57 PUSH2 0x16C3 JUMP JUMPDEST SWAP1 POP PUSH2 0x1A63 DUP3 DUP3 PUSH2 0x1A1C JUMP JUMPDEST SWAP2 SWAP1 POP JUMP JUMPDEST PUSH1 0x0 PUSH8 0xFFFFFFFFFFFFFFFF DUP3 GT ISZERO PUSH2 0x1A83 JUMPI PUSH2 0x1A82 PUSH2 0x19ED JUMP JUMPDEST JUMPDEST PUSH2 0x1A8C DUP3 PUSH2 0x1806 JUMP JUMPDEST SWAP1 POP PUSH1 0x20 DUP2 ADD SWAP1 POP SWAP2 SWAP1 POP JUMP JUMPDEST DUP3 DUP2 DUP4 CALLDATACOPY PUSH1 0x0 DUP4 DUP4 ADD MSTORE POP POP POP JUMP JUMPDEST PUSH1 0x0 PUSH2 0x1ABB PUSH2 0x1AB6 DUP5 PUSH2 0x1A68 JUMP JUMPDEST PUSH2 0x1A4D JUMP JUMPDEST SWAP1 POP DUP3 DUP2 MSTORE PUSH1 0x20 DUP2 ADD DUP5 DUP5 DUP5 ADD GT ISZERO PUSH2 0x1AD7 JUMPI PUSH2 0x1AD6 PUSH2 0x19E8 JUMP JUMPDEST JUMPDEST PUSH2 0x1AE2 DUP5 DUP3 DUP6 PUSH2 0x1A99 JUMP JUMPDEST POP SWAP4 SWAP3 POP POP POP JUMP JUMPDEST PUSH1 0x0 DUP3 PUSH1 0x1F DUP4 ADD SLT PUSH2 0x1AFF JUMPI PUSH2 0x1AFE PUSH2 0x19E3 JUMP JUMPDEST JUMPDEST DUP2 CALLDATALOAD PUSH2 0x1B0F DUP5 DUP3 PUSH1 0x20 DUP7 ADD PUSH2 0x1AA8 JUMP JUMPDEST SWAP2 POP POP SWAP3 SWAP2 POP POP JUMP JUMPDEST PUSH1 0x0 PUSH1 0x20 DUP3 DUP5 SUB SLT ISZERO PUSH2 0x1B2E JUMPI PUSH2 0x1B2D PUSH2 0x16CD JUMP JUMPDEST JUMPDEST PUSH1 0x0 DUP3 ADD CALLDATALOAD PUSH8 0xFFFFFFFFFFFFFFFF DUP2 GT ISZERO PUSH2 0x1B4C JUMPI PUSH2 0x1B4B PUSH2 0x16D2 JUMP JUMPDEST JUMPDEST PUSH2 0x1B58 DUP5 DUP3 DUP6 ADD PUSH2 0x1AEA JUMP JUMPDEST SWAP2 POP POP SWAP3 SWAP2 POP POP JUMP JUMPDEST PUSH2 0x1B6A DUP2 PUSH2 0x179F JUMP JUMPDEST DUP3 MSTORE POP POP JUMP JUMPDEST PUSH1 0x0 DUP3 DUP3 MSTORE PUSH1 0x20 DUP3 ADD SWAP1 POP SWAP3 SWAP2 POP POP JUMP JUMPDEST PUSH1 0x0 PUSH2 0x1B8C DUP3 PUSH2 0x17C0 JUMP JUMPDEST PUSH2 0x1B96 DUP2 DUP6 PUSH2 0x1B70 JUMP JUMPDEST SWAP4 POP PUSH2 0x1BA6 DUP2 DUP6 PUSH1 0x20 DUP7 ADD PUSH2 0x17DC JUMP JUMPDEST PUSH2 0x1BAF DUP2 PUSH2 0x1806 JUMP JUMPDEST DUP5 ADD SWAP2 POP POP SWAP3 SWAP2 POP POP JUMP JUMPDEST PUSH2 0x1BC3 DUP2 PUSH2 0x1870 JUMP JUMPDEST DUP3 MSTORE POP POP JUMP JUMPDEST PUSH2 0x1BD2 DUP2 PUSH2 0x18B8 JUMP JUMPDEST DUP3 MSTORE POP POP JUMP JUMPDEST PUSH1 0x0 PUSH2 0x100 DUP3 ADD SWAP1 POP PUSH2 0x1BEE PUSH1 0x0 DUP4 ADD DUP12 PUSH2 0x19B9 JUMP JUMPDEST PUSH2 0x1BFB PUSH1 0x20 DUP4 ADD DUP11 PUSH2 0x1B61 JUMP JUMPDEST DUP2 DUP2 SUB PUSH1 0x40 DUP4 ADD MSTORE PUSH2 0x1C0D DUP2 DUP10 PUSH2 0x1B81 JUMP JUMPDEST SWAP1 POP DUP2 DUP2 SUB PUSH1 0x60 DUP4 ADD MSTORE PUSH2 0x1C21 DUP2 DUP9 PUSH2 0x1B81 JUMP JUMPDEST SWAP1 POP PUSH2 0x1C30 PUSH1 0x80 DUP4 ADD DUP8 PUSH2 0x1BBA JUMP JUMPDEST PUSH2 0x1C3D PUSH1 0xA0 DUP4 ADD DUP7 PUSH2 0x19B9 JUMP JUMPDEST PUSH2 0x1C4A PUSH1 0xC0 DUP4 ADD DUP6 PUSH2 0x1BC9 JUMP JUMPDEST DUP2 DUP2 SUB PUSH1 0xE0 DUP4 ADD MSTORE PUSH2 0x1C5C DUP2 DUP5 PUSH2 0x1B81 JUMP JUMPDEST SWAP1 POP SWAP10 SWAP9 POP POP POP POP POP POP POP POP POP JUMP JUMPDEST PUSH1 0x6 DUP2 LT PUSH2 0x1C78 JUMPI PUSH1 0x0 DUP1 REVERT JUMPDEST POP JUMP JUMPDEST PUSH1 0x0 DUP2 CALLDATALOAD SWAP1 POP PUSH2 0x1C8A DUP2 PUSH2 0x1C6B JUMP JUMPDEST SWAP3 SWAP2 POP POP JUMP JUMPDEST PUSH1 0x0 DUP1 PUSH1 0x0 DUP1 PUSH1 0x80 DUP6 DUP8 SUB SLT ISZERO PUSH2 0x1CAA JUMPI PUSH2 0x1CA9 PUSH2 0x16CD JUMP JUMPDEST JUMPDEST PUSH1 0x0 PUSH2 0x1CB8 DUP8 DUP3 DUP9 ADD PUSH2 0x1C7B JUMP JUMPDEST SWAP5 POP POP PUSH1 0x20 DUP6 ADD CALLDATALOAD PUSH8 0xFFFFFFFFFFFFFFFF DUP2 GT ISZERO PUSH2 0x1CD9 JUMPI PUSH2 0x1CD8 PUSH2 0x16D2 JUMP JUMPDEST JUMPDEST PUSH2 0x1CE5 DUP8 DUP3 DUP9 ADD PUSH2 0x1AEA JUMP JUMPDEST SWAP4 POP POP PUSH1 0x40 DUP6 ADD CALLDATALOAD PUSH8 0xFFFFFFFFFFFFFFFF DUP2 GT ISZERO PUSH2 0x1D06 JUMPI PUSH2 0x1D05 PUSH2 0x16D2 JUMP JUMPDEST JUMPDEST PUSH2 0x1D12 DUP8 DUP3 DUP9 ADD PUSH2 0x1AEA JUMP JUMPDEST SWAP3 POP POP PUSH1 0x60 DUP6 ADD CALLDATALOAD PUSH8 0xFFFFFFFFFFFFFFFF DUP2 GT ISZERO PUSH2 0x1D33 JUMPI PUSH2 0x1D32 PUSH2 0x16D2 JUMP JUMPDEST JUMPDEST PUSH2 0x1D3F DUP8 DUP3 DUP9 ADD PUSH2 0x1AEA JUMP JUMPDEST SWAP2 POP POP SWAP3 SWAP6 SWAP2 SWAP5 POP SWAP3 POP JUMP JUMPDEST PUSH2 0x1D54 DUP2 PUSH2 0x1870 JUMP JUMPDEST DUP2 EQ PUSH2 0x1D5F JUMPI PUSH1 0x0 DUP1 REVERT JUMPDEST POP JUMP JUMPDEST PUSH1 0x0 DUP2 CALLDATALOAD SWAP1 POP PUSH2 0x1D71 DUP2 PUSH2 0x1D4B JUMP JUMPDEST SWAP3 SWAP2 POP POP JUMP JUMPDEST PUSH1 0x0 PUSH1 0x20 DUP3 DUP5 SUB SLT ISZERO PUSH2 0x1D8D JUMPI PUSH2 0x1D8C PUSH2 0x16CD JUMP JUMPDEST JUMPDEST PUSH1 0x0 PUSH2 0x1D9B DUP5 DUP3 DUP6 ADD PUSH2 0x1D62 JUMP JUMPDEST SWAP2 POP POP SWAP3 SWAP2 POP POP JUMP JUMPDEST PUSH1 0x0 DUP2 ISZERO ISZERO SWAP1 POP SWAP2 SWAP1 POP JUMP JUMPDEST PUSH2 0x1DB9 DUP2 PUSH2 0x1DA4 JUMP JUMPDEST DUP3 MSTORE POP POP JUMP JUMPDEST PUSH1 0x0 PUSH1 0x20 DUP3 ADD SWAP1 POP PUSH2 0x1DD4 PUSH1 0x0 DUP4 ADD DUP5 PUSH2 0x1DB0 JUMP JUMPDEST SWAP3 SWAP2 POP POP JUMP JUMPDEST PUSH1 0x0 DUP2 MLOAD SWAP1 POP SWAP2 SWAP1 POP JUMP JUMPDEST PUSH1 0x0 DUP3 DUP3 MSTORE PUSH1 0x20 DUP3 ADD SWAP1 POP SWAP3 SWAP2 POP POP JUMP JUMPDEST PUSH1 0x0 DUP2 SWAP1 POP PUSH1 0x20 DUP3 ADD SWAP1 POP SWAP2 SWAP1 POP JUMP JUMPDEST PUSH1 0x0 PUSH1 0xC0 DUP4 ADD PUSH1 0x0 DUP4 ADD MLOAD PUSH2 0x1E1E PUSH1 0x0 DUP7 ADD DUP3 PUSH2 0x173A JUMP JUMPDEST POP PUSH1 0x20 DUP4 ADD MLOAD PUSH2 0x1E31 PUSH1 0x20 DUP7 ADD DUP3 PUSH2 0x18CA JUMP JUMPDEST POP PUSH1 0x40 DUP4 ADD MLOAD PUSH2 0x1E44 PUSH1 0x40 DUP7 ADD DUP3 PUSH2 0x18CA JUMP JUMPDEST POP PUSH1 0x60 DUP4 ADD MLOAD DUP5 DUP3 SUB PUSH1 0x60 DUP7 ADD MSTORE PUSH2 0x1E5C DUP3 DUP3 PUSH2 0x1817 JUMP JUMPDEST SWAP2 POP POP PUSH1 0x80 DUP4 ADD MLOAD PUSH2 0x1E71 PUSH1 0x80 DUP7 ADD DUP3 PUSH2 0x1882 JUMP JUMPDEST POP PUSH1 0xA0 DUP4 ADD MLOAD PUSH2 0x1E84 PUSH1 0xA0 DUP7 ADD DUP3 PUSH2 0x173A JUMP JUMPDEST POP DUP1 SWAP2 POP POP SWAP3 SWAP2 POP POP JUMP JUMPDEST PUSH1 0x0 PUSH2 0x1E9B DUP4 DUP4 PUSH2 0x1E06 JUMP JUMPDEST SWAP1 POP SWAP3 SWAP2 POP POP JUMP JUMPDEST PUSH1 0x0 PUSH1 0x20 DUP3 ADD SWAP1 POP SWAP2 SWAP1 POP JUMP JUMPDEST PUSH1 0x0 PUSH2 0x1EBB DUP3 PUSH2 0x1DDA JUMP JUMPDEST PUSH2 0x1EC5 DUP2 DUP6 PUSH2 0x1DE5 JUMP JUMPDEST SWAP4 POP DUP4 PUSH1 0x20 DUP3 MUL DUP6 ADD PUSH2 0x1ED7 DUP6 PUSH2 0x1DF6 JUMP JUMPDEST DUP1 PUSH1 0x0 JUMPDEST DUP6 DUP2 LT ISZERO PUSH2 0x1F13 JUMPI DUP5 DUP5 SUB DUP10 MSTORE DUP2 MLOAD PUSH2 0x1EF4 DUP6 DUP3 PUSH2 0x1E8F JUMP JUMPDEST SWAP5 POP PUSH2 0x1EFF DUP4 PUSH2 0x1EA3 JUMP JUMPDEST SWAP3 POP PUSH1 0x20 DUP11 ADD SWAP10 POP POP PUSH1 0x1 DUP2 ADD SWAP1 POP PUSH2 0x1EDB JUMP JUMPDEST POP DUP3 SWAP8 POP DUP8 SWAP6 POP POP POP POP POP POP SWAP3 SWAP2 POP POP JUMP JUMPDEST PUSH1 0x0 PUSH1 0x20 DUP3 ADD SWAP1 POP DUP2 DUP2 SUB PUSH1 0x0 DUP4 ADD MSTORE PUSH2 0x1F3F DUP2 DUP5 PUSH2 0x1EB0 JUMP JUMPDEST SWAP1 POP SWAP3 SWAP2 POP POP JUMP JUMPDEST PUSH1 0x0 DUP1 PUSH1 0x40 DUP4 DUP6 SUB SLT ISZERO PUSH2 0x1F5E JUMPI PUSH2 0x1F5D PUSH2 0x16CD JUMP JUMPDEST JUMPDEST PUSH1 0x0 PUSH2 0x1F6C DUP6 DUP3 DUP7 ADD PUSH2 0x16F8 JUMP JUMPDEST SWAP3 POP POP PUSH1 0x20 DUP4 ADD CALLDATALOAD PUSH8 0xFFFFFFFFFFFFFFFF DUP2 GT ISZERO PUSH2 0x1F8D JUMPI PUSH2 0x1F8C PUSH2 0x16D2 JUMP JUMPDEST JUMPDEST PUSH2 0x1F99 DUP6 DUP3 DUP7 ADD PUSH2 0x1AEA JUMP JUMPDEST SWAP2 POP POP SWAP3 POP SWAP3 SWAP1 POP JUMP JUMPDEST PUSH1 0x5 DUP2 LT PUSH2 0x1FB0 JUMPI PUSH1 0x0 DUP1 REVERT JUMPDEST POP JUMP JUMPDEST PUSH1 0x0 DUP2 CALLDATALOAD SWAP1 POP PUSH2 0x1FC2 DUP2 PUSH2 0x1FA3 JUMP JUMPDEST SWAP3 SWAP2 POP POP JUMP JUMPDEST PUSH1 0x0 DUP1 PUSH1 0x0 PUSH1 0x60 DUP5 DUP7 SUB SLT ISZERO PUSH2 0x1FE1 JUMPI PUSH2 0x1FE0 PUSH2 0x16CD JUMP JUMPDEST JUMPDEST PUSH1 0x0 PUSH2 0x1FEF DUP7 DUP3 DUP8 ADD PUSH2 0x16F8 JUMP JUMPDEST SWAP4 POP POP PUSH1 0x20 PUSH2 0x2000 DUP7 DUP3 DUP8 ADD PUSH2 0x1FB3 JUMP JUMPDEST SWAP3 POP POP PUSH1 0x40 DUP5 ADD CALLDATALOAD PUSH8 0xFFFFFFFFFFFFFFFF DUP2 GT ISZERO PUSH2 0x2021 JUMPI PUSH2 0x2020 PUSH2 0x16D2 JUMP JUMPDEST JUMPDEST PUSH2 0x202D DUP7 DUP3 DUP8 ADD PUSH2 0x1AEA JUMP JUMPDEST SWAP2 POP POP SWAP3 POP SWAP3 POP SWAP3 JUMP JUMPDEST PUSH1 0x0 PUSH1 0x20 DUP3 ADD SWAP1 POP PUSH2 0x204C PUSH1 0x0 DUP4 ADD DUP5 PUSH2 0x1BBA JUMP JUMPDEST SWAP3 SWAP2 POP POP JUMP JUMPDEST PUSH1 0x0 DUP1 PUSH1 0x40 DUP4 DUP6 SUB SLT ISZERO PUSH2 0x2069 JUMPI PUSH2 0x2068 PUSH2 0x16CD JUMP JUMPDEST JUMPDEST PUSH1 0x0 PUSH2 0x2077 DUP6 DUP3 DUP7 ADD PUSH2 0x16F8 JUMP JUMPDEST SWAP3 POP POP PUSH1 0x20 PUSH2 0x2088 DUP6 DUP3 DUP7 ADD PUSH2 0x16F8 JUMP JUMPDEST SWAP2 POP POP SWAP3 POP SWAP3 SWAP1 POP JUMP JUMPDEST PUSH1 0x0 PUSH1 0xC0 DUP3 ADD SWAP1 POP PUSH2 0x20A7 PUSH1 0x0 DUP4 ADD DUP10 PUSH2 0x19B9 JUMP JUMPDEST PUSH2 0x20B4 PUSH1 0x20 DUP4 ADD DUP9 PUSH2 0x1BC9 JUMP JUMPDEST PUSH2 0x20C1 PUSH1 0x40 DUP4 ADD DUP8 PUSH2 0x1BC9 JUMP JUMPDEST DUP2 DUP2 SUB PUSH1 0x60 DUP4 ADD MSTORE PUSH2 0x20D3 DUP2 DUP7 PUSH2 0x1B81 JUMP JUMPDEST SWAP1 POP PUSH2 0x20E2 PUSH1 0x80 DUP4 ADD DUP6 PUSH2 0x1BBA JUMP JUMPDEST PUSH2 0x20EF PUSH1 0xA0 DUP4 ADD DUP5 PUSH2 0x19B9 JUMP JUMPDEST SWAP8 SWAP7 POP POP POP POP POP POP POP JUMP JUMPDEST PUSH2 0x2103 DUP2 PUSH2 0x1DA4 JUMP JUMPDEST DUP2 EQ PUSH2 0x210E JUMPI PUSH1 0x0 DUP1 REVERT JUMPDEST POP JUMP JUMPDEST PUSH1 0x0 DUP2 CALLDATALOAD SWAP1 POP PUSH2 0x2120 DUP2 PUSH2 0x20FA JUMP JUMPDEST SWAP3 SWAP2 POP POP JUMP JUMPDEST PUSH1 0x0 DUP1 PUSH1 0x40 DUP4 DUP6 SUB SLT ISZERO PUSH2 0x213D JUMPI PUSH2 0x213C PUSH2 0x16CD JUMP JUMPDEST JUMPDEST PUSH1 0x0 PUSH2 0x214B DUP6 DUP3 DUP7 ADD PUSH2 0x1D62 JUMP JUMPDEST SWAP3 POP POP PUSH1 0x20 PUSH2 0x215C DUP6 DUP3 DUP7 ADD PUSH2 0x2111 JUMP JUMPDEST SWAP2 POP POP SWAP3 POP SWAP3 SWAP1 POP JUMP JUMPDEST PUSH32 0x4E487B7100000000000000000000000000000000000000000000000000000000 PUSH1 0x0 MSTORE PUSH1 0x22 PUSH1 0x4 MSTORE PUSH1 0x24 PUSH1 0x0 REVERT JUMPDEST PUSH1 0x0 PUSH1 0x2 DUP3 DIV SWAP1 POP PUSH1 0x1 DUP3 AND DUP1 PUSH2 0x21AD JUMPI PUSH1 0x7F DUP3 AND SWAP2 POP JUMPDEST PUSH1 0x20 DUP3 LT DUP2 SUB PUSH2 0x21C0 JUMPI PUSH2 0x21BF PUSH2 0x2166 JUMP JUMPDEST JUMPDEST POP SWAP2 SWAP1 POP JUMP JUMPDEST PUSH1 0x0 DUP2 SWAP1 POP SWAP3 SWAP2 POP POP JUMP JUMPDEST PUSH1 0x0 PUSH2 0x21DC DUP3 PUSH2 0x17C0 JUMP JUMPDEST PUSH2 0x21E6 DUP2 DUP6 PUSH2 0x21C6 JUMP JUMPDEST SWAP4 POP PUSH2 0x21F6 DUP2 DUP6 PUSH1 0x20 DUP7 ADD PUSH2 0x17DC JUMP JUMPDEST DUP1 DUP5 ADD SWAP2 POP POP SWAP3 SWAP2 POP POP JUMP JUMPDEST PUSH1 0x0 PUSH2 0x220E DUP3 DUP5 PUSH2 0x21D1 JUMP JUMPDEST SWAP2 POP DUP2 SWAP1 POP SWAP3 SWAP2 POP POP JUMP JUMPDEST PUSH32 0x4E6F7420617574686F72697A6564000000000000000000000000000000000000 PUSH1 0x0 DUP3 ADD MSTORE POP JUMP JUMPDEST PUSH1 0x0 PUSH2 0x224F PUSH1 0xE DUP4 PUSH2 0x1B70 JUMP JUMPDEST SWAP2 POP PUSH2 0x225A DUP3 PUSH2 0x2219 JUMP JUMPDEST PUSH1 0x20 DUP3 ADD SWAP1 POP SWAP2 SWAP1 POP JUMP JUMPDEST PUSH1 0x0 PUSH1 0x20 DUP3 ADD SWAP1 POP DUP2 DUP2 SUB PUSH1 0x0 DUP4 ADD MSTORE PUSH2 0x227E DUP2 PUSH2 0x2242 JUMP JUMPDEST SWAP1 POP SWAP2 SWAP1 POP JUMP JUMPDEST PUSH32 0x5265666572656E636520616C7265616479206578697374730000000000000000 PUSH1 0x0 DUP3 ADD MSTORE POP JUMP JUMPDEST PUSH1 0x0 PUSH2 0x22BB PUSH1 0x18 DUP4 PUSH2 0x1B70 JUMP JUMPDEST SWAP2 POP PUSH2 0x22C6 DUP3 PUSH2 0x2285 JUMP JUMPDEST PUSH1 0x20 DUP3 ADD SWAP1 POP SWAP2 SWAP1 POP JUMP JUMPDEST PUSH1 0x0 PUSH1 0x20 DUP3 ADD SWAP1 POP DUP2 DUP2 SUB PUSH1 0x0 DUP4 ADD MSTORE PUSH2 0x22EA DUP2 PUSH2 0x22AE JUMP JUMPDEST SWAP1 POP SWAP2 SWAP1 POP JUMP JUMPDEST PUSH32 0x4E487B7100000000000000000000000000000000000000000000000000000000 PUSH1 0x0 MSTORE PUSH1 0x11 PUSH1 0x4 MSTORE PUSH1 0x24 PUSH1 0x0 REVERT JUMPDEST PUSH1 0x0 PUSH2 0x232B DUP3 PUSH2 0x16D7 JUMP JUMPDEST SWAP2 POP PUSH32 0xFFFFFFFFFFFFFFFFFFFFFFFFFFFFFFFFFFFFFFFFFFFFFFFFFFFFFFFFFFFFFFFF DUP3 SUB PUSH2 0x235D JUMPI PUSH2 0x235C PUSH2 0x22F1 JUMP JUMPDEST JUMPDEST PUSH1 0x1 DUP3 ADD SWAP1 POP SWAP2 SWAP1 POP JUMP JUMPDEST PUSH1 0x0 DUP2 SWAP1 POP DUP2 PUSH1 0x0 MSTORE PUSH1 0x20 PUSH1 0x0 KECCAK256 SWAP1 POP SWAP2 SWAP1 POP JUMP JUMPDEST PUSH1 0x0 PUSH1 0x20 PUSH1 0x1F DUP4 ADD DIV SWAP1 POP SWAP2 SWAP1 POP JUMP JUMPDEST PUSH1 0x0 DUP3 DUP3 SHL SWAP1 POP SWAP3 SWAP2 POP POP JUMP JUMPDEST PUSH1 0x0 PUSH1 0x8 DUP4 MUL PUSH2 0x23CA PUSH32 0xFFFFFFFFFFFFFFFFFFFFFFFFFFFFFFFFFFFFFFFFFFFFFFFFFFFFFFFFFFFFFFFF DUP3 PUSH2 0x238D JUMP JUMPDEST PUSH2 0x23D4 DUP7 DUP4 PUSH2 0x238D JUMP JUMPDEST SWAP6 POP DUP1 NOT DUP5 AND SWAP4 POP DUP1 DUP7 AND DUP5 OR SWAP3 POP POP POP SWAP4 SWAP3 POP POP POP JUMP JUMPDEST PUSH1 0x0 DUP2 SWAP1 POP SWAP2 SWAP1 POP JUMP JUMPDEST PUSH1 0x0 PUSH2 0x2411 PUSH2 0x240C PUSH2 0x2407 DUP5 PUSH2 0x16D7 JUMP JUMPDEST PUSH2 0x23EC JUMP JUMPDEST PUSH2 0x16D7 JUMP JUMPDEST SWAP1 POP SWAP2 SWAP1 POP JUMP JUMPDEST PUSH1 0x0 DUP2 SWAP1 POP SWAP2 SWAP1 POP JUMP JUMPDEST PUSH2 0x242B DUP4 PUSH2 0x23F6 JUMP JUMPDEST PUSH2 0x243F PUSH2 0x2437 DUP3 PUSH2 0x2418 JUMP JUMPDEST DUP5 DUP5 SLOAD PUSH2 0x239A JUMP JUMPDEST DUP3 SSTORE POP POP POP POP JUMP JUMPDEST PUSH1 0x0 SWAP1 JUMP JUMPDEST PUSH2 0x2454 PUSH2 0x2447 JUMP JUMPDEST PUSH2 0x245F DUP2 DUP5 DUP5 PUSH2 0x2422 JUMP JUMPDEST POP POP POP JUMP JUMPDEST JUMPDEST DUP2 DUP2 LT ISZERO PUSH2 0x2483 JUMPI PUSH2 0x2478 PUSH1 0x0 DUP3 PUSH2 0x244C JUMP JUMPDEST PUSH1 0x1 DUP2 ADD SWAP1 POP PUSH2 0x2465 JUMP JUMPDEST POP POP JUMP JUMPDEST PUSH1 0x1F DUP3 GT ISZERO PUSH2 0x24C8 JUMPI PUSH2 0x2499 DUP2 PUSH2 0x2368 JUMP JUMPDEST PUSH2 0x24A2 DUP5 PUSH2 0x237D JUMP JUMPDEST DUP2 ADD PUSH1 0x20 DUP6 LT ISZERO PUSH2 0x24B1 JUMPI DUP2 SWAP1 POP JUMPDEST PUSH2 0x24C5 PUSH2 0x24BD DUP6 PUSH2 0x237D JUMP JUMPDEST DUP4 ADD DUP3 PUSH2 0x2464 JUMP JUMPDEST POP POP JUMPDEST POP POP POP JUMP JUMPDEST PUSH1 0x0 DUP3 DUP3 SHR SWAP1 POP SWAP3 SWAP2 POP POP JUMP JUMPDEST PUSH1 0x0 PUSH2 0x24EB PUSH1 0x0 NOT DUP5 PUSH1 0x8 MUL PUSH2 0x24CD JUMP JUMPDEST NOT DUP1 DUP4 AND SWAP2 POP POP SWAP3 SWAP2 POP POP JUMP JUMPDEST PUSH1 0x0 PUSH2 0x2504 DUP4 DUP4 PUSH2 0x24DA JUMP JUMPDEST SWAP2 POP DUP3 PUSH1 0x2 MUL DUP3 OR SWAP1 POP SWAP3 SWAP2 POP POP JUMP JUMPDEST PUSH2 0x251D DUP3 PUSH2 0x17C0 JUMP JUMPDEST PUSH8 0xFFFFFFFFFFFFFFFF DUP2 GT ISZERO PUSH2 0x2536 JUMPI PUSH2 0x2535 PUSH2 0x19ED JUMP JUMPDEST JUMPDEST PUSH2 0x2540 DUP3 SLOAD PUSH2 0x2195 JUMP JUMPDEST PUSH2 0x254B DUP3 DUP3 DUP6 PUSH2 0x2487 JUMP JUMPDEST PUSH1 0x0 PUSH1 0x20 SWAP1 POP PUSH1 0x1F DUP4 GT PUSH1 0x1 DUP2 EQ PUSH2 0x257E JUMPI PUSH1 0x0 DUP5 ISZERO PUSH2 0x256C JUMPI DUP3 DUP8 ADD MLOAD SWAP1 POP JUMPDEST PUSH2 0x2576 DUP6 DUP3 PUSH2 0x24F8 JUMP JUMPDEST DUP7 SSTORE POP PUSH2 0x25DE JUMP JUMPDEST PUSH1 0x1F NOT DUP5 AND PUSH2 0x258C DUP7 PUSH2 0x2368 JUMP JUMPDEST PUSH1 0x0 JUMPDEST DUP3 DUP2 LT ISZERO PUSH2 0x25B4 JUMPI DUP5 DUP10 ADD MLOAD DUP3 SSTORE PUSH1 0x1 DUP3 ADD SWAP2 POP PUSH1 0x20 DUP6 ADD SWAP5 POP PUSH1 0x20 DUP2 ADD SWAP1 POP PUSH2 0x258F JUMP JUMPDEST DUP7 DUP4 LT ISZERO PUSH2 0x25D1 JUMPI DUP5 DUP10 ADD MLOAD PUSH2 0x25CD PUSH1 0x1F DUP10 AND DUP3 PUSH2 0x24DA JUMP JUMPDEST DUP4 SSTORE POP JUMPDEST PUSH1 0x1 PUSH1 0x2 DUP9 MUL ADD DUP9 SSTORE POP POP POP JUMPDEST POP POP POP POP POP POP JUMP JUMPDEST PUSH1 0x0 PUSH1 0x80 DUP3 ADD SWAP1 POP PUSH2 0x25FB PUSH1 0x0 DUP4 ADD DUP8 PUSH2 0x1B61 JUMP JUMPDEST DUP2 DUP2 SUB PUSH1 0x20 DUP4 ADD MSTORE PUSH2 0x260D DUP2 DUP7 PUSH2 0x1B81 JUMP JUMPDEST SWAP1 POP DUP2 DUP2 SUB PUSH1 0x40 DUP4 ADD MSTORE PUSH2 0x2621 DUP2 DUP6 PUSH2 0x1B81 JUMP JUMPDEST SWAP1 POP PUSH2 0x2630 PUSH1 0x60 DUP4 ADD DUP5 PUSH2 0x19B9 JUMP JUMPDEST SWAP6 SWAP5 POP POP POP POP POP JUMP JUMPDEST PUSH1 0x0 DUP2 SWAP1 POP SWAP3 SWAP2 POP POP JUMP JUMPDEST PUSH1 0x0 DUP2 SWAP1 POP DUP2 PUSH1 0x0 MSTORE PUSH1 0x20 PUSH1 0x0 KECCAK256 SWAP1 POP SWAP2 SWAP1 POP JUMP JUMPDEST PUSH1 0x0 DUP2 SLOAD PUSH2 0x2666 DUP2 PUSH2 0x2195 JUMP JUMPDEST PUSH2 0x2670 DUP2 DUP7 PUSH2 0x2639 JUMP JUMPDEST SWAP5 POP PUSH1 0x1 DUP3 AND PUSH1 0x0 DUP2 EQ PUSH2 0x268B JUMPI PUSH1 0x1 DUP2 EQ PUSH2 0x26A0 JUMPI PUSH2 0x26D3 JUMP JUMPDEST PUSH1 0xFF NOT DUP4 AND DUP7 MSTORE DUP2 ISZERO ISZERO DUP3 MUL DUP7 ADD SWAP4 POP PUSH2 0x26D3 JUMP JUMPDEST PUSH2 0x26A9 DUP6 PUSH2 0x2644 JUMP JUMPDEST PUSH1 0x0 JUMPDEST DUP4 DUP2 LT ISZERO PUSH2 0x26CB JUMPI DUP2 SLOAD DUP2 DUP10 ADD MSTORE PUSH1 0x1 DUP3 ADD SWAP2 POP PUSH1 0x20 DUP2 ADD SWAP1 POP PUSH2 0x26AC JUMP JUMPDEST DUP4 DUP9 ADD SWAP6 POP POP POP JUMPDEST POP POP POP SWAP3 SWAP2 POP POP JUMP JUMPDEST PUSH1 0x0 PUSH2 0x26E8 DUP3 DUP5 PUSH2 0x2659 JUMP JUMPDEST SWAP2 POP DUP2 SWAP1 POP SWAP3 SWAP2 POP POP JUMP JUMPDEST PUSH32 0x496E76616C6964207265636F7264000000000000000000000000000000000000 PUSH1 0x0 DUP3 ADD MSTORE POP JUMP JUMPDEST PUSH1 0x0 PUSH2 0x2729 PUSH1 0xE DUP4 PUSH2 0x1B70 JUMP JUMPDEST SWAP2 POP PUSH2 0x2734 DUP3 PUSH2 0x26F3 JUMP JUMPDEST PUSH1 0x20 DUP3 ADD SWAP1 POP SWAP2 SWAP1 POP JUMP JUMPDEST PUSH1 0x0 PUSH1 0x20 DUP3 ADD SWAP1 POP DUP2 DUP2 SUB PUSH1 0x0 DUP4 ADD MSTORE PUSH2 0x2758 DUP2 PUSH2 0x271C JUMP JUMPDEST SWAP1 POP SWAP2 SWAP1 POP JUMP JUMPDEST PUSH1 0x0 PUSH1 0x80 DUP3 ADD SWAP1 POP PUSH2 0x2774 PUSH1 0x0 DUP4 ADD DUP8 PUSH2 0x1BC9 JUMP JUMPDEST PUSH2 0x2781 PUSH1 0x20 DUP4 ADD DUP7 PUSH2 0x1BC9 JUMP JUMPDEST PUSH2 0x278E PUSH1 0x40 DUP4 ADD DUP6 PUSH2 0x1BBA JUMP JUMPDEST PUSH2 0x279B PUSH1 0x60 DUP4 ADD DUP5 PUSH2 0x19B9 JUMP JUMPDEST SWAP6 SWAP5 POP POP POP POP POP JUMP JUMPDEST PUSH32 0x4E6F74206F776E65720000000000000000000000000000000000000000000000 PUSH1 0x0 DUP3 ADD MSTORE POP JUMP JUMPDEST PUSH1 0x0 PUSH2 0x27DA PUSH1 0x9 DUP4 PUSH2 0x1B70 JUMP JUMPDEST SWAP2 POP PUSH2 0x27E5 DUP3 PUSH2 0x27A4 JUMP JUMPDEST PUSH1 0x20 DUP3 ADD SWAP1 POP SWAP2 SWAP1 POP JUMP JUMPDEST PUSH1 0x0 PUSH1 0x20 DUP3 ADD SWAP1 POP DUP2 DUP2 SUB PUSH1 0x0 DUP4 ADD MSTORE PUSH2 0x2809 DUP2 PUSH2 0x27CD JUMP JUMPDEST SWAP1 POP SWAP2 SWAP1 POP JUMP JUMPDEST PUSH1 0x0 PUSH1 0x40 DUP3 ADD SWAP1 POP PUSH2 0x2825 PUSH1 0x0 DUP4 ADD DUP6 PUSH2 0x1BBA JUMP JUMPDEST PUSH2 0x2832 PUSH1 0x20 DUP4 ADD DUP5 PUSH2 0x1DB0 JUMP JUMPDEST SWAP4 SWAP3 POP POP POP JUMP INVALID LOG2 PUSH5 0x6970667358 0x22 SLT KECCAK256 0x28 MUL BLOCKHASH DUP11 SWAP7 0xD5 0x4C PUSH15 0xF0DE3B0AAA3A5906F0212AE2742C1E 0xC3 0xC1 LOG2 DELEGATECALL COINBASE CALLVALUE CODESIZE DUP1 0xE8 PUSH5 0x736F6C6343 STOP ADDMOD EQ STOP CALLER "},"methodIdentifiers":{"authorizeWriter(address,bool)":"d215e128","authorizedWriters(address)":"526241a8","createRecord(uint8,string,string,string)":"3ca4036b","getRecord(uint256)":"03e9e609","getRecordByReference(string)":"2e302ce1","getStatusHistory(uint256)":"58a20b3b","getTotalRecords()":"0aeacb5e","owner()":"8da5cb5b","records(uint256)":"34461067","referenceToId(string)":"58260188","statusHistory(uint256,uint256)":"a6ec1215","updateStatus(uint256,uint8,string)":"781f0b72","verifyDataHash(uint256,string)":"6f136953"}}}}}