{"contracts/StockVerifier.sol":{"StockVerifier":{"abi":[{"inputs":[],"stateMutability":"nonpayable","type":"constructor"},{"anonymous":false,"inputs":[{"indexed":false,"internalType":"uint256","name":"id","type":"uint256"},{"indexed":false,"internalType":"string","name":"productCode","type":"string"},{"indexed":false,"internalType":"uint256","name":"quantity","type":"uint256"},{"indexed":false,"internalType":"string","name":"moveType","type":"string"},{"indexed":false,"internalType":"uint256","name":"timestamp","type":"uint256"}],"name":"StockMoveRecorded","type":"event"},{"anonymous":false,"inputs":[{"indexed":false,"internalType":"address","name":"writer","type":"address"},{"indexed":false,"internalType":"bool","name":"status","type":"bool"}],"name":"WriterAuthorized","type":"event"},{"inputs":[{"internalType":"address","name":"_writer","type":"address"},{"internalType":"bool","name":"_status","type":"bool"}],"name":"authorizeWriter","outputs":[],"stateMutability":"nonpayable","type":"function"},{"inputs":[{"internalType":"address","name":"","type":"address"}],"name":"authorizedWriters","outputs":[{"internalType":"bool","name":"","type":"bool"}],"stateMutability":"view","type":"function"},{"inputs":[{"internalType":"uint256","name":"","type":"uint256"}],"name":"entries","outputs":[{"internalType":"string","name":"moveReference","type":"string"},{"internalType":"string","name":"productCode","type":"string"},{"internalType":"string","name":"fromLocation","type":"string"},{"internalType":"string","name":"toLocation","type":"string"},{"internalType":"uint256","name":"quantity","type":"uint256"},{"internalType":"string","name":"uom","type":"string"},{"internalType":"string","name":"dataHash","type":"string"},{"internalType":"address","name":"recordedBy","type":"address"},{"internalType":"uint256","name":"timestamp","type":"uint256"},{"internalType":"string","name":"moveType","type":"string"}],"stateMutability":"view","type":"function"},{"inputs":[{"internalType":"string","name":"productCode","type":"string"}],"name":"getProductHistory","outputs":[{"components":[{"internalType":"string","name":"moveReference","type":"string"},{"internalType":"string","name":"productCode","type":"string"},{"internalType":"string","name":"fromLocation","type":"string"},{"internalType":"string","name":"toLocation","type":"string"},{"internalType":"uint256","name":"quantity","type":"uint256"},{"internalType":"string","name":"uom","type":"string"},{"internalType":"string","name":"dataHash","type":"string"},{"internalType":"address","name":"recordedBy","type":"address"},{"internalType":"uint256","name":"timestamp","type":"uint256"},{"internalType":"string","name":"moveType","type":"string"}],"internalType":"struct StockVerifier.StockEntry[]","name":"","type":"tuple[]"}],"stateMutability":"view","type":"function"},{"inputs":[{"internalType":"string","name":"productCode","type":"string"}],"name":"getTotalMovesForProduct","outputs":[{"internalType":"uint256","name":"","type":"uint256"}],"stateMutability":"view","type":"function"},{"inputs":[],"name":"owner","outputs":[{"internalType":"address","name":"","type":"address"}],"stateMutability":"view","type":"function"},{"inputs":[{"internalType":"string","name":"","type":"string"},{"internalType":"uint256","name":"","type":"uint256"}],"name":"productHistory","outputs":[{"internalType":"uint256","name":"","type":"uint256"}],"stateMutability":"view","type":"function"},{"inputs":[{"internalType":"string","name":"_moveReference","type":"string"},{"internalType":"string","name":"_productCode","type":"string"},{"internalType":"string","name":"_fromLocation","type":"string"},{"internalType":"string","name":"_toLocation","type":"string"},{"internalType":"uint256","name":"_quantity","type":"uint256"},{"internalType":"string","name":"_uom","type":"string"},{"internalType":"string","name":"_dataHash","type":"string"},{"internalType":"string","name":"_moveType","type":"string"}],"name":"recordStockMove","outputs":[{"internalType":"uint256","name":"","type":"uint256"}],"stateMutability":"nonpayable","type":"function"}],"evm":{"bytecode":{"linkReferences":{},"object":"608060405234801561001057600080fd5b5033600460006101000a81548173ffffffffffffffffffffffffffffffffffffffff021916908373ffffffffffffffffffffffffffffffffffffffff1602179055506001600360003373ffffffffffffffffffffffffffffffffffffffff1673ffffffffffffffffffffffffffffffffffffffff16815260200190815260200160002060006101000a81548160ff021916908315150217905550611f7e806100b96000396000f3fe608060405234801561001057600080fd5b50600436106100885760003560e01c8063b30906d41161005b578063b30906d41461013b578063c0b5c32a14610174578063d215e128146101a4578063d4f50453146101c057610088565b806301970b111461008d578063526241a8146100bd5780638da5cb5b146100ed57806398283f8e1461010b575b600080fd5b6100a760048036038101906100a291906112a6565b6101f0565b6040516100b49190611311565b60405180910390f35b6100d760048036038101906100d2919061138a565b610237565b6040516100e491906113d2565b60405180910390f35b6100f5610257565b60405161010291906113fc565b60405180910390f35b61012560048036038101906101209190611417565b61027d565b6040516101329190611311565b60405180910390f35b61015560048036038101906101509190611591565b61057d565b60405161016b9a9998979695949392919061163d565b60405180910390f35b61018e6004803603810190610189919061170a565b6109a9565b60405161019b9190611311565b60405180910390f35b6101be60048036038101906101b9919061177f565b6109d4565b005b6101da60048036038101906101d5919061170a565b610af8565b6040516101e791906119ed565b60405180910390f35b600282805160208101820180518482526020830160208501208183528095505050505050818154811061022257600080fd5b90600052602060002001600091509150505481565b60036020528060005260406000206000915054906101000a900460ff1681565b600460009054906101000a900473ffffffffffffffffffffffffffffffffffffffff1681565b6000600360003373ffffffffffffffffffffffffffffffffffffffff1673ffffffffffffffffffffffffffffffffffffffff16815260200190815260200160002060009054906101000a900460ff16806103245750600460009054906101000a900473ffffffffffffffffffffffffffffffffffffffff1673ffffffffffffffffffffffffffffffffffffffff163373ffffffffffffffffffffffffffffffffffffffff16145b610363576040517f08c379a000000000000000000000000000000000000000000000000000000000815260040161035a90611a5b565b60405180910390fd5b60008081548092919061037590611aaa565b91905055506000805490506040518061014001604052808b81526020018a81526020018981526020018881526020018781526020018681526020018581526020013373ffffffffffffffffffffffffffffffffffffffff168152602001428152602001848152506001600083815260200190815260200160002060008201518160000190816104049190611cfe565b50602082015181600101908161041a9190611cfe565b5060408201518160020190816104309190611cfe565b5060608201518160030190816104469190611cfe565b506080820151816004015560a08201518160050190816104669190611cfe565b5060c082015181600601908161047c9190611cfe565b5060e08201518160070160006101000a81548173ffffffffffffffffffffffffffffffffffffffff021916908373ffffffffffffffffffffffffffffffffffffffff16021790555061010082015181600801556101208201518160090190816104e59190611cfe565b509050506002896040516104f99190611e0c565b90815260200160405180910390208190806001815401808255809150506001900390600052602060002001600090919091909150557f885a6e4d74a686c0680a1248e97d325f475b55a25d676d6613bd26c225742ed9818a888642604051610565959493929190611e23565b60405180910390a18091505098975050505050505050565b60016020528060005260406000206000915090508060000180546105a090611b21565b80601f01602080910402602001604051908101604052809291908181526020018280546105cc90611b21565b80156106195780601f106105ee57610100808354040283529160200191610619565b820191906000526020600020905b8154815290600101906020018083116105fc57829003601f168201915b50505050509080600101805461062e90611b21565b80601f016020809104026020016040519081016040528092919081815260200182805461065a90611b21565b80156106a75780601f1061067c576101008083540402835291602001916106a7565b820191906000526020600020905b81548152906001019060200180831161068a57829003601f168201915b5050505050908060020180546106bc90611b21565b80601f01602080910402602001604051908101604052809291908181526020018280546106e890611b21565b80156107355780601f1061070a57610100808354040283529160200191610735565b820191906000526020600020905b81548152906001019060200180831161071857829003601f168201915b50505050509080600301805461074a90611b21565b80601f016020809104026020016040519081016040528092919081815260200182805461077690611b21565b80156107c35780601f10610798576101008083540402835291602001916107c3565b820191906000526020600020905b8154815290600101906020018083116107a657829003601f168201915b5050505050908060040154908060050180546107de90611b21565b80601f016020809104026020016040519081016040528092919081815260200182805461080a90611b21565b80156108575780601f1061082c57610100808354040283529160200191610857565b820191906000526020600020905b81548152906001019060200180831161083a57829003601f168201915b50505050509080600601805461086c90611b21565b80601f016020809104026020016040519081016040528092919081815260200182805461089890611b21565b80156108e55780601f106108ba576101008083540402835291602001916108e5565b820191906000526020600020905b8154815290600101906020018083116108c857829003601f168201915b5050505050908060070160009054906101000a900473ffffffffffffffffffffffffffffffffffffffff169080600801549080600901805461092690611b21565b80601f016020809104026020016040519081016040528092919081815260200182805461095290611b21565b801561099f5780601f106109745761010080835404028352916020019161099f565b820191906000526020600020905b81548152906001019060200180831161098257829003601f168201915b505050505090508a565b60006002826040516109bb9190611e0c565b9081526020016040518091039020805490509050919050565b600460009054906101000a900473ffffffffffffffffffffffffffffffffffffffff1673ffffffffffffffffffffffffffffffffffffffff163373ffffffffffffffffffffffffffffffffffffffff1614610a64576040517f08c379a0000000000000000000000000000000000000000000000000000000008152600401610a5b90611ed0565b60405180910390fd5b80600360008473ffffffffffffffffffffffffffffffffffffffff1673ffffffffffffffffffffffffffffffffffffffff16815260200190815260200160002060006101000a81548160ff0219169083151502179055507fd2c4ec7f557ae9098a570ede160e3b50f2c5864fcddf0dd1da6a1f979016214b8282604051610aec929190611ef0565b60405180910390a15050565b60606000600283604051610b0c9190611e0c565b9081526020016040518091039020805480602002602001604051908101604052809291908181526020018280548015610b6457602002820191906000526020600020905b815481526020019060010190808311610b50575b505050505090506000815167ffffffffffffffff811115610b8857610b87611145565b5b604051908082528060200260200182016040528015610bc157816020015b610bae6110ad565b815260200190600190039081610ba65790505b50905060005b82518110156110a25760016000848381518110610be757610be6611f19565b5b6020026020010151815260200190815260200160002060405180610140016040529081600082018054610c1990611b21565b80601f0160208091040260200160405190810160405280929190818152602001828054610c4590611b21565b8015610c925780601f10610c6757610100808354040283529160200191610c92565b820191906000526020600020905b815481529060010190602001808311610c7557829003601f168201915b50505050508152602001600182018054610cab90611b21565b80601f0160208091040260200160405190810160405280929190818152602001828054610cd790611b21565b8015610d245780601f10610cf957610100808354040283529160200191610d24565b820191906000526020600020905b815481529060010190602001808311610d0757829003601f168201915b50505050508152602001600282018054610d3d90611b21565b80601f0160208091040260200160405190810160405280929190818152602001828054610d6990611b21565b8015610db65780601f10610d8b57610100808354040283529160200191610db6565b820191906000526020600020905b815481529060010190602001808311610d9957829003601f168201915b50505050508152602001600382018054610dcf90611b21565b80601f0160208091040260200160405190810160405280929190818152602001828054610dfb90611b21565b8015610e485780601f10610e1d57610100808354040283529160200191610e48565b820191906000526020600020905b815481529060010190602001808311610e2b57829003601f168201915b5050505050815260200160048201548152602001600582018054610e6b90611b21565b80601f0160208091040260200160405190810160405280929190818152602001828054610e9790611b21565b8015610ee45780601f10610eb957610100808354040283529160200191610ee4565b820191906000526020600020905b815481529060010190602001808311610ec757829003601f168201915b50505050508152602001600682018054610efd90611b21565b80601f0160208091040260200160405190810160405280929190818152602001828054610f2990611b21565b8015610f765780601f10610f4b57610100808354040283529160200191610f76565b820191906000526020600020905b815481529060010190602001808311610f5957829003601f168201915b505050505081526020016007820160009054906101000a900473ffffffffffffffffffffffffffffffffffffffff1673ffffffffffffffffffffffffffffffffffffffff1673ffffffffffffffffffffffffffffffffffffffff16815260200160088201548152602001600982018054610fef90611b21565b80601f016020809104026020016040519081016040528092919081815260200182805461101b90611b21565b80156110685780601f1061103d57610100808354040283529160200191611068565b820191906000526020600020905b81548152906001019060200180831161104b57829003601f168201915b50505050508152505082828151811061108457611083611f19565b5b6020026020010181905250808061109a90611aaa565b915050610bc7565b508092505050919050565b60405180610140016040528060608152602001606081526020016060815260200160608152602001600081526020016060815260200160608152602001600073ffffffffffffffffffffffffffffffffffffffff16815260200160008152602001606081525090565b6000604051905090565b600080fd5b600080fd5b600080fd5b600080fd5b6000601f19601f8301169050919050565b7f4e487b7100000000000000000000000000000000000000000000000000000000600052604160045260246000fd5b61117d82611134565b810181811067ffffffffffffffff8211171561119c5761119b611145565b5b80604052505050565b60006111af611116565b90506111bb8282611174565b919050565b600067ffffffffffffffff8211156111db576111da611145565b5b6111e482611134565b9050602081019050919050565b82818337600083830152505050565b600061121361120e846111c0565b6111a5565b90508281526020810184848401111561122f5761122e61112f565b5b61123a8482856111f1565b509392505050565b600082601f8301126112575761125661112a565b5b8135611267848260208601611200565b91505092915050565b6000819050919050565b61128381611270565b811461128e57600080fd5b50565b6000813590506112a08161127a565b92915050565b600080604083850312156112bd576112bc611120565b5b600083013567ffffffffffffffff8111156112db576112da611125565b5b6112e785828601611242565b92505060206112f885828601611291565b9150509250929050565b61130b81611270565b82525050565b60006020820190506113266000830184611302565b92915050565b600073ffffffffffffffffffffffffffffffffffffffff82169050919050565b60006113578261132c565b9050919050565b6113678161134c565b811461137257600080fd5b50565b6000813590506113848161135e565b92915050565b6000602082840312156113a05761139f611120565b5b60006113ae84828501611375565b91505092915050565b60008115159050919050565b6113cc816113b7565b82525050565b60006020820190506113e760008301846113c3565b92915050565b6113f68161134c565b82525050565b600060208201905061141160008301846113ed565b92915050565b600080600080600080600080610100898b03121561143857611437611120565b5b600089013567ffffffffffffffff81111561145657611455611125565b5b6114628b828c01611242565b985050602089013567ffffffffffffffff81111561148357611482611125565b5b61148f8b828c01611242565b975050604089013567ffffffffffffffff8111156114b0576114af611125565b5b6114bc8b828c01611242565b965050606089013567ffffffffffffffff8111156114dd576114dc611125565b5b6114e98b828c01611242565b95505060806114fa8b828c01611291565b94505060a089013567ffffffffffffffff81111561151b5761151a611125565b5b6115278b828c01611242565b93505060c089013567ffffffffffffffff81111561154857611547611125565b5b6115548b828c01611242565b92505060e089013567ffffffffffffffff81111561157557611574611125565b5b6115818b828c01611242565b9150509295985092959890939650565b6000602082840312156115a7576115a6611120565b5b60006115b584828501611291565b91505092915050565b600081519050919050565b600082825260208201905092915050565b60005b838110156115f85780820151818401526020810190506115dd565b60008484015250505050565b600061160f826115be565b61161981856115c9565b93506116298185602086016115da565b61163281611134565b840191505092915050565b6000610140820190508181036000830152611658818d611604565b9050818103602083015261166c818c611604565b90508181036040830152611680818b611604565b90508181036060830152611694818a611604565b90506116a36080830189611302565b81810360a08301526116b58188611604565b905081810360c08301526116c98187611604565b90506116d860e08301866113ed565b6116e6610100830185611302565b8181036101208301526116f98184611604565b90509b9a5050505050505050505050565b6000602082840312156117205761171f611120565b5b600082013567ffffffffffffffff81111561173e5761173d611125565b5b61174a84828501611242565b91505092915050565b61175c816113b7565b811461176757600080fd5b50565b60008135905061177981611753565b92915050565b6000806040838503121561179657611795611120565b5b60006117a485828601611375565b92505060206117b58582860161176a565b9150509250929050565b600081519050919050565b600082825260208201905092915050565b6000819050602082019050919050565b600082825260208201905092915050565b6000611807826115be565b61181181856117eb565b93506118218185602086016115da565b61182a81611134565b840191505092915050565b61183e81611270565b82525050565b61184d8161134c565b82525050565b600061014083016000830151848203600086015261187182826117fc565b9150506020830151848203602086015261188b82826117fc565b915050604083015184820360408601526118a582826117fc565b915050606083015184820360608601526118bf82826117fc565b91505060808301516118d46080860182611835565b5060a083015184820360a08601526118ec82826117fc565b91505060c083015184820360c086015261190682826117fc565b91505060e083015161191b60e0860182611844565b50610100830151611930610100860182611835565b5061012083015184820361012086015261194a82826117fc565b9150508091505092915050565b60006119638383611853565b905092915050565b6000602082019050919050565b6000611983826117bf565b61198d81856117ca565b93508360208202850161199f856117db565b8060005b858110156119db57848403895281516119bc8582611957565b94506119c78361196b565b925060208a019950506001810190506119a3565b50829750879550505050505092915050565b60006020820190508181036000830152611a078184611978565b905092915050565b7f4e6f7420617574686f72697a6564000000000000000000000000000000000000600082015250565b6000611a45600e836115c9565b9150611a5082611a0f565b602082019050919050565b60006020820190508181036000830152611a7481611a38565b9050919050565b7f4e487b7100000000000000000000000000000000000000000000000000000000600052601160045260246000fd5b6000611ab582611270565b91507fffffffffffffffffffffffffffffffffffffffffffffffffffffffffffffffff8203611ae757611ae6611a7b565b5b600182019050919050565b7f4e487b7100000000000000000000000000000000000000000000000000000000600052602260045260246000fd5b60006002820490506001821680611b3957607f821691505b602082108103611b4c57611b4b611af2565b5b50919050565b60008190508160005260206000209050919050565b60006020601f8301049050919050565b600082821b905092915050565b600060088302611bb47fffffffffffffffffffffffffffffffffffffffffffffffffffffffffffffffff82611b77565b611bbe8683611b77565b95508019841693508086168417925050509392505050565b6000819050919050565b6000611bfb611bf6611bf184611270565b611bd6565b611270565b9050919050565b6000819050919050565b611c1583611be0565b611c29611c2182611c02565b848454611b84565b825550505050565b600090565b611c3e611c31565b611c49818484611c0c565b505050565b5b81811015611c6d57611c62600082611c36565b600181019050611c4f565b5050565b601f821115611cb257611c8381611b52565b611c8c84611b67565b81016020851015611c9b578190505b611caf611ca785611b67565b830182611c4e565b50505b505050565b600082821c905092915050565b6000611cd560001984600802611cb7565b1980831691505092915050565b6000611cee8383611cc4565b9150826002028217905092915050565b611d07826115be565b67ffffffffffffffff811115611d2057611d1f611145565b5b611d2a8254611b21565b611d35828285611c71565b600060209050601f831160018114611d685760008415611d56578287015190505b611d608582611ce2565b865550611dc8565b601f198416611d7686611b52565b60005b82811015611d9e57848901518255600182019150602085019450602081019050611d79565b86831015611dbb5784890151611db7601f891682611cc4565b8355505b6001600288020188555050505b505050505050565b600081905092915050565b6000611de6826115be565b611df08185611dd0565b9350611e008185602086016115da565b80840191505092915050565b6000611e188284611ddb565b915081905092915050565b600060a082019050611e386000830188611302565b8181036020830152611e4a8187611604565b9050611e596040830186611302565b8181036060830152611e6b8185611604565b9050611e7a6080830184611302565b9695505050505050565b7f4e6f74206f776e65720000000000000000000000000000000000000000000000600082015250565b6000611eba6009836115c9565b9150611ec582611e84565b602082019050919050565b60006020820190508181036000830152611ee981611ead565b9050919050565b6000604082019050611f0560008301856113ed565b611f1260208301846113c3565b9392505050565b7f4e487b7100000000000000000000000000000000000000000000000000000000600052603260045260246000fdfea2646970667358221220fdeb032eee9d0cf6d41f0fa6aa7836d3e7435995bbbb3795d416fc2d489d791164736f6c63430008140033","opcodes":"PUSH1 0x80 PUSH1 0x40 MSTORE CALLVALUE DUP1 ISZERO PUSH2 0x10 JUMPI PUSH1 0x0 DUP1 REVERT JUMPDEST POP CALLER PUSH1 0x4 PUSH1 0x0 PUSH2 0x100 EXP DUP2 SLOAD DUP2 PUSH20 0xFFFFFFFFFFFFFFFFFFFFFFFFFFFFFFFFFFFFFFFF MUL NOT AND SWAP1 DUP4 PUSH20 0xFFFFFFFFFFFFFFFFFFFFFFFFFFFFFFFFFFFFFFFF AND MUL OR SWAP1 SSTORE POP PUSH1 0x1 PUSH1 0x3 PUSH1 0x0 CALLER PUSH20 0xFFFFFFFFFFFFFFFFFFFFFFFFFFFFFFFFFFFFFFFF AND PUSH20 0xFFFFFFFFFFFFFFFFFFFFFFFFFFFFFFFFFFFFFFFF AND DUP2 MSTORE PUSH1 0x20 ADD SWAP1 DUP2 MSTORE PUSH1 0x20 ADD PUSH1 0x0 KECCAK256 PUSH1 0x0 PUSH2 0x100 EXP DUP2 SLOAD DUP2 PUSH1 0xFF MUL NOT AND SWAP1 DUP4 ISZERO ISZERO MUL OR SWAP1 SSTORE POP PUSH2 0x1F7E DUP1 PUSH2 0xB9 PUSH1 0x0 CODECOPY PUSH1 0x0 RETURN INVALID PUSH1 0x80 PUSH1 0x40 MSTORE CALLVALUE DUP1 ISZERO PUSH2 0x10 JUMPI PUSH1 0x0 DUP1 REVERT JUMPDEST POP PUSH1 0x4 CALLDATASIZE LT PUSH2 0x88 JUMPI PUSH1 0x0 CALLDATALOAD PUSH1 0xE0 SHR DUP1 PUSH4 0xB30906D4 GT PUSH2 0x5B JUMPI DUP1 PUSH4 0xB30906D4 EQ PUSH2 0x13B JUMPI DUP1 PUSH4 0xC0B5C32A EQ PUSH2 0x174 JUMPI DUP1 PUSH4 0xD215E128 EQ PUSH2 0x1A4 JUMPI DUP1 PUSH4 0xD4F50453 EQ PUSH2 0x1C0 JUMPI PUSH2 0x88 JUMP JUMPDEST DUP1 PUSH4 0x1970B11 EQ PUSH2 0x8D JUMPI DUP1 PUSH4 0x526241A8 EQ PUSH2 0xBD JUMPI DUP1 PUSH4 0x8DA5CB5B EQ PUSH2 0xED JUMPI DUP1 PUSH4 0x98283F8E EQ PUSH2 0x10B JUMPI JUMPDEST PUSH1 0x0 DUP1 REVERT JUMPDEST PUSH2 0xA7 PUSH1 0x4 DUP1 CALLDATASIZE SUB DUP2 ADD SWAP1 PUSH2 0xA2 SWAP2 SWAP1 PUSH2 0x12A6 JUMP JUMPDEST PUSH2 0x1F0 JUMP JUMPDEST PUSH1 0x40 MLOAD PUSH2 0xB4 SWAP2 SWAP1 PUSH2 0x1311 JUMP JUMPDEST PUSH1 0x40 MLOAD DUP1 SWAP2 SUB SWAP1 RETURN JUMPDEST PUSH2 0xD7 PUSH1 0x4 DUP1 CALLDATASIZE SUB DUP2 ADD SWAP1 PUSH2 0xD2 SWAP2 SWAP1 PUSH2 0x138A JUMP JUMPDEST PUSH2 0x237 JUMP JUMPDEST PUSH1 0x40 MLOAD PUSH2 0xE4 SWAP2 SWAP1 PUSH2 0x13D2 JUMP JUMPDEST PUSH1 0x40 MLOAD DUP1 SWAP2 SUB SWAP1 RETURN JUMPDEST PUSH2 0xF5 PUSH2 0x257 JUMP JUMPDEST PUSH1 0x40 MLOAD PUSH2 0x102 SWAP2 SWAP1 PUSH2 0x13FC JUMP JUMPDEST PUSH1 0x40 MLOAD DUP1 SWAP2 SUB SWAP1 RETURN JUMPDEST PUSH2 0x125 PUSH1 0x4 DUP1 CALLDATASIZE SUB DUP2 ADD SWAP1 PUSH2 0x120 SWAP2 SWAP1 PUSH2 0x1417 JUMP JUMPDEST PUSH2 0x27D JUMP JUMPDEST PUSH1 0x40 MLOAD PUSH2 0x132 SWAP2 SWAP1 PUSH2 0x1311 JUMP JUMPDEST PUSH1 0x40 MLOAD DUP1 SWAP2 SUB SWAP1 RETURN JUMPDEST PUSH2 0x155 PUSH1 0x4 DUP1 CALLDATASIZE SUB DUP2 ADD SWAP1 PUSH2 0x150 SWAP2 SWAP1 PUSH2 0x1591 JUMP JUMPDEST PUSH2 0x57D JUMP JUMPDEST PUSH1 0x40 MLOAD PUSH2 0x16B SWAP11 SWAP10 SWAP9 SWAP8 SWAP7 SWAP6 SWAP5 SWAP4 SWAP3 SWAP2 SWAP1 PUSH2 0x163D JUMP JUMPDEST PUSH1 0x40 MLOAD DUP1 SWAP2 SUB SWAP1 RETURN JUMPDEST PUSH2 0x18E PUSH1 0x4 DUP1 CALLDATASIZE SUB DUP2 ADD SWAP1 PUSH2 0x189 SWAP2 SWAP1 PUSH2 0x170A JUMP JUMPDEST PUSH2 0x9A9 JUMP JUMPDEST PUSH1 0x40 MLOAD PUSH2 0x19B SWAP2 SWAP1 PUSH2 0x1311 JUMP JUMPDEST PUSH1 0x40 MLOAD DUP1 SWAP2 SUB SWAP1 RETURN JUMPDEST PUSH2 0x1BE PUSH1 0x4 DUP1 CALLDATASIZE SUB DUP2 ADD SWAP1 PUSH2 0x1B9 SWAP2 SWAP1 PUSH2 0x177F JUMP JUMPDEST PUSH2 0x9D4 JUMP JUMPDEST STOP JUMPDEST PUSH2 0x1DA PUSH1 0x4 DUP1 CALLDATASIZE SUB DUP2 ADD SWAP1 PUSH2 0x1D5 SWAP2 SWAP1 PUSH2 0x170A JUMP JUMPDEST PUSH2 0xAF8 JUMP JUMPDEST PUSH1 0x40 MLOAD PUSH2 0x1E7 SWAP2 SWAP1 PUSH2 0x19ED JUMP JUMPDEST PUSH1 0x40 MLOAD DUP1 SWAP2 SUB SWAP1 RETURN JUMPDEST PUSH1 0x2 DUP3 DUP1 MLOAD PUSH1 0x20 DUP2 ADD DUP3 ADD DUP1 MLOAD DUP5 DUP3 MSTORE PUSH1 0x20 DUP4 ADD PUSH1 0x20 DUP6 ADD KECCAK256 DUP2 DUP4 MSTORE DUP1 SWAP6 POP POP POP POP POP POP DUP2 DUP2 SLOAD DUP2 LT PUSH2 0x222 JUMPI PUSH1 0x0 DUP1 REVERT JUMPDEST SWAP1 PUSH1 0x0 MSTORE PUSH1 0x20 PUSH1 0x0 KECCAK256 ADD PUSH1 0x0 SWAP2 POP SWAP2 POP POP SLOAD DUP2 JUMP JUMPDEST PUSH1 0x3 PUSH1 0x20 MSTORE DUP1 PUSH1 0x0 MSTORE PUSH1 0x40 PUSH1 0x0 KECCAK256 PUSH1 0x0 SWAP2 POP SLOAD SWAP1 PUSH2 0x100 EXP SWAP1 DIV PUSH1 0xFF AND DUP2 JUMP JUMPDEST PUSH1 0x4 PUSH1 0x0 SWAP1 SLOAD SWAP1 PUSH2 0x100 EXP SWAP1 DIV PUSH20 0xFFFFFFFFFFFFFFFFFFFFFFFFFFFFFFFFFFFFFFFF AND DUP2 JUMP JUMPDEST PUSH1 0x0 PUSH1 0x3 PUSH1 0x0 CALLER PUSH20 0xFFFFFFFFFFFFFFFFFFFFFFFFFFFFFFFFFFFFFFFF AND PUSH20 0xFFFFFFFFFFFFFFFFFFFFFFFFFFFFFFFFFFFFFFFF AND DUP2 MSTORE PUSH1 0x20 ADD SWAP1 DUP2 MSTORE PUSH1 0x20 ADD PUSH1 0x0 KECCAK256 PUSH1 0x0 SWAP1 SLOAD SWAP1 PUSH2 0x100 EXP SWAP1 DIV PUSH1 0xFF AND DUP1 PUSH2 0x324 JUMPI POP PUSH1 0x4 PUSH1 0x0 SWAP1 SLOAD SWAP1 PUSH2 0x100 EXP SWAP1 DIV PUSH20 0xFFFFFFFFFFFFFFFFFFFFFFFFFFFFFFFFFFFFFFFF AND PUSH20 0xFFFFFFFFFFFFFFFFFFFFFFFFFFFFFFFFFFFFFFFF AND CALLER PUSH20 0xFFFFFFFFFFFFFFFFFFFFFFFFFFFFFFFFFFFFFFFF AND EQ JUMPDEST PUSH2 0x363 JUMPI PUSH1 0x40 MLOAD PUSH32 0x8C379A000000000000000000000000000000000000000000000000000000000 DUP2 MSTORE PUSH1 0x4 ADD PUSH2 0x35A SWAP1 PUSH2 0x1A5B JUMP JUMPDEST PUSH1 0x40 MLOAD DUP1 SWAP2 SUB SWAP1 REVERT JUMPDEST PUSH1 0x0 DUP1 DUP2 SLOAD DUP1 SWAP3 SWAP2 SWAP1 PUSH2 0x375 SWAP1 PUSH2 0x1AAA JUMP JUMPDEST SWAP2 SWAP1 POP SSTORE POP PUSH1 0x0 DUP1 SLOAD SWAP1 POP PUSH1 0x40 MLOAD DUP1 PUSH2 0x140 ADD PUSH1 0x40 MSTORE DUP1 DUP12 DUP2 MSTORE PUSH1 0x20 ADD DUP11 DUP2 MSTORE PUSH1 0x20 ADD DUP10 DUP2 MSTORE PUSH1 0x20 ADD DUP9 DUP2 MSTORE PUSH1 0x20 ADD DUP8 DUP2 MSTORE PUSH1 0x20 ADD DUP7 DUP2 MSTORE PUSH1 0x20 ADD DUP6 DUP2 MSTORE PUSH1 0x20 ADD CALLER PUSH20 0xFFFFFFFFFFFFFFFFFFFFFFFFFFFFFFFFFFFFFFFF AND DUP2 MSTORE PUSH1 0x20 ADD TIMESTAMP DUP2 MSTORE PUSH1 0x20 ADD DUP5 DUP2 MSTORE POP PUSH1 0x1 PUSH1 0x0 DUP4 DUP2 MSTORE PUSH1 0x20 ADD SWAP1 DUP2 MSTORE PUSH1 0x20 ADD PUSH1 0x0 KECCAK256 PUSH1 0x0 DUP3 ADD MLOAD DUP2 PUSH1 0x0 ADD SWAP1 DUP2 PUSH2 0x404 SWAP2 SWAP1 PUSH2 0x1CFE JUMP JUMPDEST POP PUSH1 0x20 DUP3 ADD MLOAD DUP2 PUSH1 0x1 ADD SWAP1 DUP2 PUSH2 0x41A SWAP2 SWAP1 PUSH2 0x1CFE JUMP JUMPDEST POP PUSH1 0x40 DUP3 ADD MLOAD DUP2 PUSH1 0x2 ADD SWAP1 DUP2 PUSH2 0x430 SWAP2 SWAP1 PUSH2 0x1CFE JUMP JUMPDEST POP PUSH1 0x60 DUP3 ADD MLOAD DUP2 PUSH1 0x3 ADD SWAP1 DUP2 PUSH2 0x446 SWAP2 SWAP1 PUSH2 0x1CFE JUMP JUMPDEST POP PUSH1 0x80 DUP3 ADD MLOAD DUP2 PUSH1 0x4 ADD SSTORE PUSH1 0xA0 DUP3 ADD MLOAD DUP2 PUSH1 0x5 ADD SWAP1 DUP2 PUSH2 0x466 SWAP2 SWAP1 PUSH2 0x1CFE JUMP JUMPDEST POP PUSH1 0xC0 DUP3 ADD MLOAD DUP2 PUSH1 0x6 ADD SWAP1 DUP2 PUSH2 0x47C SWAP2 SWAP1 PUSH2 0x1CFE JUMP JUMPDEST POP PUSH1 0xE0 DUP3 ADD MLOAD DUP2 PUSH1 0x7 ADD PUSH1 0x0 PUSH2 0x100 EXP DUP2 SLOAD DUP2 PUSH20 0xFFFFFFFFFFFFFFFFFFFFFFFFFFFFFFFFFFFFFFFF MUL NOT AND SWAP1 DUP4 PUSH20 0xFFFFFFFFFFFFFFFFFFFFFFFFFFFFFFFFFFFFFFFF AND MUL OR SWAP1 SSTORE POP PUSH2 0x100 DUP3 ADD MLOAD DUP2 PUSH1 0x8 ADD SSTORE PUSH2 0x120 DUP3 ADD MLOAD DUP2 PUSH1 0x9 ADD SWAP1 DUP2 PUSH2 0x4E5 SWAP2 SWAP1 PUSH2 0x1CFE JUMP JUMPDEST POP SWAP1 POP POP PUSH1 0x2 DUP10 PUSH1 0x40 MLOAD PUSH2 0x4F9 SWAP2 SWAP1 PUSH2 0x1E0C JUMP JUMPDEST SWAP1 DUP2 MSTORE PUSH1 0x20 ADD PUSH1 0x40 MLOAD DUP1 SWAP2 SUB SWAP1 KECCAK256 DUP2 SWAP1 DUP1 PUSH1 0x1 DUP2 SLOAD ADD DUP1 DUP3 SSTORE DUP1 SWAP2 POP POP PUSH1 0x1 SWAP1 SUB SWAP1 PUSH1 0x0 MSTORE PUSH1 0x20 PUSH1 0x0 KECCAK256 ADD PUSH1 0x0 SWAP1 SWAP2 SWAP1 SWAP2 SWAP1 SWAP2 POP SSTORE PUSH32 0x885A6E4D74A686C0680A1248E97D325F475B55A25D676D6613BD26C225742ED9 DUP2 DUP11 DUP9 DUP7 TIMESTAMP PUSH1 0x40 MLOAD PUSH2 0x565 SWAP6 SWAP5 SWAP4 SWAP3 SWAP2 SWAP1 PUSH2 0x1E23 JUMP JUMPDEST PUSH1 0x40 MLOAD DUP1 SWAP2 SUB SWAP1 LOG1 DUP1 SWAP2 POP POP SWAP9 SWAP8 POP POP POP POP POP POP POP POP JUMP JUMPDEST PUSH1 0x1 PUSH1 0x20 MSTORE DUP1 PUSH1 0x0 MSTORE PUSH1 0x40 PUSH1 0x0 KECCAK256 PUSH1 0x0 SWAP2 POP SWAP1 POP DUP1 PUSH1 0x0 ADD DUP1 SLOAD PUSH2 0x5A0 SWAP1 PUSH2 0x1B21 JUMP JUMPDEST DUP1 PUSH1 0x1F ADD PUSH1 0x20 DUP1 SWAP2 DIV MUL PUSH1 0x20 ADD PUSH1 0x40 MLOAD SWAP1 DUP2 ADD PUSH1 0x40 MSTORE DUP1 SWAP3 SWAP2 SWAP1 DUP2 DUP2 MSTORE PUSH1 0x20 ADD DUP3 DUP1 SLOAD PUSH2 0x5CC SWAP1 PUSH2 0x1B21 JUMP JUMPDEST DUP1 ISZERO PUSH2 0x619 JUMPI DUP1 PUSH1 0x1F LT PUSH2 0x5EE JUMPI PUSH2 0x100 DUP1 DUP4 SLOAD DIV MUL DUP4 MSTORE SWAP2 PUSH1 0x20 ADD SWAP2 PUSH2 0x619 JUMP JUMPDEST DUP3 ADD SWAP2 SWAP1 PUSH1 0x0 MSTORE PUSH1 0x20 PUSH1 0x0 KECCAK256 SWAP1 JUMPDEST DUP2 SLOAD DUP2 MSTORE SWAP1 PUSH1 0x1 ADD SWAP1 PUSH1 0x20 ADD DUP1 DUP4 GT PUSH2 0x5FC JUMPI DUP3 SWAP1 SUB PUSH1 0x1F AND DUP3 ADD SWAP2 JUMPDEST POP POP POP POP POP SWAP1 DUP1 PUSH1 0x1 ADD DUP1 SLOAD PUSH2 0x62E SWAP1 PUSH2 0x1B21 JUMP JUMPDEST DUP1 PUSH1 0x1F ADD PUSH1 0x20 DUP1 SWAP2 DIV MUL PUSH1 0x20 ADD PUSH1 0x40 MLOAD SWAP1 DUP2 ADD PUSH1 0x40 MSTORE DUP1 SWAP3 SWAP2 SWAP1 DUP2 DUP2 MSTORE PUSH1 0x20 ADD DUP3 DUP1 SLOAD PUSH2 0x65A SWAP1 PUSH2 0x1B21 JUMP JUMPDEST DUP1 ISZERO PUSH2 0x6A7 JUMPI DUP1 PUSH1 0x1F LT PUSH2 0x67C JUMPI PUSH2 0x100 DUP1 DUP4 SLOAD DIV MUL DUP4 MSTORE SWAP2 PUSH1 0x20 ADD SWAP2 PUSH2 0x6A7 JUMP JUMPDEST DUP3 ADD SWAP2 SWAP1 PUSH1 0x0 MSTORE PUSH1 0x20 PUSH1 0x0 KECCAK256 SWAP1 JUMPDEST DUP2 SLOAD DUP2 MSTORE SWAP1 PUSH1 0x1 ADD SWAP1 PUSH1 0x20 ADD DUP1 DUP4 GT PUSH2 0x68A JUMPI DUP3 SWAP1 SUB PUSH1 0x1F AND DUP3 ADD SWAP2 JUMPDEST POP POP POP POP POP SWAP1 DUP1 PUSH1 0x2 ADD DUP1 SLOAD PUSH2 0x6BC SWAP1 PUSH2 0x1B21 JUMP JUMPDEST DUP1 PUSH1 0x1F ADD PUSH1 0x20 DUP1 SWAP2 DIV MUL PUSH1 0x20 ADD PUSH1 0x40 MLOAD SWAP1 DUP2 ADD PUSH1 0x40 MSTORE DUP1 SWAP3 SWAP2 SWAP1 DUP2 DUP2 MSTORE PUSH1 0x20 ADD DUP3 DUP1 SLOAD PUSH2 0x6E8 SWAP1 PUSH2 0x1B21 JUMP JUMPDEST DUP1 ISZERO PUSH2 0x735 JUMPI DUP1 PUSH1 0x1F LT PUSH2 0x70A JUMPI PUSH2 0x100 DUP1 DUP4 SLOAD DIV MUL DUP4 MSTORE SWAP2 PUSH1 0x20 ADD SWAP2 PUSH2 0x735 JUMP JUMPDEST DUP3 ADD SWAP2 SWAP1 PUSH1 0x0 MSTORE PUSH1 0x20 PUSH1 0x0 KECCAK256 SWAP1 JUMPDEST DUP2 SLOAD DUP2 MSTORE SWAP1 PUSH1 0x1 ADD SWAP1 PUSH1 0x20 ADD DUP1 DUP4 GT PUSH2 0x718 JUMPI DUP3 SWAP1 SUB PUSH1 0x1F AND DUP3 ADD SWAP2 JUMPDEST POP POP POP POP POP SWAP1 DUP1 PUSH1 0x3 ADD DUP1 SLOAD PUSH2 0x74A SWAP1 PUSH2 0x1B21 JUMP JUMPDEST DUP1 PUSH1 0x1F ADD PUSH1 0x20 DUP1 SWAP2 DIV MUL PUSH1 0x20 ADD PUSH1 0x40 MLOAD SWAP1 DUP2 ADD PUSH1 0x40 MSTORE DUP1 SWAP3 SWAP2 SWAP1 DUP2 DUP2 MSTORE PUSH1 0x20 ADD DUP3 DUP1 SLOAD PUSH2 0x776 SWAP1 PUSH2 0x1B21 JUMP JUMPDEST DUP1 ISZERO PUSH2 0x7C3 JUMPI DUP1 PUSH1 0x1F LT PUSH2 0x798 JUMPI PUSH2 0x100 DUP1 DUP4 SLOAD DIV MUL DUP4 MSTORE SWAP2 PUSH1 0x20 ADD SWAP2 PUSH2 0x7C3 JUMP JUMPDEST DUP3 ADD SWAP2 SWAP1 PUSH1 0x0 MSTORE PUSH1 0x20 PUSH1 0x0 KECCAK256 SWAP1 JUMPDEST DUP2 SLOAD DUP2 MSTORE SWAP1 PUSH1 0x1 ADD SWAP1 PUSH1 0x20 ADD DUP1 DUP4 GT PUSH2 0x7A6 JUMPI DUP3 SWAP1 SUB PUSH1 0x1F AND DUP3 ADD SWAP2 JUMPDEST POP POP POP POP POP SWAP1 DUP1 PUSH1 0x4 ADD SLOAD SWAP1 DUP1 PUSH1 0x5 ADD DUP1 SLOAD PUSH2 0x7DE SWAP1 PUSH2 0x1B21 JUMP JUMPDEST DUP1 PUSH1 0x1F ADD PUSH1 0x20 DUP1 SWAP2 DIV MUL PUSH1 0x20 ADD PUSH1 0x40 MLOAD SWAP1 DUP2 ADD PUSH1 0x40 MSTORE DUP1 SWAP3 SWAP2 SWAP1 DUP2 DUP2 MSTORE PUSH1 0x20 ADD DUP3 DUP1 SLOAD PUSH2 0x80A SWAP1 PUSH2 0x1B21 JUMP JUMPDEST DUP1 ISZERO PUSH2 0x857 JUMPI DUP1 PUSH1 0x1F LT PUSH2 0x82C JUMPI PUSH2 0x100 DUP1 DUP4 SLOAD DIV MUL DUP4 MSTORE SWAP2 PUSH1 0x20 ADD SWAP2 PUSH2 0x857 JUMP JUMPDEST DUP3 ADD SWAP2 SWAP1 PUSH1 0x0 MSTORE PUSH1 0x20 PUSH1 0x0 KECCAK256 SWAP1 JUMPDEST DUP2 SLOAD DUP2 MSTORE SWAP1 PUSH1 0x1 ADD SWAP1 PUSH1 0x20 ADD DUP1 DUP4 GT PUSH2 0x83A JUMPI DUP3 SWAP1 SUB PUSH1 0x1F AND DUP3 ADD SWAP2 JUMPDEST POP POP POP POP POP SWAP1 DUP1 PUSH1 0x6 ADD DUP1 SLOAD PUSH2 0x86C SWAP1 PUSH2 0x1B21 JUMP JUMPDEST DUP1 PUSH1 0x1F ADD PUSH1 0x20 DUP1 SWAP2 DIV MUL PUSH1 0x20 ADD PUSH1 0x40 MLOAD SWAP1 DUP2 ADD PUSH1 0x40 MSTORE DUP1 SWAP3 SWAP2 SWAP1 DUP2 DUP2 MSTORE PUSH1 0x20 ADD DUP3 DUP1 SLOAD PUSH2 0x898 SWAP1 PUSH2 0x1B21 JUMP JUMPDEST DUP1 ISZERO PUSH2 0x8E5 JUMPI DUP1 PUSH1 0x1F LT PUSH2 0x8BA JUMPI PUSH2 0x100 DUP1 DUP4 SLOAD DIV MUL DUP4 MSTORE SWAP2 PUSH1 0x20 ADD SWAP2 PUSH2 0x8E5 JUMP JUMPDEST DUP3 ADD SWAP2 SWAP1 PUSH1 0x0 MSTORE PUSH1 0x20 PUSH1 0x0 KECCAK256 SWAP1 JUMPDEST DUP2 SLOAD DUP2 MSTORE SWAP1 PUSH1 0x1 ADD SWAP1 PUSH1 0x20 ADD DUP1 DUP4 GT PUSH2 0x8C8 JUMPI DUP3 SWAP1 SUB PUSH1 0x1F AND DUP3 ADD SWAP2 JUMPDEST POP POP POP POP POP SWAP1 DUP1 PUSH1 0x7 ADD PUSH1 0x0 SWAP1 SLOAD SWAP1 PUSH2 0x100 EXP SWAP1 DIV PUSH20 0xFFFFFFFFFFFFFFFFFFFFFFFFFFFFFFFFFFFFFFFF AND SWAP1 DUP1 PUSH1 0x8 ADD SLOAD SWAP1 DUP1 PUSH1 0x9 ADD DUP1 SLOAD PUSH2 0x926 SWAP1 PUSH2 0x1B21 JUMP JUMPDEST DUP1 PUSH1 0x1F ADD PUSH1 0x20 DUP1 SWAP2 DIV MUL PUSH1 0x20 ADD PUSH1 0x40 MLOAD SWAP1 DUP2 ADD PUSH1 0x40 MSTORE DUP1 SWAP3 SWAP2 SWAP1 DUP2 DUP2 MSTORE PUSH1 0x20 ADD DUP3 DUP1 SLOAD PUSH2 0x952 SWAP1 PUSH2 0x1B21 JUMP JUMPDEST DUP1 ISZERO PUSH2 0x99F JUMPI DUP1 PUSH1 0x1F LT PUSH2 0x974 JUMPI PUSH2 0x100 DUP1 DUP4 SLOAD DIV MUL DUP4 MSTORE SWAP2 PUSH1 0x20 ADD SWAP2 PUSH2 0x99F JUMP JUMPDEST DUP3 ADD SWAP2 SWAP1 PUSH1 0x0 MSTORE PUSH1 0x20 PUSH1 0x0 KECCAK256 SWAP1 JUMPDEST DUP2 SLOAD DUP2 MSTORE SWAP1 PUSH1 0x1 ADD SWAP1 PUSH1 0x20 ADD DUP1 DUP4 GT PUSH2 0x982 JUMPI DUP3 SWAP1 SUB PUSH1 0x1F AND DUP3 ADD SWAP2 JUMPDEST POP POP POP POP POP SWAP1 POP DUP11 JUMP JUMPDEST PUSH1 0x0 PUSH1 0x2 DUP3 PUSH1 0x40 MLOAD PUSH2 0x9BB SWAP2 SWAP1 PUSH2 0x1E0C JUMP JUMPDEST SWAP1 DUP2 MSTORE PUSH1 0x20 ADD PUSH1 0x40 MLOAD DUP1 SWAP2 SUB SWAP1 KECCAK256 DUP1 SLOAD SWAP1 POP SWAP1 POP SWAP2 SWAP1 POP JUMP JUMPDEST PUSH1 0x4 PUSH1 0x0 SWAP1 SLOAD SWAP1 PUSH2 0x100 EXP SWAP1 DIV PUSH20 0xFFFFFFFFFFFFFFFFFFFFFFFFFFFFFFFFFFFFFFFF AND PUSH20 0xFFFFFFFFFFFFFFFFFFFFFFFFFFFFFFFFFFFFFFFF AND CALLER PUSH20 0xFFFFFFFFFFFFFFFFFFFFFFFFFFFFFFFFFFFFFFFF AND EQ PUSH2 0xA64 JUMPI PUSH1 0x40 MLOAD PUSH32 0x8C379A000000000000000000000000000000000000000000000000000000000 DUP2 MSTORE PUSH1 0x4 ADD PUSH2 0xA5B SWAP1 PUSH2 0x1ED0 JUMP JUMPDEST PUSH1 0x40 MLOAD DUP1 SWAP2 SUB SWAP1 REVERT JUMPDEST DUP1 PUSH1 0x3 PUSH1 0x0 DUP5 PUSH20 0xFFFFFFFFFFFFFFFFFFFFFFFFFFFFFFFFFFFFFFFF AND PUSH20 0xFFFFFFFFFFFFFFFFFFFFFFFFFFFFFFFFFFFFFFFF AND DUP2 MSTORE PUSH1 0x20 ADD SWAP1 DUP2 MSTORE PUSH1 0x20 ADD PUSH1 0x0 KECCAK256 PUSH1 0x0 PUSH2 0x100 EXP DUP2 SLOAD DUP2 PUSH1 0xFF MUL NOT AND SWAP1 DUP4 ISZERO ISZERO MUL OR SWAP1 SSTORE POP PUSH32 0xD2C4EC7F557AE9098A570EDE160E3B50F2C5864FCDDF0DD1DA6A1F979016214B DUP3 DUP3 PUSH1 0x40 MLOAD PUSH2 0xAEC SWAP3 SWAP2 SWAP1 PUSH2 0x1EF0 JUMP JUMPDEST PUSH1 0x40 MLOAD DUP1 SWAP2 SUB SWAP1 LOG1 POP POP JUMP JUMPDEST PUSH1 0x60 PUSH1 0x0 PUSH1 0x2 DUP4 PUSH1 0x40 MLOAD PUSH2 0xB0C SWAP2 SWAP1 PUSH2 0x1E0C JUMP JUMPDEST SWAP1 DUP2 MSTORE PUSH1 0x20 ADD PUSH1 0x40 MLOAD DUP1 SWAP2 SUB SWAP1 KECCAK256 DUP1 SLOAD DUP1 PUSH1 0x20 MUL PUSH1 0x20 ADD PUSH1 0x40 MLOAD SWAP1 DUP2 ADD PUSH1 0x40 MSTORE DUP1 SWAP3 SWAP2 SWAP1 DUP2 DUP2 MSTORE PUSH1 0x20 ADD DUP3 DUP1 SLOAD DUP1 ISZERO PUSH2 0xB64 JUMPI PUSH1 0x20 MUL DUP3 ADD SWAP2 SWAP1 PUSH1 0x0 MSTORE PUSH1 0x20 PUSH1 0x0 KECCAK256 SWAP1 JUMPDEST DUP2 SLOAD DUP2 MSTORE PUSH1 0x20 ADD SWAP1 PUSH1 0x1 ADD SWAP1 DUP1 DUP4 GT PUSH2 0xB50 JUMPI JUMPDEST POP POP POP POP POP SWAP1 POP PUSH1 0x0 DUP2 MLOAD PUSH8 0xFFFFFFFFFFFFFFFF DUP2 GT ISZERO PUSH2 0xB88 JUMPI PUSH2 0xB87 PUSH2 0x1145 JUMP JUMPDEST JUMPDEST PUSH1 0x40 MLOAD SWAP1 DUP1 DUP3 MSTORE DUP1 PUSH1 0x20 MUL PUSH1 0x20 ADD DUP3 ADD PUSH1 0x40 MSTORE DUP1 ISZERO PUSH2 0xBC1 JUMPI DUP2 PUSH1 0x20 ADD JUMPDEST PUSH2 0xBAE PUSH2 0x10AD JUMP JUMPDEST DUP2 MSTORE PUSH1 0x20 ADD SWAP1 PUSH1 0x1 SWAP1 SUB SWAP1 DUP2 PUSH2 0xBA6 JUMPI SWAP1 POP JUMPDEST POP SWAP1 POP PUSH1 0x0 JUMPDEST DUP3 MLOAD DUP2 LT ISZERO PUSH2 0x10A2 JUMPI PUSH1 0x1 PUSH1 0x0 DUP5 DUP4 DUP2 MLOAD DUP2 LT PUSH2 0xBE7 JUMPI PUSH2 0xBE6 PUSH2 0x1F19 JUMP JUMPDEST JUMPDEST PUSH1 0x20 MUL PUSH1 0x20 ADD ADD MLOAD DUP2 MSTORE PUSH1 0x20 ADD SWAP1 DUP2 MSTORE PUSH1 0x20 ADD PUSH1 0x0 KECCAK256 PUSH1 0x40 MLOAD DUP1 PUSH2 0x140 ADD PUSH1 0x40 MSTORE SWAP1 DUP2 PUSH1 0x0 DUP3 ADD DUP1 SLOAD PUSH2 0xC19 SWAP1 PUSH2 0x1B21 JUMP JUMPDEST DUP1 PUSH1 0x1F ADD PUSH1 0x20 DUP1 SWAP2 DIV MUL PUSH1 0x20 ADD PUSH1 0x40 MLOAD SWAP1 DUP2 ADD PUSH1 0x40 MSTORE DUP1 SWAP3 SWAP2 SWAP1 DUP2 DUP2 MSTORE PUSH1 0x20 ADD DUP3 DUP1 SLOAD PUSH2 0xC45 SWAP1 PUSH2 0x1B21 JUMP JUMPDEST DUP1 ISZERO PUSH2 0xC92 JUMPI DUP1 PUSH1 0x1F LT PUSH2 0xC67 JUMPI PUSH2 0x100 DUP1 DUP4 SLOAD DIV MUL DUP4 MSTORE SWAP2 PUSH1 0x20 ADD SWAP2 PUSH2 0xC92 JUMP JUMPDEST DUP3 ADD SWAP2 SWAP1 PUSH1 0x0 MSTORE PUSH1 0x20 PUSH1 0x0 KECCAK256 SWAP1 JUMPDEST DUP2 SLOAD DUP2 MSTORE SWAP1 PUSH1 0x1 ADD SWAP1 PUSH1 0x20 ADD DUP1 DUP4 GT PUSH2 0xC75 JUMPI DUP3 SWAP1 SUB PUSH1 0x1F AND DUP3 ADD SWAP2 JUMPDEST POP POP POP POP POP DUP2 MSTORE PUSH1 0x20 ADD PUSH1 0x1 DUP3 ADD DUP1 SLOAD PUSH2 0xCAB SWAP1 PUSH2 0x1B21 JUMP JUMPDEST DUP1 PUSH1 0x1F ADD PUSH1 0x20 DUP1 SWAP2 DIV MUL PUSH1 0x20 ADD PUSH1 0x40 MLOAD SWAP1 DUP2 ADD PUSH1 0x40 MSTORE DUP1 SWAP3 SWAP2 SWAP1 DUP2 DUP2 MSTORE PUSH1 0x20 ADD DUP3 DUP1 SLOAD PUSH2 0xCD7 SWAP1 PUSH2 0x1B21 JUMP JUMPDEST DUP1 ISZERO PUSH2 0xD24 JUMPI DUP1 PUSH1 0x1F LT PUSH2 0xCF9 JUMPI PUSH2 0x100 DUP1 DUP4 SLOAD DIV MUL DUP4 MSTORE SWAP2 PUSH1 0x20 ADD SWAP2 PUSH2 0xD24 JUMP JUMPDEST DUP3 ADD SWAP2 SWAP1 PUSH1 0x0 MSTORE PUSH1 0x20 PUSH1 0x0 KECCAK256 SWAP1 JUMPDEST DUP2 SLOAD DUP2 MSTORE SWAP1 PUSH1 0x1 ADD SWAP1 PUSH1 0x20 ADD DUP1 DUP4 GT PUSH2 0xD07 JUMPI DUP3 SWAP1 SUB PUSH1 0x1F AND DUP3 ADD SWAP2 JUMPDEST POP POP POP POP POP DUP2 MSTORE PUSH1 0x20 ADD PUSH1 0x2 DUP3 ADD DUP1 SLOAD PUSH2 0xD3D SWAP1 PUSH2 0x1B21 JUMP JUMPDEST DUP1 PUSH1 0x1F ADD PUSH1 0x20 DUP1 SWAP2 DIV MUL PUSH1 0x20 ADD PUSH1 0x40 MLOAD SWAP1 DUP2 ADD PUSH1 0x40 MSTORE DUP1 SWAP3 SWAP2 SWAP1 DUP2 DUP2 MSTORE PUSH1 0x20 ADD DUP3 DUP1 SLOAD PUSH2 0xD69 SWAP1 PUSH2 0x1B21 JUMP JUMPDEST DUP1 ISZERO PUSH2 0xDB6 JUMPI DUP1 PUSH1 0x1F LT PUSH2 0xD8B JUMPI PUSH2 0x100 DUP1 DUP4 SLOAD DIV MUL DUP4 MSTORE SWAP2 PUSH1 0x20 ADD SWAP2 PUSH2 0xDB6 JUMP JUMPDEST DUP3 ADD SWAP2 SWAP1 PUSH1 0x0 MSTORE PUSH1 0x20 PUSH1 0x0 KECCAK256 SWAP1 JUMPDEST DUP2 SLOAD DUP2 MSTORE SWAP1 PUSH1 0x1 ADD SWAP1 PUSH1 0x20 ADD DUP1 DUP4 GT PUSH2 0xD99 JUMPI DUP3 SWAP1 SUB PUSH1 0x1F AND DUP3 ADD SWAP2 JUMPDEST POP POP POP POP POP DUP2 MSTORE PUSH1 0x20 ADD PUSH1 0x3 DUP3 ADD DUP1 SLOAD PUSH2 0xDCF SWAP1 PUSH2 0x1B21 JUMP JUMPDEST DUP1 PUSH1 0x1F ADD PUSH1 0x20 DUP1 SWAP2 DIV MUL PUSH1 0x20 ADD PUSH1 0x40 MLOAD SWAP1 DUP2 ADD PUSH1 0x40 MSTORE DUP1 SWAP3 SWAP2 SWAP1 DUP2 DUP2 MSTORE PUSH1 0x20 ADD DUP3 DUP1 SLOAD PUSH2 0xDFB SWAP1 PUSH2 0x1B21 JUMP JUMPDEST DUP1 ISZERO PUSH2 0xE48 JUMPI DUP1 PUSH1 0x1F LT PUSH2 0xE1D JUMPI PUSH2 0x100 DUP1 DUP4 SLOAD DIV MUL DUP4 MSTORE SWAP2 PUSH1 0x20 ADD SWAP2 PUSH2 0xE48 JUMP JUMPDEST DUP3 ADD SWAP2 SWAP1 PUSH1 0x0 MSTORE PUSH1 0x20 PUSH1 0x0 KECCAK256 SWAP1 JUMPDEST DUP2 SLOAD DUP2 MSTORE SWAP1 PUSH1 0x1 ADD SWAP1 PUSH1 0x20 ADD DUP1 DUP4 GT PUSH2 0xE2B JUMPI DUP3 SWAP1 SUB PUSH1 0x1F AND DUP3 ADD SWAP2 JUMPDEST POP POP POP POP POP DUP2 MSTORE PUSH1 0x20 ADD PUSH1 0x4 DUP3 ADD SLOAD DUP2 MSTORE PUSH1 0x20 ADD PUSH1 0x5 DUP3 ADD DUP1 SLOAD PUSH2 0xE6B SWAP1 PUSH2 0x1B21 JUMP JUMPDEST DUP1 PUSH1 0x1F ADD PUSH1 0x20 DUP1 SWAP2 DIV MUL PUSH1 0x20 ADD PUSH1 0x40 MLOAD SWAP1 DUP2 ADD PUSH1 0x40 MSTORE DUP1 SWAP3 SWAP2 SWAP1 DUP2 DUP2 MSTORE PUSH1 0x20 ADD DUP3 DUP1 SLOAD PUSH2 0xE97 SWAP1 PUSH2 0x1B21 JUMP JUMPDEST DUP1 ISZERO PUSH2 0xEE4 JUMPI DUP1 PUSH1 0x1F LT PUSH2 0xEB9 JUMPI PUSH2 0x100 DUP1 DUP4 SLOAD DIV MUL DUP4 MSTORE SWAP2 PUSH1 0x20 ADD SWAP2 PUSH2 0xEE4 JUMP JUMPDEST DUP3 ADD SWAP2 SWAP1 PUSH1 0x0 MSTORE PUSH1 0x20 PUSH1 0x0 KECCAK256 SWAP1 JUMPDEST DUP2 SLOAD DUP2 MSTORE SWAP1 PUSH1 0x1 ADD SWAP1 PUSH1 0x20 ADD DUP1 DUP4 GT PUSH2 0xEC7 JUMPI DUP3 SWAP1 SUB PUSH1 0x1F AND DUP3 ADD SWAP2 JUMPDEST POP POP POP POP POP DUP2 MSTORE PUSH1 0x20 ADD PUSH1 0x6 DUP3 ADD DUP1 SLOAD PUSH2 0xEFD SWAP1 PUSH2 0x1B21 JUMP JUMPDEST DUP1 PUSH1 0x1F ADD PUSH1 0x20 DUP1 SWAP2 DIV MUL PUSH1 0x20 ADD PUSH1 0x40 MLOAD SWAP1 DUP2 ADD PUSH1 0x40 MSTORE DUP1 SWAP3 SWAP2 SWAP1 DUP2 DUP2 MSTORE PUSH1 0x20 ADD DUP3 DUP1 SLOAD PUSH2 0xF29 SWAP1 PUSH2 0x1B21 JUMP JUMPDEST DUP1 ISZERO PUSH2 0xF76 JUMPI DUP1 PUSH1 0x1F LT PUSH2 0xF4B JUMPI PUSH2 0x100 DUP1 DUP4 SLOAD DIV MUL DUP4 MSTORE SWAP2 PUSH1 0x20 ADD SWAP2 PUSH2 0xF76 JUMP JUMPDEST DUP3 ADD SWAP2 SWAP1 PUSH1 0x0 MSTORE PUSH1 0x20 PUSH1 0x0 KECCAK256 SWAP1 JUMPDEST DUP2 SLOAD DUP2 MSTORE SWAP1 PUSH1 0x1 ADD SWAP1 PUSH1 0x20 ADD DUP1 DUP4 GT PUSH2 0xF59 JUMPI DUP3 SWAP1 SUB PUSH1 0x1F AND DUP3 ADD SWAP2 JUMPDEST POP POP POP POP POP DUP2 MSTORE PUSH1 0x20 ADD PUSH1 0x7 DUP3 ADD PUSH1 0x0 SWAP1 SLOAD SWAP1 PUSH2 0x100 EXP SWAP1 DIV PUSH20 0xFFFFFFFFFFFFFFFFFFFFFFFFFFFFFFFFFFFFFFFF AND PUSH20 0xFFFFFFFFFFFFFFFFFFFFFFFFFFFFFFFFFFFFFFFF AND PUSH20 0xFFFFFFFFFFFFFFFFFFFFFFFFFFFFFFFFFFFFFFFF AND DUP2 MSTORE PUSH1 0x20 ADD PUSH1 0x8 DUP3 ADD SLOAD DUP2 MSTORE PUSH1 0x20 ADD PUSH1 0x9 DUP3 ADD DUP1 SLOAD PUSH2 0xFEF SWAP1 PUSH2 0x1B21 JUMP JUMPDEST DUP1 PUSH1 0x1F ADD PUSH1 0x20 DUP1 SWAP2 DIV MUL PUSH1 0x20 ADD PUSH1 0x40 MLOAD SWAP1 DUP2 ADD PUSH1 0x40 MSTORE DUP1 SWAP3 SWAP2 SWAP1 DUP2 DUP2 MSTORE PUSH1 0x20 ADD DUP3 DUP1 SLOAD PUSH2 0x101B SWAP1 PUSH2 0x1B21 JUMP JUMPDEST DUP1 ISZERO PUSH2 0x1068 JUMPI DUP1 PUSH1 0x1F LT PUSH2 0x103D JUMPI PUSH2 0x100 DUP1 DUP4 SLOAD DIV MUL DUP4 MSTORE SWAP2 PUSH1 0x20 ADD SWAP2 PUSH2 0x1068 JUMP JUMPDEST DUP3 ADD SWAP2 SWAP1 PUSH1 0x0 MSTORE PUSH1 0x20 PUSH1 0x0 KECCAK256 SWAP1 JUMPDEST DUP2 SLOAD DUP2 MSTORE SWAP1 PUSH1 0x1 ADD SWAP1 PUSH1 0x20 ADD DUP1 DUP4 GT PUSH2 0x104B JUMPI DUP3 SWAP1 SUB PUSH1 0x1F AND DUP3 ADD SWAP2 JUMPDEST POP POP POP POP POP DUP2 MSTORE POP POP DUP3 DUP3 DUP2 MLOAD DUP2 LT PUSH2 0x1084 JUMPI PUSH2 0x1083 PUSH2 0x1F19 JUMP JUMPDEST JUMPDEST PUSH1 0x20 MUL PUSH1 0x20 ADD ADD DUP2 SWAP1 MSTORE POP DUP1 DUP1 PUSH2 0x109A SWAP1 PUSH2 0x1AAA JUMP JUMPDEST SWAP2 POP POP PUSH2 0xBC7 JUMP JUMPDEST POP DUP1 SWAP3 POP POP POP SWAP2 SWAP1 POP JUMP JUMPDEST PUSH1 0x40 MLOAD DUP1 PUSH2 0x140 ADD PUSH1 0x40 MSTORE DUP1 PUSH1 0x60 DUP2 MSTORE PUSH1 0x20 ADD PUSH1 0x60 DUP2 MSTORE PUSH1 0x20 ADD PUSH1 0x60 DUP2 MSTORE PUSH1 0x20 ADD PUSH1 0x60 DUP2 MSTORE PUSH1 0x20 ADD PUSH1 0x0 DUP2 MSTORE PUSH1 0x20 ADD PUSH1 0x60 DUP2 MSTORE PUSH1 0x20 ADD PUSH1 0x60 DUP2 MSTORE PUSH1 0x20 ADD PUSH1 0x0 PUSH20 0xFFFFFFFFFFFFFFFFFFFFFFFFFFFFFFFFFFFFFFFF AND DUP2 MSTORE PUSH1 0x20 ADD PUSH1 0x0 DUP2 MSTORE PUSH1 0x20 ADD PUSH1 0x60 DUP2 MSTORE POP SWAP1 JUMP JUMPDEST PUSH1 0x0 PUSH1 0x40 MLOAD SWAP1 POP SWAP1 JUMP JUMPDEST PUSH1 0x0 DUP1 REVERT JUMPDEST PUSH1 0x0 DUP1 REVERT JUMPDEST PUSH1 0x0 DUP1 REVERT JUMPDEST PUSH1 0x0 DUP1 REVERT JUMPDEST PUSH1 0x0 PUSH1 0x1F NOT PUSH1 0x1F DUP4 ADD AND SWAP1 POP SWAP2 SWAP1 POP JUMP JUMPDEST PUSH32 0x4E487B7100000000000000000000000000000000000000000000000000000000 PUSH1 0x0 MSTORE PUSH1 0x41 PUSH1 0x4 MSTORE PUSH1 0x24 PUSH1 0x0 REVERT JUMPDEST PUSH2 0x117D DUP3 PUSH2 0x1134 JUMP JUMPDEST DUP2 ADD DUP2 DUP2 LT PUSH8 0xFFFFFFFFFFFFFFFF DUP3 GT OR ISZERO PUSH2 0x119C JUMPI PUSH2 0x119B PUSH2 0x1145 JUMP JUMPDEST JUMPDEST DUP1 PUSH1 0x40 MSTORE POP POP POP JUMP JUMPDEST PUSH1 0x0 PUSH2 0x11AF PUSH2 0x1116 JUMP JUMPDEST SWAP1 POP PUSH2 0x11BB DUP3 DUP3 PUSH2 0x1174 JUMP JUMPDEST SWAP2 SWAP1 POP JUMP JUMPDEST PUSH1 0x0 PUSH8 0xFFFFFFFFFFFFFFFF DUP3 GT ISZERO PUSH2 0x11DB JUMPI PUSH2 0x11DA PUSH2 0x1145 JUMP JUMPDEST JUMPDEST PUSH2 0x11E4 DUP3 PUSH2 0x1134 JUMP JUMPDEST SWAP1 POP PUSH1 0x20 DUP2 ADD SWAP1 POP SWAP2 SWAP1 POP JUMP JUMPDEST DUP3 DUP2 DUP4 CALLDATACOPY PUSH1 0x0 DUP4 DUP4 ADD MSTORE POP POP POP JUMP JUMPDEST PUSH1 0x0 PUSH2 0x1213 PUSH2 0x120E DUP5 PUSH2 0x11C0 JUMP JUMPDEST PUSH2 0x11A5 JUMP JUMPDEST SWAP1 POP DUP3 DUP2 MSTORE PUSH1 0x20 DUP2 ADD DUP5 DUP5 DUP5 ADD GT ISZERO PUSH2 0x122F JUMPI PUSH2 0x122E PUSH2 0x112F JUMP JUMPDEST JUMPDEST PUSH2 0x123A DUP5 DUP3 DUP6 PUSH2 0x11F1 JUMP JUMPDEST POP SWAP4 SWAP3 POP POP POP JUMP JUMPDEST PUSH1 0x0 DUP3 PUSH1 0x1F DUP4 ADD SLT PUSH2 0x1257 JUMPI PUSH2 0x1256 PUSH2 0x112A JUMP JUMPDEST JUMPDEST DUP2 CALLDATALOAD PUSH2 0x1267 DUP5 DUP3 PUSH1 0x20 DUP7 ADD PUSH2 0x1200 JUMP JUMPDEST SWAP2 POP POP SWAP3 SWAP2 POP POP JUMP JUMPDEST PUSH1 0x0 DUP2 SWAP1 POP SWAP2 SWAP1 POP JUMP JUMPDEST PUSH2 0x1283 DUP2 PUSH2 0x1270 JUMP JUMPDEST DUP2 EQ PUSH2 0x128E JUMPI PUSH1 0x0 DUP1 REVERT JUMPDEST POP JUMP JUMPDEST PUSH1 0x0 DUP2 CALLDATALOAD SWAP1 POP PUSH2 0x12A0 DUP2 PUSH2 0x127A JUMP JUMPDEST SWAP3 SWAP2 POP POP JUMP JUMPDEST PUSH1 0x0 DUP1 PUSH1 0x40 DUP4 DUP6 SUB SLT ISZERO PUSH2 0x12BD JUMPI PUSH2 0x12BC PUSH2 0x1120 JUMP JUMPDEST JUMPDEST PUSH1 0x0 DUP4 ADD CALLDATALOAD PUSH8 0xFFFFFFFFFFFFFFFF DUP2 GT ISZERO PUSH2 0x12DB JUMPI PUSH2 0x12DA PUSH2 0x1125 JUMP JUMPDEST JUMPDEST PUSH2 0x12E7 DUP6 DUP3 DUP7 ADD PUSH2 0x1242 JUMP JUMPDEST SWAP3 POP POP PUSH1 0x20 PUSH2 0x12F8 DUP6 DUP3 DUP7 ADD PUSH2 0x1291 JUMP JUMPDEST SWAP2 POP POP SWAP3 POP SWAP3 SWAP1 POP JUMP JUMPDEST PUSH2 0x130B DUP2 PUSH2 0x1270 JUMP JUMPDEST DUP3 MSTORE POP POP JUMP JUMPDEST PUSH1 0x0 PUSH1 0x20 DUP3 ADD SWAP1 POP PUSH2 0x1326 PUSH1 0x0 DUP4 ADD DUP5 PUSH2 0x1302 JUMP JUMPDEST SWAP3 SWAP2 POP POP JUMP JUMPDEST PUSH1 0x0 PUSH20 0xFFFFFFFFFFFFFFFFFFFFFFFFFFFFFFFFFFFFFFFF DUP3 AND SWAP1 POP SWAP2 SWAP1 POP JUMP JUMPDEST PUSH1 0x0 PUSH2 0x1357 DUP3 PUSH2 0x132C JUMP JUMPDEST SWAP1 POP SWAP2 SWAP1 POP JUMP JUMPDEST PUSH2 0x1367 DUP2 PUSH2 0x134C JUMP JUMPDEST DUP2 EQ PUSH2 0x1372 JUMPI PUSH1 0x0 DUP1 REVERT JUMPDEST POP JUMP JUMPDEST PUSH1 0x0 DUP2 CALLDATALOAD SWAP1 POP PUSH2 0x1384 DUP2 PUSH2 0x135E JUMP JUMPDEST SWAP3 SWAP2 POP POP JUMP JUMPDEST PUSH1 0x0 PUSH1 0x20 DUP3 DUP5 SUB SLT ISZERO PUSH2 0x13A0 JUMPI PUSH2 0x139F PUSH2 0x1120 JUMP JUMPDEST JUMPDEST PUSH1 0x0 PUSH2 0x13AE DUP5 DUP3 DUP6 ADD PUSH2 0x1375 JUMP JUMPDEST SWAP2 POP POP SWAP3 SWAP2 POP POP JUMP JUMPDEST PUSH1 0x0 DUP2 ISZERO ISZERO SWAP1 POP SWAP2 SWAP1 POP JUMP JUMPDEST PUSH2 0x13CC DUP2 PUSH2 0x13B7 JUMP JUMPDEST DUP3 MSTORE POP POP JUMP JUMPDEST PUSH1 0x0 PUSH1 0x20 DUP3 ADD SWAP1 POP PUSH2 0x13E7 PUSH1 0x0 DUP4 ADD DUP5 PUSH2 0x13C3 JUMP JUMPDEST SWAP3 SWAP2 POP POP JUMP JUMPDEST PUSH2 0x13F6 DUP2 PUSH2 0x134C JUMP JUMPDEST DUP3 MSTORE POP POP JUMP JUMPDEST PUSH1 0x0 PUSH1 0x20 DUP3 ADD SWAP1 POP PUSH2 0x1411 PUSH1 0x0 DUP4 ADD DUP5 PUSH2 0x13ED JUMP JUMPDEST SWAP3 SWAP2 POP POP JUMP JUMPDEST PUSH1 0x0 DUP1 PUSH1 0x0 DUP1 PUSH1 0x0 DUP1 PUSH1 0x0 DUP1 PUSH2 0x100 DUP10 DUP12 SUB SLT ISZERO PUSH2 0x1438 JUMPI PUSH2 0x1437 PUSH2 0x1120 JUMP JUMPDEST JUMPDEST PUSH1 0x0 DUP10 ADD CALLDATALOAD PUSH8 0xFFFFFFFFFFFFFFFF DUP2 GT ISZERO PUSH2 0x1456 JUMPI PUSH2 0x1455 PUSH2 0x1125 JUMP JUMPDEST JUMPDEST PUSH2 0x1462 DUP12 DUP3 DUP13 ADD PUSH2 0x1242 JUMP JUMPDEST SWAP9 POP POP PUSH1 0x20 DUP10 ADD CALLDATALOAD PUSH8 0xFFFFFFFFFFFFFFFF DUP2 GT ISZERO PUSH2 0x1483 JUMPI PUSH2 0x1482 PUSH2 0x1125 JUMP JUMPDEST JUMPDEST PUSH2 0x148F DUP12 DUP3 DUP13 ADD PUSH2 0x1242 JUMP JUMPDEST SWAP8 POP POP PUSH1 0x40 DUP10 ADD CALLDATALOAD PUSH8 0xFFFFFFFFFFFFFFFF DUP2 GT ISZERO PUSH2 0x14B0 JUMPI PUSH2 0x14AF PUSH2 0x1125 JUMP JUMPDEST JUMPDEST PUSH2 0x14BC DUP12 DUP3 DUP13 ADD PUSH2 0x1242 JUMP JUMPDEST SWAP7 POP POP PUSH1 0x60 DUP10 ADD CALLDATALOAD PUSH8 0xFFFFFFFFFFFFFFFF DUP2 GT ISZERO PUSH2 0x14DD JUMPI PUSH2 0x14DC PUSH2 0x1125 JUMP JUMPDEST JUMPDEST PUSH2 0x14E9 DUP12 DUP3 DUP13 ADD PUSH2 0x1242 JUMP JUMPDEST SWAP6 POP POP PUSH1 0x80 PUSH2 0x14FA DUP12 DUP3 DUP13 ADD PUSH2 0x1291 JUMP JUMPDEST SWAP5 POP POP PUSH1 0xA0 DUP10 ADD CALLDATALOAD PUSH8 0xFFFFFFFFFFFFFFFF DUP2 GT ISZERO PUSH2 0x151B JUMPI PUSH2 0x151A PUSH2 0x1125 JUMP JUMPDEST JUMPDEST PUSH2 0x1527 DUP12 DUP3 DUP13 ADD PUSH2 0x1242 JUMP JUMPDEST SWAP4 POP POP PUSH1 0xC0 DUP10 ADD CALLDATALOAD PUSH8 0xFFFFFFFFFFFFFFFF DUP2 GT ISZERO PUSH2 0x1548 JUMPI PUSH2 0x1547 PUSH2 0x1125 JUMP JUMPDEST JUMPDEST PUSH2 0x1554 DUP12 DUP3 DUP13 ADD PUSH2 0x1242 JUMP JUMPDEST SWAP3 POP POP PUSH1 0xE0 DUP10 ADD CALLDATALOAD PUSH8 0xFFFFFFFFFFFFFFFF DUP2 GT ISZERO PUSH2 0x1575 JUMPI PUSH2 0x1574 PUSH2 0x1125 JUMP JUMPDEST JUMPDEST PUSH2 0x1581 DUP12 DUP3 DUP13 ADD PUSH2 0x1242 JUMP JUMPDEST SWAP2 POP POP SWAP3 SWAP6 SWAP9 POP SWAP3 SWAP6 SWAP9 SWAP1 SWAP4 SWAP7 POP JUMP JUMPDEST PUSH1 0x0 PUSH1 0x20 DUP3 DUP5 SUB SLT ISZERO PUSH2 0x15A7 JUMPI PUSH2 0x15A6 PUSH2 0x1120 JUMP JUMPDEST JUMPDEST PUSH1 0x0 PUSH2 0x15B5 DUP5 DUP3 DUP6 ADD PUSH2 0x1291 JUMP JUMPDEST SWAP2 POP POP SWAP3 SWAP2 POP POP JUMP JUMPDEST PUSH1 0x0 DUP2 MLOAD SWAP1 POP SWAP2 SWAP1 POP JUMP JUMPDEST PUSH1 0x0 DUP3 DUP3 MSTORE PUSH1 0x20 DUP3 ADD SWAP1 POP SWAP3 SWAP2 POP POP JUMP JUMPDEST PUSH1 0x0 JUMPDEST DUP4 DUP2 LT ISZERO PUSH2 0x15F8 JUMPI DUP1 DUP3 ADD MLOAD DUP2 DUP5 ADD MSTORE PUSH1 0x20 DUP2 ADD SWAP1 POP PUSH2 0x15DD JUMP JUMPDEST PUSH1 0x0 DUP5 DUP5 ADD MSTORE POP POP POP POP JUMP JUMPDEST PUSH1 0x0 PUSH2 0x160F DUP3 PUSH2 0x15BE JUMP JUMPDEST PUSH2 0x1619 DUP2 DUP6 PUSH2 0x15C9 JUMP JUMPDEST SWAP4 POP PUSH2 0x1629 DUP2 DUP6 PUSH1 0x20 DUP7 ADD PUSH2 0x15DA JUMP JUMPDEST PUSH2 0x1632 DUP2 PUSH2 0x1134 JUMP JUMPDEST DUP5 ADD SWAP2 POP POP SWAP3 SWAP2 POP POP JUMP JUMPDEST PUSH1 0x0 PUSH2 0x140 DUP3 ADD SWAP1 POP DUP2 DUP2 SUB PUSH1 0x0 DUP4 ADD MSTORE PUSH2 0x1658 DUP2 DUP14 PUSH2 0x1604 JUMP JUMPDEST SWAP1 POP DUP2 DUP2 SUB PUSH1 0x20 DUP4 ADD MSTORE PUSH2 0x166C DUP2 DUP13 PUSH2 0x1604 JUMP JUMPDEST SWAP1 POP DUP2 DUP2 SUB PUSH1 0x40 DUP4 ADD MSTORE PUSH2 0x1680 DUP2 DUP12 PUSH2 0x1604 JUMP JUMPDEST SWAP1 POP DUP2 DUP2 SUB PUSH1 0x60 DUP4 ADD MSTORE PUSH2 0x1694 DUP2 DUP11 PUSH2 0x1604 JUMP JUMPDEST SWAP1 POP PUSH2 0x16A3 PUSH1 0x80 DUP4 ADD DUP10 PUSH2 0x1302 JUMP JUMPDEST DUP2 DUP2 SUB PUSH1 0xA0 DUP4 ADD MSTORE PUSH2 0x16B5 DUP2 DUP9 PUSH2 0x1604 JUMP JUMPDEST SWAP1 POP DUP2 DUP2 SUB PUSH1 0xC0 DUP4 ADD MSTORE PUSH2 0x16C9 DUP2 DUP8 PUSH2 0x1604 JUMP JUMPDEST SWAP1 POP PUSH2 0x16D8 PUSH1 0xE0 DUP4 ADD DUP7 PUSH2 0x13ED JUMP JUMPDEST PUSH2 0x16E6 PUSH2 0x100 DUP4 ADD DUP6 PUSH2 0x1302 JUMP JUMPDEST DUP2 DUP2 SUB PUSH2 0x120 DUP4 ADD MSTORE PUSH2 0x16F9 DUP2 DUP5 PUSH2 0x1604 JUMP JUMPDEST SWAP1 POP SWAP12 SWAP11 POP POP POP POP POP POP POP POP POP POP POP JUMP JUMPDEST PUSH1 0x0 PUSH1 0x20 DUP3 DUP5 SUB SLT ISZERO PUSH2 0x1720 JUMPI PUSH2 0x171F PUSH2 0x1120 JUMP JUMPDEST JUMPDEST PUSH1 0x0 DUP3 ADD CALLDATALOAD PUSH8 0xFFFFFFFFFFFFFFFF DUP2 GT ISZERO PUSH2 0x173E JUMPI PUSH2 0x173D PUSH2 0x1125 JUMP JUMPDEST JUMPDEST PUSH2 0x174A DUP5 DUP3 DUP6 ADD PUSH2 0x1242 JUMP JUMPDEST SWAP2 POP POP SWAP3 SWAP2 POP POP JUMP JUMPDEST PUSH2 0x175C DUP2 PUSH2 0x13B7 JUMP JUMPDEST DUP2 EQ PUSH2 0x1767 JUMPI PUSH1 0x0 DUP1 REVERT JUMPDEST POP JUMP JUMPDEST PUSH1 0x0 DUP2 CALLDATALOAD SWAP1 POP PUSH2 0x1779 DUP2 PUSH2 0x1753 JUMP JUMPDEST SWAP3 SWAP2 POP POP JUMP JUMPDEST PUSH1 0x0 DUP1 PUSH1 0x40 DUP4 DUP6 SUB SLT ISZERO PUSH2 0x1796 JUMPI PUSH2 0x1795 PUSH2 0x1120 JUMP JUMPDEST JUMPDEST PUSH1 0x0 PUSH2 0x17A4 DUP6 DUP3 DUP7 ADD PUSH2 0x1375 JUMP JUMPDEST SWAP3 POP POP PUSH1 0x20 PUSH2 0x17B5 DUP6 DUP3 DUP7 ADD PUSH2 0x176A JUMP JUMPDEST SWAP2 POP POP SWAP3 POP SWAP3 SWAP1 POP JUMP JUMPDEST PUSH1 0x0 DUP2 MLOAD SWAP1 POP SWAP2 SWAP1 POP JUMP JUMPDEST PUSH1 0x0 DUP3 DUP3 MSTORE PUSH1 0x20 DUP3 ADD SWAP1 POP SWAP3 SWAP2 POP POP JUMP JUMPDEST PUSH1 0x0 DUP2 SWAP1 POP PUSH1 0x20 DUP3 ADD SWAP1 POP SWAP2 SWAP1 POP JUMP JUMPDEST PUSH1 0x0 DUP3 DUP3 MSTORE PUSH1 0x20 DUP3 ADD SWAP1 POP SWAP3 SWAP2 POP POP JUMP JUMPDEST PUSH1 0x0 PUSH2 0x1807 DUP3 PUSH2 0x15BE JUMP JUMPDEST PUSH2 0x1811 DUP2 DUP6 PUSH2 0x17EB JUMP JUMPDEST SWAP4 POP PUSH2 0x1821 DUP2 DUP6 PUSH1 0x20 DUP7 ADD PUSH2 0x15DA JUMP JUMPDEST PUSH2 0x182A DUP2 PUSH2 0x1134 JUMP JUMPDEST DUP5 ADD SWAP2 POP POP SWAP3 SWAP2 POP POP JUMP JUMPDEST PUSH2 0x183E DUP2 PUSH2 0x1270 JUMP JUMPDEST DUP3 MSTORE POP POP JUMP JUMPDEST PUSH2 0x184D DUP2 PUSH2 0x134C JUMP JUMPDEST DUP3 MSTORE POP POP JUMP JUMPDEST PUSH1 0x0 PUSH2 0x140 DUP4 ADD PUSH1 0x0 DUP4 ADD MLOAD DUP5 DUP3 SUB PUSH1 0x0 DUP7 ADD MSTORE PUSH2 0x1871 DUP3 DUP3 PUSH2 0x17FC JUMP JUMPDEST SWAP2 POP POP PUSH1 0x20 DUP4 ADD MLOAD DUP5 DUP3 SUB PUSH1 0x20 DUP7 ADD MSTORE PUSH2 0x188B DUP3 DUP3 PUSH2 0x17FC JUMP JUMPDEST SWAP2 POP POP PUSH1 0x40 DUP4 ADD MLOAD DUP5 DUP3 SUB PUSH1 0x40 DUP7 ADD MSTORE PUSH2 0x18A5 DUP3 DUP3 PUSH2 0x17FC JUMP JUMPDEST SWAP2 POP POP PUSH1 0x60 DUP4 ADD MLOAD DUP5 DUP3 SUB PUSH1 0x60 DUP7 ADD MSTORE PUSH2 0x18BF DUP3 DUP3 PUSH2 0x17FC JUMP JUMPDEST SWAP2 POP POP PUSH1 0x80 DUP4 ADD MLOAD PUSH2 0x18D4 PUSH1 0x80 DUP7 ADD DUP3 PUSH2 0x1835 JUMP JUMPDEST POP PUSH1 0xA0 DUP4 ADD MLOAD DUP5 DUP3 SUB PUSH1 0xA0 DUP7 ADD MSTORE PUSH2 0x18EC DUP3 DUP3 PUSH2 0x17FC JUMP JUMPDEST SWAP2 POP POP PUSH1 0xC0 DUP4 ADD MLOAD DUP5 DUP3 SUB PUSH1 0xC0 DUP7 ADD MSTORE PUSH2 0x1906 DUP3 DUP3 PUSH2 0x17FC JUMP JUMPDEST SWAP2 POP POP PUSH1 0xE0 DUP4 ADD MLOAD PUSH2 0x191B PUSH1 0xE0 DUP7 ADD DUP3 PUSH2 0x1844 JUMP JUMPDEST POP PUSH2 0x100 DUP4 ADD MLOAD PUSH2 0x1930 PUSH2 0x100 DUP7 ADD DUP3 PUSH2 0x1835 JUMP JUMPDEST POP PUSH2 0x120 DUP4 ADD MLOAD DUP5 DUP3 SUB PUSH2 0x120 DUP7 ADD MSTORE PUSH2 0x194A DUP3 DUP3 PUSH2 0x17FC JUMP JUMPDEST SWAP2 POP POP DUP1 SWAP2 POP POP SWAP3 SWAP2 POP POP JUMP JUMPDEST PUSH1 0x0 PUSH2 0x1963 DUP4 DUP4 PUSH2 0x1853 JUMP JUMPDEST SWAP1 POP SWAP3 SWAP2 POP POP JUMP JUMPDEST PUSH1 0x0 PUSH1 0x20 DUP3 ADD SWAP1 POP SWAP2 SWAP1 POP JUMP JUMPDEST PUSH1 0x0 PUSH2 0x1983 DUP3 PUSH2 0x17BF JUMP JUMPDEST PUSH2 0x198D DUP2 DUP6 PUSH2 0x17CA JUMP JUMPDEST SWAP4 POP DUP4 PUSH1 0x20 DUP3 MUL DUP6 ADD PUSH2 0x199F DUP6 PUSH2 0x17DB JUMP JUMPDEST DUP1 PUSH1 0x0 JUMPDEST DUP6 DUP2 LT ISZERO PUSH2 0x19DB JUMPI DUP5 DUP5 SUB DUP10 MSTORE DUP2 MLOAD PUSH2 0x19BC DUP6 DUP3 PUSH2 0x1957 JUMP JUMPDEST SWAP5 POP PUSH2 0x19C7 DUP4 PUSH2 0x196B JUMP JUMPDEST SWAP3 POP PUSH1 0x20 DUP11 ADD SWAP10 POP POP PUSH1 0x1 DUP2 ADD SWAP1 POP PUSH2 0x19A3 JUMP JUMPDEST POP DUP3 SWAP8 POP DUP8 SWAP6 POP POP POP POP POP POP SWAP3 SWAP2 POP POP JUMP JUMPDEST PUSH1 0x0 PUSH1 0x20 DUP3 ADD SWAP1 POP DUP2 DUP2 SUB PUSH1 0x0 DUP4 ADD MSTORE PUSH2 0x1A07 DUP2 DUP5 PUSH2 0x1978 JUMP JUMPDEST SWAP1 POP SWAP3 SWAP2 POP POP JUMP JUMPDEST PUSH32 0x4E6F7420617574686F72697A6564000000000000000000000000000000000000 PUSH1 0x0 DUP3 ADD MSTORE POP JUMP JUMPDEST PUSH1 0x0 PUSH2 0x1A45 PUSH1 0xE DUP4 PUSH2 0x15C9 JUMP JUMPDEST SWAP2 POP PUSH2 0x1A50 DUP3 PUSH2 0x1A0F JUMP JUMPDEST PUSH1 0x20 DUP3 ADD SWAP1 POP SWAP2 SWAP1 POP JUMP JUMPDEST PUSH1 0x0 PUSH1 0x20 DUP3 ADD SWAP1 POP DUP2 DUP2 SUB PUSH1 0x0 DUP4 ADD MSTORE PUSH2 0x1A74 DUP2 PUSH2 0x1A38 JUMP JUMPDEST SWAP1 POP SWAP2 SWAP1 POP JUMP JUMPDEST PUSH32 0x4E487B7100000000000000000000000000000000000000000000000000000000 PUSH1 0x0 MSTORE PUSH1 0x11 PUSH1 0x4 MSTORE PUSH1 0x24 PUSH1 0x0 REVERT JUMPDEST PUSH1 0x0 PUSH2 0x1AB5 DUP3 PUSH2 0x1270 JUMP JUMPDEST SWAP2 POP PUSH32 0xFFFFFFFFFFFFFFFFFFFFFFFFFFFFFFFFFFFFFFFFFFFFFFFFFFFFFFFFFFFFFFFF DUP3 SUB PUSH2 0x1AE7 JUMPI PUSH2 0x1AE6 PUSH2 0x1A7B JUMP JUMPDEST JUMPDEST PUSH1 0x1 DUP3 ADD SWAP1 POP SWAP2 SWAP1 POP JUMP JUMPDEST PUSH32 0x4E487B7100000000000000000000000000000000000000000000000000000000 PUSH1 0x0 MSTORE PUSH1 0x22 PUSH1 0x4 MSTORE PUSH1 0x24 PUSH1 0x0 REVERT JUMPDEST PUSH1 0x0 PUSH1 0x2 DUP3 DIV SWAP1 POP PUSH1 0x1 DUP3 AND DUP1 PUSH2 0x1B39 JUMPI PUSH1 0x7F DUP3 AND SWAP2 POP JUMPDEST PUSH1 0x20 DUP3 LT DUP2 SUB PUSH2 0x1B4C JUMPI PUSH2 0x1B4B PUSH2 0x1AF2 JUMP JUMPDEST JUMPDEST POP SWAP2 SWAP1 POP JUMP JUMPDEST PUSH1 0x0 DUP2 SWAP1 POP DUP2 PUSH1 0x0 MSTORE PUSH1 0x20 PUSH1 0x0 KECCAK256 SWAP1 POP SWAP2 SWAP1 POP JUMP JUMPDEST PUSH1 0x0 PUSH1 0x20 PUSH1 0x1F DUP4 ADD DIV SWAP1 POP SWAP2 SWAP1 POP JUMP JUMPDEST PUSH1 0x0 DUP3 DUP3 SHL SWAP1 POP SWAP3 SWAP2 POP POP JUMP JUMPDEST PUSH1 0x0 PUSH1 0x8 DUP4 MUL PUSH2 0x1BB4 PUSH32 0xFFFFFFFFFFFFFFFFFFFFFFFFFFFFFFFFFFFFFFFFFFFFFFFFFFFFFFFFFFFFFFFF DUP3 PUSH2 0x1B77 JUMP JUMPDEST PUSH2 0x1BBE DUP7 DUP4 PUSH2 0x1B77 JUMP JUMPDEST SWAP6 POP DUP1 NOT DUP5 AND SWAP4 POP DUP1 DUP7 AND DUP5 OR SWAP3 POP POP POP SWAP4 SWAP3 POP POP POP JUMP JUMPDEST PUSH1 0x0 DUP2 SWAP1 POP SWAP2 SWAP1 POP JUMP JUMPDEST PUSH1 0x0 PUSH2 0x1BFB PUSH2 0x1BF6 PUSH2 0x1BF1 DUP5 PUSH2 0x1270 JUMP JUMPDEST PUSH2 0x1BD6 JUMP JUMPDEST PUSH2 0x1270 JUMP JUMPDEST SWAP1 POP SWAP2 SWAP1 POP JUMP JUMPDEST PUSH1 0x0 DUP2 SWAP1 POP SWAP2 SWAP1 POP JUMP JUMPDEST PUSH2 0x1C15 DUP4 PUSH2 0x1BE0 JUMP JUMPDEST PUSH2 0x1C29 PUSH2 0x1C21 DUP3 PUSH2 0x1C02 JUMP JUMPDEST DUP5 DUP5 SLOAD PUSH2 0x1B84 JUMP JUMPDEST DUP3 SSTORE POP POP POP POP JUMP JUMPDEST PUSH1 0x0 SWAP1 JUMP JUMPDEST PUSH2 0x1C3E PUSH2 0x1C31 JUMP JUMPDEST PUSH2 0x1C49 DUP2 DUP5 DUP5 PUSH2 0x1C0C JUMP JUMPDEST POP POP POP JUMP JUMPDEST JUMPDEST DUP2 DUP2 LT ISZERO PUSH2 0x1C6D JUMPI PUSH2 0x1C62 PUSH1 0x0 DUP3 PUSH2 0x1C36 JUMP JUMPDEST PUSH1 0x1 DUP2 ADD SWAP1 POP PUSH2 0x1C4F JUMP JUMPDEST POP POP JUMP JUMPDEST PUSH1 0x1F DUP3 GT ISZERO PUSH2 0x1CB2 JUMPI PUSH2 0x1C83 DUP2 PUSH2 0x1B52 JUMP JUMPDEST PUSH2 0x1C8C DUP5 PUSH2 0x1B67 JUMP JUMPDEST DUP2 ADD PUSH1 0x20 DUP6 LT ISZERO PUSH2 0x1C9B JUMPI DUP2 SWAP1 POP JUMPDEST PUSH2 0x1CAF PUSH2 0x1CA7 DUP6 PUSH2 0x1B67 JUMP JUMPDEST DUP4 ADD DUP3 PUSH2 0x1C4E JUMP JUMPDEST POP POP JUMPDEST POP POP POP JUMP JUMPDEST PUSH1 0x0 DUP3 DUP3 SHR SWAP1 POP SWAP3 SWAP2 POP POP JUMP JUMPDEST PUSH1 0x0 PUSH2 0x1CD5 PUSH1 0x0 NOT DUP5 PUSH1 0x8 MUL PUSH2 0x1CB7 JUMP JUMPDEST NOT DUP1 DUP4 AND SWAP2 POP POP SWAP3 SWAP2 POP POP JUMP JUMPDEST PUSH1 0x0 PUSH2 0x1CEE DUP4 DUP4 PUSH2 0x1CC4 JUMP JUMPDEST SWAP2 POP DUP3 PUSH1 0x2 MUL DUP3 OR SWAP1 POP SWAP3 SWAP2 POP POP JUMP JUMPDEST PUSH2 0x1D07 DUP3 PUSH2 0x15BE JUMP JUMPDEST PUSH8 0xFFFFFFFFFFFFFFFF DUP2 GT ISZERO PUSH2 0x1D20 JUMPI PUSH2 0x1D1F PUSH2 0x1145 JUMP JUMPDEST JUMPDEST PUSH2 0x1D2A DUP3 SLOAD PUSH2 0x1B21 JUMP JUMPDEST PUSH2 0x1D35 DUP3 DUP3 DUP6 PUSH2 0x1C71 JUMP JUMPDEST PUSH1 0x0 PUSH1 0x20 SWAP1 POP PUSH1 0x1F DUP4 GT PUSH1 0x1 DUP2 EQ PUSH2 0x1D68 JUMPI PUSH1 0x0 DUP5 ISZERO PUSH2 0x1D56 JUMPI DUP3 DUP8 ADD MLOAD SWAP1 POP JUMPDEST PUSH2 0x1D60 DUP6 DUP3 PUSH2 0x1CE2 JUMP JUMPDEST DUP7 SSTORE POP PUSH2 0x1DC8 JUMP JUMPDEST PUSH1 0x1F NOT DUP5 AND PUSH2 0x1D76 DUP7 PUSH2 0x1B52 JUMP JUMPDEST PUSH1 0x0 JUMPDEST DUP3 DUP2 LT ISZERO PUSH2 0x1D9E JUMPI DUP5 DUP10 ADD MLOAD DUP3 SSTORE PUSH1 0x1 DUP3 ADD SWAP2 POP PUSH1 0x20 DUP6 ADD SWAP5 POP PUSH1 0x20 DUP2 ADD SWAP1 POP PUSH2 0x1D79 JUMP JUMPDEST DUP7 DUP4 LT ISZERO PUSH2 0x1DBB JUMPI DUP5 DUP10 ADD MLOAD PUSH2 0x1DB7 PUSH1 0x1F DUP10 AND DUP3 PUSH2 0x1CC4 JUMP JUMPDEST DUP4 SSTORE POP JUMPDEST PUSH1 0x1 PUSH1 0x2 DUP9 MUL ADD DUP9 SSTORE POP POP POP JUMPDEST POP POP POP POP POP POP JUMP JUMPDEST PUSH1 0x0 DUP2 SWAP1 POP SWAP3 SWAP2 POP POP JUMP JUMPDEST PUSH1 0x0 PUSH2 0x1DE6 DUP3 PUSH2 0x15BE JUMP JUMPDEST PUSH2 0x1DF0 DUP2 DUP6 PUSH2 0x1DD0 JUMP JUMPDEST SWAP4 POP PUSH2 0x1E00 DUP2 DUP6 PUSH1 0x20 DUP7 ADD PUSH2 0x15DA JUMP JUMPDEST DUP1 DUP5 ADD SWAP2 POP POP SWAP3 SWAP2 POP POP JUMP JUMPDEST PUSH1 0x0 PUSH2 0x1E18 DUP3 DUP5 PUSH2 0x1DDB JUMP JUMPDEST SWAP2 POP DUP2 SWAP1 POP SWAP3 SWAP2 POP POP JUMP JUMPDEST PUSH1 0x0 PUSH1 0xA0 DUP3 ADD SWAP1 POP PUSH2 0x1E38 PUSH1 0x0 DUP4 ADD DUP9 PUSH2 0x1302 JUMP JUMPDEST DUP2 DUP2 SUB PUSH1 0x20 DUP4 ADD MSTORE PUSH2 0x1E4A DUP2 DUP8 PUSH2 0x1604 JUMP JUMPDEST SWAP1 POP PUSH2 0x1E59 PUSH1 0x40 DUP4 ADD DUP7 PUSH2 0x1302 JUMP JUMPDEST DUP2 DUP2 SUB PUSH1 0x60 DUP4 ADD MSTORE PUSH2 0x1E6B DUP2 DUP6 PUSH2 0x1604 JUMP JUMPDEST SWAP1 POP PUSH2 0x1E7A PUSH1 0x80 DUP4 ADD DUP5 PUSH2 0x1302 JUMP JUMPDEST SWAP7 SWAP6 POP POP POP POP POP POP JUMP JUMPDEST PUSH32 0x4E6F74206F776E65720000000000000000000000000000000000000000000000 PUSH1 0x0 DUP3 ADD MSTORE POP JUMP JUMPDEST PUSH1 0x0 PUSH2 0x1EBA PUSH1 0x9 DUP4 PUSH2 0x15C9 JUMP JUMPDEST SWAP2 POP PUSH2 0x1EC5 DUP3 PUSH2 0x1E84 JUMP JUMPDEST PUSH1 0x20 DUP3 ADD SWAP1 POP SWAP2 SWAP1 POP JUMP JUMPDEST PUSH1 0x0 PUSH1 0x20 DUP3 ADD SWAP1 POP DUP2 DUP2 SUB PUSH1 0x0 DUP4 ADD MSTORE PUSH2 0x1EE9 DUP2 PUSH2 0x1EAD JUMP JUMPDEST SWAP1 POP SWAP2 SWAP1 POP JUMP JUMPDEST PUSH1 0x0 PUSH1 0x40 DUP3 ADD SWAP1 POP PUSH2 0x1F05 PUSH1 0x0 DUP4 ADD DUP6 PUSH2 0x13ED JUMP JUMPDEST PUSH2 0x1F12 PUSH1 0x20 DUP4 ADD DUP5 PUSH2 0x13C3 JUMP JUMPDEST SWAP4 SWAP3 POP POP POP JUMP JUMPDEST PUSH32 0x4E487B7100000000000000000000000000000000000000000000000000000000 PUSH1 0x0 MSTORE PUSH1 0x32 PUSH1 0x4 MSTORE PUSH1 0x24 PUSH1 0x0 REVERT INVALID LOG2 PUSH5 0x6970667358 0x22 SLT KECCAK256 REVERT 0xEB SUB 0x2E 0xEE SWAP14 0xC 0xF6 0xD4 0x1F 0xF 0xA6 0xAA PUSH25 0x36D3E7435995BBBB3795D416FC2D489D791164736F6C634300 ADDMOD EQ STOP CALLER "},"methodIdentifiers":{"authorizeWriter(address,bool)":"d215e128","authorizedWriters(address)":"526241a8","entries(uint256)":"b30906d4","getProductHistory(string)":"d4f50453","getTotalMovesForProduct(string)":"c0b5c32a","owner()":"8da5cb5b","productHistory(string,uint256)":"01970b11","recordStockMove(string,string,string,string,uint256,string,string,string)":"98283f8e"}}}}}